:020000041FFFDC
:10F14000464C4452563030310000000055F1FF1F4C
:10F15000E5F1FF1F2DE9F8430646174684688C4207
:10F1600011D8C368234499420DD201F500010C1B4C
:10F17000C7F30A00003018BF0120194D4FF0700985
:10F180004FF009081BE03468A14223D3736823447D
:10F19000994222D20C1BEBE785F8009085F8078096
:10F1A000C4F30743AB71C4F307236B71E3B22B7154
:10F1B000304600F023F9A7F5006704F500643FB17D
:10F1C00020B92B7813F0800FE6D10220BDE8F88338
:10F1D000BDE8F8830120BDE8F8830120BDE8F8838D
:10F1E0000000024012F0070F4ED12DE9F047814692
:10F1F0000C46154682688A4208D8C16811448C4280
:10F2000004D204F50004A41A00200CE0D9F8002070
:10F21000944207D3D9F8041011448C4213D2A41A93
:10F22000002000E001205E1EDFF86C804FF0700AC5
:10F23000174F5DB350BB98F8003013F0800F04D126
:10F240000220BDE8F0870120EDE788F800A0072341
:10F2500088F80730C4F3074388F80630C4F307235F
:10F2600088F80530E3B288F804303346094A13F8C9
:10F27000011F02F8011FBA42F9D1484600F0BEF85A
:10F280000834083D0836D4E701207047BDE8F08710
:10F290000F000240070002400000024008B5074B83
:10F2A0001B7813F0800F01D1022008BD034B7022A0
:10F2B0001A704422DA7100F0A1F808BD0000024083
:10F2C0000C4B1B7813F0800F01D10220704710B552
:10F2D000084B70241C704324DC719971013A073388
:10F2E000054C12F8011F03F8011FA342F9D100F0E9
:10F2F00085F810BD000002400F0002401C4B5B78F7
:10F3000013F0020F01D10420704710B583688B42BF
:10F310000DD8C4681C44A14209D201F50001C91AE4
:10F32000134B1B7813F0800F0AD1022010BD036825
:10F33000994219D344681C44A14217D2C91AEFE775
:10F340000B4B70241C700B24DC71C1F307449C71BF
:10F35000C1F307245C71C9B21971110AD972D2B212
:10F360009A7200F04BF810BD012010BD012010BDB5
:10F370000000024008B583688B420DD8C2681A4469
:10F38000914209D201F50001C91A124B1B7813F002
:10F39000800F0AD1022008BD0368994215D3426844
:10F3A0001A44914213D2C91AEFE70A4B70221A701D
:10F3B0000822DA71C1F307429A71C1F307225A7128
:10F3C000C9B2197100F01AF808BD012008BD01206A
:10F3D00008BD00BF0000024008B5074B1B7813F0C2
:10F3E000800F01D1022008BD034B70221A70492200
:0CF3F000DA7100F003F808BD00000240D4
:10F3FC0038B505460B4A137843F080031370144656
:10F40C00237813F0800F05D1AB69B3F1FF3FF7D030
:10F41C009847F5E7034B1B7813F0710F14BF0120CD
:08F42C00002038BD0000024081
:10F43400420900F01F00012303FA00F0014B43F8D6
:08F444002200704700E100E026
:10F44C00430900F01F00012202FA00F02033024AA7
:0CF45C0042F82300704700BF00E100E010
:10F4680003680B6043684B6083688B60C3680B61FB
:10F4780003698B61354BDB6CC3F3033313B3012B87
:10F4880027D0022B29D0032B2BD0042B30D0052BCF
:10F4980031D0062B33D0072B35D0082B37D0092B8A
:10F4A80038D00A2B3AD00B2B3CD00C2B3ED00D2B4E
:10F4B80040D00E2B42D00F2B44D0CB68B3F5803F01
:10F4C80012D302E04FF48033CB6000234B6100205D
:10F4D80070474FF0FF33CB60F7E74FF0FF33CB6057
:10F4E800F3E74FF40043CB604FF480534B61EEE7F2
:10F4F8000023CB60F8E74FF0FF33CB60E5E74FF030
:10F50800FF33CB60E1E74FF0FF33CB60DDE700234B
:10F51800CB60E9E74FF0FF33CB60D6E74FF4804389
:10F52800CB60E1E74FF40043CB60DDE74FF4803375
:10F53800CB60CAE74FF0FF33CB60C6E74FF0FF332D
:10F54800CB60C2E74FF48033CB60BEE70080044055
:10F5580030B40749CD7C8A7C4C7C0B7C120442EA8F
:10F568000562134343EA0423036030BC704700BFBD
:04F57800000002404D
:10F57C00F0B4050EC0F30746C0F30727C0B20F4B1B
:10F58C00DD749E745F741874DA7CD2B2997C5C7CE6
:10F59C001B7C954202D00120F0BC7047C9B2E4B28A
:10F5AC00DBB28E4201D00120F6E7A74201D0012048
:10F5BC00F2E7C01A18BF0120EEE700BF00000240BE
:10F5CC00084B9B78DBB203F00302022A07D003F04E
:10F5DC00C003802B0CBF022304230370704701234C
:08F5EC000370704700000240AB
:10F5F4000C4B1B7813F0800F01D10220704710B51B
:10F60400084B70221A704522DA7101390733064C0F
:10F6140011F8012F03F8012FA342F9D1FFF7ECFEF3
:0CF6240010BD00BF000002400F000240BB
:10F6300008B5084B1B7813F0800F01D1022008BDDC
:10F64000044B70221A704022DA719971FFF7D6FECE
:08F6500008BD00BF00000240EC
:10F6580038B584688C420DD8C5682544A94209D2BA
:10F6680001F50001091B144C247814F0800F0AD10D
:10F67800022038BD0468A1421AD345682544A9422E
:10F6880018D2091BEFE70C4C702525700125E57190
:10F69800C1F30745A571C1F307256571C9B2217189
:10F6A800110AE172D2B2A2726372FFF7A3FE38BDEB
:0CF6B800012038BD012038BD00000240D8
:10F6C4000B4B1B7813F0800F10D1094B5A7842F082
:10F6D40010025A701B7813F0800F07D1402304499D
:10F6E4000A7812F0800F01D1013BF9D1704700BFB5
:04F6F40000000240D0
:10F6F8000C4B5B7813F0100F12D00A4B1A7842F0BB
:10F7080080021A701B7813F0800F09D12023054955
:10F718000A7812F0800F03D1013B9BB2002BF7D17E
:08F72800704700BF0000024021
:10F730000F4B1B7813F0800F08BF022301D118462E
:10F74000704710B514460A4B70221A704122DA71C4
:10F750009971FFF753FE034640B9621E0549064CF6
:10F7600011F8010F02F8010FA142F9D1184610BD9E
:0CF7700000000240070002400F000240B1
:10F77C002DE9F84F9DF82CB012F0030F54D18146AF
:10F78C00174686688E420ED8C268324491420AD21D
:10F79C0001F50005AD1B2E4403F1FF380023264C68
:10F7AC00DFF8A0A012E0D9F80060B14240D3D9F83C
:10F7BC000420324491423DD28D1BECE70A9A16602C
:10F7CC000427043F0435043608F104086FB323788A
:10F7DC0013F0800F03D1237813F0800FFBD070232C
:10F7EC0023700223E371C5F30743A371C5F3072309
:10F7FC006371EBB2237184F80BB042460F4B12F8D5
:10F80C00011F03F8011F5345F9D14846FFF7F0FDDE
:10F81C0003460028D5D00A4A9542CFD9A6F5000256
:10F82C000A990A600427CCE701231846BDE8F88F33
:10F83C000123FAE70123F8E7000002400B00024025
:08F84C00FFFF7F000F000240E6
:10F85400F8B556180468A14203D345682C44A6425F
:10F8640006D98468A14224D3C5682C44A64220D872
:10F8740000241C603AB11D4607460C4614F8013BAF
:10F884002B60012102E02046F8BD0021A6420ED0E3
:10F8940014F8013B2A681A442A6001310929F5D970
:10F8A400BB69B3F1FF3FF0D098470021EEE7002099
:0AF8B400F8BD00221A600120F8BD23
:02F8BE00000048
:10F8C00010B583688B420DD8C4681C44A14209D28C
:10F8D00001F50001C91A124B1B7813F0800F0AD1F1
:10F8E000022010BD0368994216D344681C44A1420B
:10F8F00014D2C91AEFE70A4B70241C700024DC7183
:10F90000C1F307449C71C1F307245C71C9B219713A
:10F91000DA72FFF773FD10BD012010BD012010BD8C
:04F9200000000240A1
:10F92400054B5B7813F0010F01D104207047024BA3
:0CF934009B7D0370002070470000024023
:10F94000074B5B7813F0010F01D104207047044B83
:10F9500098759B7DDBB2C01A18BF0120704700BFAD
:04F960000000024061
:10F9640038B5184C247814F0800F01D1022038BD2A
:10F974001D460C46134B702119708121D9719C715D
:10F98400552C15D0FFF738FD772C19D1C0B9B5B176
:10F994000C4B9A7A2A70DA7B1202AA80997B0A436A
:10F9A400AA805A7A12026A801B7A1A436A8038BD86
:10F9B400110AD972D2B29A72FFF71EFD38BD012026
:08F9C40038BD00BF0000024045
:10F9CC002DE9F84F9846344B5B7813F0010F02D1B8
:10F9DC000420BDE8F88F05460E46914603698B421C
:10F9EC0041D88A1841690B449A423FD8B9F1000FAB
:10F9FC003FD04FF0040B4FF0010A274C1CE098F855
:10FA0C00032098F802301B0443EA026398F80020A4
:10FA1C00134398F8012043EA022333605F462FE03A
:10FA2C00237813F0710314BF012000203E44B84426
:10FA3C00B9EB07092ED0A3B916F0030F02D1B9F117
:10FA4C00030FDCD816F0010F16D1B9F1010F13D941
:10FA5C0098F8012098F8003043EA022333800227FB
:10FA6C000EE0BDE8F88F0120BDE8F88F0120BDE85D
:10FA7C00F88F0020BDE8F88F98F8003033705746A7
:10FA8C00637813F0010FCBD1AB69B3F1FF3FF7D023
:0CFA9C009847F5E7BDE8F88F0000024035
:10FAA80038B50D4C247814F0800F01D1022038BDF0
:10FAB800094C702525708025E571A3719DF81030DB
:10FAC80063719DF8143083F001032371E172A2720F
:0CFAD800FFF790FC38BD00BF00000240AA
:10FAE400C3680BB904207047024BDB7D0B70002008
:08FAF400704700BF0000024052
:10FAFC00C3680BB904207047034BD975D87DC0B2CD
:0CFB0C00081A18BF0120704700000240DA
:10FB1800054A537843F0800353704FF48022034B17
:10FB28001A600020704700BF0000024000E100E0BA
:10FB3800054A537803F07F0353704FF48022034B38
:10FB4800C3F88020704700BF0000024000E100E0D9
:10FB5800054A537843F0400353704FF40022034B97
:10FB68001A600020704700BF0000024000E100E07A
:10FB7800054A537803F0BF0353704FF40022034B38
:10FB8800C3F88020704700BF0000024000E100E099
:10FB9800064A92F82F3043F0020382F82F304FF4D0
:10FBA8000012034B1A600020704700BF000002409B
:04FBB80000E100E088
:10FBBC00064A92F82F3003F0FD0382F82F304FF4F1
:10FBCC000012034BC3F88020704700BF00000240B6
:04FBDC0000E100E064
:10FBE000002303604FF4802343604FF08053836011
:0EFBF0004FF0A053C3604FF0FF330361704726
:040000051FFFF3FCEA
:00000001FF
