:020000040001F9
:10D0000000FFFF1F85D40100D5D40100D5D4010055
:10D01000D5D40100D5D40100D5D401000000000012
:10D02000000000000000000000000000D5D4010056
:10D03000D5D4010000000000D5D40100C5AB02002A
:10D04000E36C0200ED6C0200F76C0200016D02005F
:10D050000B6D0200156D02001F6D0200296D0200AC
:10D06000336D02003D6D0200476D0200516D0200FC
:10D070005B6D0200656D02006F6D0200796D02004C
:10D08000836D0200D5D4010029670200D5D40100C8
:10D09000D5D40100D5D40100D5D40100D5D40100E8
:10D0A000D5D40100D5D40100D5D40100D5D40100D8
:10D0B000D5D40100D5D40100D5D40100D5D40100C8
:10D0C000D5D40100D5D40100D5D40100D5D40100B8
:10D0D000D5D40100D5D40100D5D40100D5D40100A8
:10D0E000D5D40100D5D40100D5D40100D5D4010098
:10D0F000D5D40100D5D40100D5A80200DFA80200D4
:10D10000D5D40100D5D40100D5D40100D5D4010077
:10D11000D5D40100D5D40100D5D40100D5D4010067
:10D12000D5D40100D5D40100D5D40100D5D4010057
:10D13000D5D40100D5D40100D5D40100D5D4010047
:10D14000D5D40100D5D40100D5D40100D5D4010037
:10D15000D5D40100D5D40100D5D40100D5D4010027
:10D16000D5D40100D5D40100D5D40100D5D4010017
:10D17000D5D40100D5D40100EB820200F582020073
:10D18000FF8202000983020013830200D5D401004C
:10D19000D5D401001D83020027830200D5D40100ED
:10D1A00031830200D5D40100D5D40100D5D40100CB
:10D1B000D5D40100D5D40100D5D40100D5D40100C7
:10D1C000D5D40100D5D40100D5D40100998802003E
:10D1D000A5880200B1880200BD880200D5D40100F4
:10D1E000D5D40100C9880200D5880200E188020078
:10D1F000ED880200D5D40100D5D40100F9880200E1
:10D2000005890200118902001D890200D5D40100A0
:10D21000D5D4010029890200358902004189020024
:10D220004D890200D5D40100D5D40100D5D4010028
:10D23000D5D40100D5D40100D5D40100D5D4010046
:10D24000D5D40100D5D40100D5D40100D5D4010036
:10D25000D5D40100D5D40100D5D40100D5D4010026
:10D26000D5D40100D5D40100D5D40100D5D4010016
:10D27000D5D40100D5D40100D5D40100D5D4010006
:10D28000D5D40100D5D40100D5D40100D5D40100F6
:10D29000D5D40100D5D40100D5D40100D5D40100E6
:10D2A000D5D40100D5D40100D5D40100D5D40100D6
:10D2B000D5D40100D5D40100D5D40100D5D40100C6
:10D2C000D5D40100D5D40100D5D40100D5D40100B6
:10D2D000D5D40100D5D40100D5D40100D5D40100A6
:10D2E000D5D40100D5D40100D5D40100D5D4010096
:10D2F000D5D40100D5D40100D5D40100D5D4010086
:10D30000D5D40100D5D40100D5D40100D5D4010075
:10D31000D5D40100D5D40100D5D40100D5D4010065
:10D32000D5D40100D5D40100D5D40100D5D4010055
:10D33000D5D40100D5D40100D5D40100D5D4010045
:10D34000D5D40100D5D40100D5D40100D5D4010035
:10D35000D5D40100D5D40100D5D40100D5D4010025
:10D36000D5D40100D5D40100D5D40100D5D4010015
:10D37000D5D40100D5D40100D5D40100D5D4010005
:10D38000D5D40100D5D40100D5D40100D5D40100F5
:10D39000D5D40100D5D40100D5D40100D5D40100E5
:10D3A000D5D40100D5D40100D5D40100D5D40100D5
:10D3B000D5D40100D5D40100D5D40100D5D40100C5
:10D3C000D5D40100D5D40100D5D40100D5D40100B5
:10D3D000D5D40100D5D40100D5D40100D5D40100A5
:10D3E000D5D40100D5D40100D5D40100D5D4010095
:10D3F000D5D40100D5D40100D5D40100FFFFFFFF33
:10D400005334363731322E30312E3030544C434D78
:10D41000430000003031000010B5054C237833B9CB
:10D42000044B13B10448AFF300800123237010BDF7
:10D430000000002000000000846003000C4B43B19A
:10D440000C480D4910B5AFF300800C48036823B9B0
:10D4500010BD0A48036833B97047094B002BF7D059
:10D46000BDE810401847064B002BF5D0184700BF09
:10D47000000000008460030004000020D0D8FF1FDB
:10D480000000000072B64FF000014FF000024FF0B4
:10D4900000034FF000044FF000054FF000064FF07E
:10D4A0000007B846B946BA46BB46BC46054885465D
:10D4B00005488047054880470548804762B615F013
:10D4C000F9FDFEE700FFFF1FFD4B0200414B02008C
:10D4D00055DD0200FFF7FEBF81F0004102E000BF12
:10D4E00083F0004330B54FEA41044FEA430594EA24
:10D4F000050F08BF90EA020F1FBF54EA000C55EA5F
:10D50000020C7FEA645C7FEA655C00F0E2804FEA2F
:10D510005454D4EB5555B8BF6D420CDD2C4480EA11
:10D52000020281EA030382EA000083EA010180EA41
:10D53000020281EA0303362D88BF30BD11F0004F8F
:10D540004FEA01314FF4801C4CEA113102D04042C5
:10D5500061EB410113F0004F4FEA03334CEA133300
:10D5600002D0524263EB430394EA050F00F0A78018
:10D57000A4F10104D5F1200E0DDB02FA0EFC22FA13
:10D5800005F2801841F1000103FA0EF2801843FA07
:10D5900005F359410EE0A5F120050EF1200E012AF8
:10D5A00003FA0EFC28BF4CF0020C43FA05F3C01836
:10D5B00051EBE37101F0004507D54FF0000EDCF1AF
:10D5C000000C7EEB00006EEB0101B1F5801F1BD358
:10D5D000B1F5001F0CD349085FEA30004FEA3C0C5C
:10D5E00004F101044FEA445212F5800F80F09A8052
:10D5F000BCF1004F08BF5FEA500C50F1000041EB56
:10D60000045141EA050130BD5FEA4C0C404141EB59
:10D61000010111F4801FA4F10104E9D191F0000F80
:10D6200004BF01460020B1FA81F308BF2033A3F103
:10D630000B03B3F120020CDA0C3208DD02F1140CFA
:10D64000C2F10C0201FA0CF021FA02F10CE002F135
:10D650001402D8BFC2F1200C01FA02F120FA0CFC2E
:10D66000DCBF41EA0C019040E41AA2BF01EB045177
:10D67000294330BD6FEA04041F3C1CDA0C340EDC75
:10D6800004F11404C4F1200220FA04F001FA02F3B8
:10D6900040EA030021FA04F345EA030130BDC4F176
:10D6A0000C04C4F1200220FA02F001FA04F340EA6B
:10D6B0000300294630BD21FA04F0294630BD94F01C
:10D6C000000F83F4801306BF81F480110134013D03
:10D6D0004EE77FEA645C18BF7FEA655C29D094EA74
:10D6E000050F08BF90EA020F05D054EA000C04BFF2
:10D6F0001946104630BD91EA030F1EBF00210020DD
:10D7000030BD5FEA545C05D14000494128BF41F07B
:10D71000004130BD14F580043CBF01F5801130BDDF
:10D7200001F0004545F0FE4141F470014FF000006A
:10D7300030BD7FEA645C1ABF194610467FEA655C1B
:10D740001CBF0B46024650EA013406BF52EA0335BD
:10D7500091EA030F41F4002130BD00BF90F0000FAB
:10D7600004BF0021704730B54FF4806404F13204E7
:10D770004FF000054FF0000150E700BF90F0000FA0
:10D7800004BF0021704730B54FF4806404F13204C7
:10D7900010F0004548BF40424FF000013EE700BF97
:10D7A00042004FEAE2014FEA31014FEA02701FBF27
:10D7B00012F07F4393F07F4F81F06051704792F0F9
:10D7C000000F14BF93F07F4F704730B54FF4607473
:10D7D00001F0004521F0004120E700BF50EA0102BE
:10D7E00008BF704730B54FF000050AE050EA01026B
:10D7F00008BF704730B511F0004502D5404261EBDB
:10D8000041014FF4806404F132045FEA915C3FF41B
:10D81000DCAE4FF003025FEADC0C18BF03325FEAB4
:10D82000DC0C18BF033202EBDC02C2F1200300FA69
:10D8300003FC20FA02F001FA03FE40EA0E0021FA8E
:10D8400002F11444C1E600BF70B54FF0FF0C4CF478
:10D85000E06C1CEA11541DBF1CEA135594EA0C0F2E
:10D8600095EA0C0F00F0DEF82C4481EA030621EA69
:10D870004C5123EA4C5350EA013518BF52EA0335A4
:10D8800041F4801143F4801338D0A0FB02CE4FF056
:10D890000005E1FB02E506F00042E0FB03E54FF086
:10D8A0000006E1FB03569CF0000F18BF4EF0010E7E
:10D8B000A4F1FF04B6F5007F64F5407404D25FEA7A
:10D8C0004E0E6D4146EB060642EAC62141EA55512D
:10D8D0004FEAC52040EA5E504FEACE2EB4F1FD0C6F
:10D8E00088BFBCF5E06F1ED8BEF1004F08BF5FEAED
:10D8F000500E50F1000041EB045170BD06F000469F
:10D9000046EA010140EA020081EA0301B4EB5C044B
:10D91000C2BFD4EB0C0541EA045170BD41F4801143
:10D920004FF0000E013C00F3AB8014F1360FDEBF68
:10D93000002001F0004170BDC4F10004203C35DA44
:10D940000C341BDC04F11404C4F1200500FA05F3C7
:10D9500020FA04F001FA05F240EA020001F0004268
:10D9600021F0004110EBD37021FA04F642EB0601DE
:10D970005EEA430E08BF20EAD37070BDC4F10C0408
:10D98000C4F1200500FA04F320FA05F001FA04F2CC
:10D9900040EA020001F0004110EBD37041F10001B8
:10D9A0005EEA430E08BF20EAD37070BDC4F12005C3
:10D9B00000FA05F24EEA020E20FA04F301FA05F22B
:10D9C00043EA020321FA04F001F0004121FA04F2D3
:10D9D00020EA020000EBD3705EEA430E08BF20EAA3
:10D9E000D37070BD94F0000F0FD101F000464000DD
:10D9F00041EB010111F4801F08BF013CF7D041EA5F
:10DA0000060195F0000F18BF704703F00046520062
:10DA100043EB030313F4801F08BF013DF7D043EA33
:10DA20000603704794EA0C0F0CEA135518BF95EAE9
:10DA30000C0F0CD050EA410618BF52EA4306D1D170
:10DA400081EA030101F000414FF0000070BD50EA8F
:10DA5000410606BF1046194652EA430619D094EA19
:10DA60000C0F02D150EA013613D195EA0C0F05D103
:10DA700052EA03361CBF104619460AD181EA030157
:10DA800001F0004141F0FE4141F470014FF000000F
:10DA900070BD41F0FE4141F4780170BD70B54FF0AA
:10DAA000FF0C4CF4E06C1CEA11541DBF1CEA13552A
:10DAB00094EA0C0F95EA0C0F00F0A7F8A4EB05040C
:10DAC00081EA030E52EA03354FEA013100F0888003
:10DAD0004FEA03334FF0805545EA131343EA1263CC
:10DAE0004FEA022245EA111545EA10654FEA002681
:10DAF0000EF000419D4208BF964244F1FD0404F53A
:10DB0000407402D25B084FEA3202B61A65EB030595
:10DB10005B084FEA32024FF480104FF4002CB6EB52
:10DB2000020E75EB030E22BFB61A754640EA0C00D2
:10DB30005B084FEA3202B6EB020E75EB030E22BF12
:10DB4000B61A754640EA5C005B084FEA3202B6EB53
:10DB5000020E75EB030E22BFB61A754640EA9C0012
:10DB60005B084FEA3202B6EB020E75EB030E22BFE2
:10DB7000B61A754640EADC0055EA060E18D04FEAA0
:10DB8000051545EA16754FEA06164FEAC30343EA40
:10DB900052734FEAC2025FEA1C1CC0D111F4801F0D
:10DBA0000BD141EA00014FF000004FF0004CB6E706
:10DBB00011F4801F04BF01430020B4F1FD0C88BFA5
:10DBC000BCF5E06F3FF6AFAEB5EB030C04BFB6EBB0
:10DBD000020C5FEA500C50F1000041EB045170BDA3
:10DBE0000EF0004E4EEA113114EB5C04C2BFD4EBD0
:10DBF0000C0541EA045170BD41F480114FF0000E54
:10DC0000013C90E645EA060E8DE60CEA135594EACF
:10DC10000C0F08BF95EA0C0F3FF43BAF94EA0C0FD2
:10DC20000AD150EA01347FF434AF95EA0C0F7FF447
:10DC300025AF104619462CE795EA0C0F06D152EA9B
:10DC400003353FF4FDAE1046194622E750EA41067F
:10DC500018BF52EA43067FF4C5AE50EA41047FF490
:10DC60000DAF52EA43057FF4EBAE12E74FF0FF3CF5
:10DC700006E000BF4FF0010C02E000BF4FF0010CC6
:10DC80004DF804CD4FEA410C7FEA6C5C4FEA430C3F
:10DC900018BF7FEA6C5C1BD001B050EA410C0CBF8E
:10DCA00052EA430C91EA030F02BF90EA020F0020F0
:10DCB000704710F1000F91EA030F58BF994208BF57
:10DCC00090422CBFD8176FEAE37040F00100704714
:10DCD0004FEA410C7FEA6C5C02D150EA013C07D16B
:10DCE0004FEA430C7FEA6C5CD6D152EA033CD3D0B6
:10DCF0005DF8040B704700BF8446104662468C46B0
:10DD00001946634600E000BF01B5FFF7B7FF0028E2
:10DD100048BF10F1000F01BD4DF808EDFFF7F4FF0B
:10DD20000CBF012000205DF808FB00BF4DF808ED96
:10DD3000FFF7EAFF34BF012000205DF808FB00BFB9
:10DD40004DF808EDFFF7E0FF94BF012000205DF8DB
:10DD500008FB00BF4DF808EDFFF7CEFF94BF012090
:10DD600000205DF808FB00BF4DF808EDFFF7C4FF89
:10DD700034BF012000205DF808FB00BF4A0011D22B
:10DD800012F5001211D20DD56FF47873B3EB625215
:10DD90000ED44FEAC12343F0004343EA505323FA21
:10DDA00002F070474FF00000704750EA013002D196
:10DDB0004FF0FF3070474FF00000704710F8012B14
:10DDC00011F8013B012A28BF9A42F7D0D01A7047B8
:10DDD00001F0FF01102A2BDB10F0070F08D010F81C
:10DDE000013B013A8B422DD010F0070F42B3F6D120
:10DDF000F0B441EA012141EA014122F007047FF039
:10DE000000070023F0E80256083C85EA010586EA8F
:10DE1000010685FA47F5A3FA87F586FA47F6A5FACB
:10DE200087F68EB9EED1F0BC01F0FF0102F00702D7
:10DE300032B110F8013B013A83EA010313B1F8D182
:10DE40000020704701387047002D06BF3546033863
:10DE5000073815F0010F07D1013015F4807F02BF9C
:10DE6000013015F4C03F0130F0BC0138704700BFED
:10DE700030B587B000258DF8175001248DF8164075
:10DE80008DF815408DF814408DF813408DF8124030
:10DE90008DF811408DF810408DF80F408DF80E4030
:10DEA0008DF80D408DF80C408DF80B408DF80A4030
:10DEB0008DF809400DF11701284602F071F80DF1B7
:10DEC0001601284602F046FD0DF11501204602F02C
:10DED00041FD05A9022002F03DFD0DF113010320D3
:10DEE00002F038FD0DF112010B2002F033FD0DF1AF
:10DEF00011010A2002F02EFD04A9284603F088FA39
:10DF00000DF10F01204603F083FA0DF10E010720F9
:10DF100003F07EFA0DF10D01082003F079FA0DF1FE
:10DF20000A010A2003F074FA0DF109010B2003F035
:10DF30006FFA03A90D2003F06BFA0DF10B010E200F
:10DF400003F066FA0DF106010C2003F041FA01A975
:10DF5000322003F03DFA9DF81730013BDBB2A342BB
:10DF600004D91B200FF0D0FB07B030BD1B200FF0F1
:10DF7000E1FB9DF81630042B3DD09DF81530042BA5
:10DF800039D09DF81430042B35D09DF81330042B74
:10DF900031D09DF81230042B2DD09DF81130042B78
:10DFA00029D01C200FF0C6FB9DF81030052B26D081
:10DFB0009DF80E30052B22D09DF80A30052B1ED07F
:10DFC0009DF80C30052B1AD01E200FF0B3FB9DF8E6
:10DFD0000F30052B17D09DF80D30052B13D09DF871
:10DFE0000930052B0FD09DF80B30052B0BD01D20D1
:10DFF0000FF0A0FBB8E71C200FF086FBB4E71E2053
:10E000000FF082FBB0E71D200FF07EFBACE70000B5
:10E0100000B583B002A9002321F8023D202003F0BF
:10E02000D7F916490A88164B1A80142003F01EFAF5
:10E03000202003F00DFD012808D0124B1B78CBB92E
:10E040001A200FF061FB03B05DF804FBBDF8063049
:10E05000352B0BD9094B1B88002BEED1084A1288AF
:10E060009342EAD00022074B1A70E6E70122054BE3
:10E070001A70E2E71A200FF05DFBE4E71C000020B5
:10E080001E00002002C4FF1F10B58CB001238DF8C4
:10E090002F308DF82E308DF82D308DF82C308DF8F6
:10E0A0002B308DF82A308DF829308DF828308DF8F6
:10E0B00027308DF826308DF825308DF824308DF8F6
:10E0C00023308DF822308DF821308DF820301B2040
:10E0D0000FF067FA04461F200FF063FA0DF12F01CD
:10E0E000042002F037FC0DF12E01052002F032FC75
:10E0F0000DF12D01062002F02DFC0BA9072002F0E6
:10E1000029FC0DF12B01082002F024FC0DF12A015D
:10E110000C2002F01FFC0DF12901122003F078F908
:10E120000AA9132003F074F90DF12701182003F058
:10E130006FF90DF12601192003F06AF90DF125019F
:10E140001E2003F065F909A91F2003F061F90DF104
:10E150002301232003F05CF90DF12201242003F0B8
:10E1600057F90DF12101332003F052F908A93420A9
:10E1700003F04EF90DF11E01162003F029F907A94D
:10E18000172003F025F90DF11601142003F020F9F2
:10E1900005A9152003F01CF90DF112011A2003F056
:10E1A00017F904A91B2003F013F90DF11A011C2023
:10E1B00003F00EF906A91D2003F00AF90DF10E0176
:10E1C000212003F005F903A9222003F001F90DF144
:10E1D0000A01252003F0FCF802A9302003F0F8F82A
:10E1E0000DF10601302003F0F3F801A92E2003F011
:10E1F000EFF80DF102012F2003F0EAF8694635200F
:10E2000003F0E6F8002C61D19DF82F30042B5AD092
:10E210009DF82E30042B56D09DF82D30042B52D073
:10E220009DF82C30042B4ED09DF82B30042B4AD077
:10E230009DF82A30042B46D01F200FF07BFA9DF862
:10E240002930052B44D09DF82730052B40D09DF870
:10E250002530052B3CD09DF82330052B38D09DF878
:10E260002130052B34D021200FF064FA9DF828309E
:10E27000052B31D09DF82630052B2DD09DF824306C
:10E28000052B29D09DF82230052B25D09DF8203074
:10E29000052B21D020200FF04DFABDF81E3073B1B0
:10E2A000BDF81C305BB1BDF81A3043B1BDF8183071
:10E2B0002BB1BDF80E3013B1BDF80C3083B922205C
:10E2C0000FF022FA02E01F200FF01EFA0CB010BD72
:10E2D00021200FF019FAF9E720200FF015FAF5E7E1
:10E2E00022200FF027FAF1E708B514F0AFFD14F083
:10E2F000B1FE012814D00022144B1A70134B1B7866
:10E3000093B123200FF016FA0023102B13D8104AD4
:10E31000D25C6AB900210F4A11700133DBB2F4E715
:10E3200001220A4B1A70E9E723200FF0EDF9EBE721
:10E330000122084B1A70074B1B781BB924200FF0E1
:10E34000E3F908BD24200FF0F5F908BD25000020F1
:10E35000A0180020260000200122014B1A707047EF
:10E3600024000020042804D0202802D0012800D056
:10E37000704729B9054A138823EA00001080F7E79F
:10E38000024B1A8810431880704700BF00C4FF1F5B
:10E3900008B501210846FFF7E5FF0FF089FD044BA2
:10E3A00018600023034A1380034A138008BD00BF8E
:10E3B000200000201C0000201E00002010B50EF0E0
:10E3C00035FD044640B9C8210E4B18680FF07CFD9E
:10E3D000012805D0052403E00FF06AFD094B186001
:10E3E000631FDBB2012B08D9082C06D0042C04D003
:10E3F00001210820FFF7B6FF10BD00210820FFF71C
:10E40000B1FF10BD2000002008B5FFF7D7FFFFF7D0
:10E410002FFDFFF7FDFDFFF737FEFFF765FF00213A
:10E420000120FFF79FFF194B1B8853B914200FF0F1
:10E4300081F900F0FBF8012807D0154B187840B996
:10E4400008BD14200FF060F9F3E70122104B1A7099
:10E45000F3E70138C0B20FF0FDF8012804D0012124
:10E460001020FFF77FFFEBE700211020FFF77AFF76
:10E4700007490B780133DBB2064AA2FB03025208BC
:10E4800002EB42029B1A0B7008BD00BF00C4FF1FC5
:10E4900024000020ABAAAAAA02280BD808B504D0F1
:10E4A00000212020FFF75EFF08BD01212020FFF79B
:10E4B00059FF08BD70470000014B1888704700BF26
:10E4C00000C4FF1F014B1878704700BF24000020D4
:10E4D0000023084A1370084A1370084A1370084A48
:10E4E0001370084A13600121074A1170074A13602C
:10E4F000704700BF340000203500002027000020B6
:10E50000280000203000002003C4FF1F2C00002042
:10E5100000B583B002A9072321F8023D112002F0C3
:10E5200057FF112003F094FA01280CD04FF47A71B0
:10E53000334B18680FF0C8FC01283CD0314B1A78D7
:10E54000314B1A7013E0BDF80630012B08D0002BB8
:10E550002DD0032B2BD82B4B1A782B4B1A7002E0A3
:10E560000122294B1A700FF0A3FC254B1860254B94
:10E570001B78012B23D00021244A11701BB9224B98
:10E580001B78012B23D00022214B1A701E4B1B78C5
:10E59000012B24D001221F4B1A7000221E4B1A603F
:10E5A000194B1A78174B1A7003B05DF804FB002260
:10E5B000154B1A70D7E70022134B1A70D7E7124A8F
:10E5C0001278002AD7D10121104A1170D6E70FF036
:10E5D0006FFC114B186001220D4B1A70D6E70D4BE2
:10E5E0001B78002BDCD04FF47A710B4B18680FF0BE
:10E5F0006BFC0128D4D10022064B1A70D0E700BF73
:10E6000030000020280000202700002034000020D7
:10E610003500002003C4FF1F2C000020002070479D
:10E62000014B1878704700BF27000020014B187875
:10E63000704700BF34000020014B1878704700BFBE
:10E6400035000020014B1878704700BF03C4FF1F3E
:10E6500070B584B005238DF80F308DF80E30072388
:10E66000ADF80C300323ADF80A30ADF808300224C1
:10E670008DF8074000F004FC0546012005F0C2FBC0
:10E680000646204605F0BEFB04460DF10F010420AE
:10E6900002F0BEFE0DF10E01112002F0B9FE03A939
:10E6A000042002F095FE0DF10A01112002F090FE07
:10E6B00002A9102002F08CFE0DF10701012010F0DC
:10E6C0005BFB264B00221A705A709DF80730022B14
:10E6D0000ED0112003F0BCF901280BD0102003F05C
:10E6E000B7F9012819D0042003F0B2F901282BD082
:10E6F00004B070BDBDF80A30012BEFD1022DF2D06D
:10E70000042003F0A5F901280CD0012E18D0012C0B
:10E71000E9D10122114B5A70E5E7BDF80830012B11
:10E72000E1D1EBE7BDF80C30022B05D0012BECD189
:10E7300001220A4B5A70E8E70122084B1A70E4E7FD
:10E740000122064B1A70E2E7BDF80C30032BCFD143
:10E75000024B01221A705A70CAE700BF380000202D
:10E7600030B585B005238DF80F308DF80E300320BD
:10E77000ADF80C00ADF80A00ADF8080004248DF8DF
:10E78000074005F03FFB0546204605F03BFB0446ED
:10E790000DF10F01062002F03BFE0DF10E011120DC
:10E7A00002F036FE03A9062002F012FE0DF10A0166
:10E7B000112002F00DFE02A9102002F009FE0DF159
:10E7C0000701012010F0D8FA2C4B00229A70DA7061
:10E7D0009DF807300BB105B030BD112003F038F9BA
:10E7E00001281ED0102003F033F901282FD011206A
:10E7F00003F02EF90128EED1BDF80A30002BEAD142
:10E80000102003F025F90128E5D1BDF80830002BD0
:10E81000E1D1012D2DD0012CDDD10122174BDA7071
:10E82000D9E7BDF80A30012BDCD1062003F010F93E
:10E83000012811D0012D13D0062003F009F9012879
:10E8400012D0012CD3D101220C4BDA70CFE7BDF8E6
:10E850000830012BCBD1E8E7BDF80C30012BE9D112
:10E860000122064B9A70E7E7BDF80C30012BE8D186
:10E87000E9E70122014B9A70CDE700BF3800002084
:10E8800030B585B005238DF80F308DF80E3000249B
:10E89000ADF80C40ADF80A400325ADF80850ADF8CE
:10E8A000065004238DF805300DF10F01284602F0C3
:10E8B000AFFD0DF10E01112002F0AAFD03A92846BB
:10E8C00002F086FD0DF10A01022002F081FD02A98D
:10E8D000112002F07DFD0DF10601102002F078FDFF
:10E8E0000DF10501012010F047FA1F4B1C715C71FE
:10E8F0009DF805300BB105B030BD112003F0A8F82C
:10E9000001280ED0112003F0A3F801281AD01020FE
:10E9100003F09EF80128EED1BDF80630012BEAD1B4
:10E9200014E0BDF80830012BECD1284603F090F834
:10E930000128E7D1BDF80C30012BE3D101220A4BAD
:10E940001A71DFE7BDF80830012BE0D1022003F097
:10E950007FF80128CFD1BDF80A30012BCBD101229D
:10E96000014B5A71C7E700BF3800002070B584B072
:10E97000002005F047FA0546002004F01DFE06467B
:10E9800005248DF80F408DF80E408DF80D400323BF
:10E99000ADF80A30ADF80830ADF80630ADF8043007
:10E9A00004238DF803300DF10F01204602F030FDF5
:10E9B0000DF10E01092002F02BFD0DF10D011120CA
:10E9C00002F026FD0DF10A01204602F001FD02A928
:10E9D000092002F0FDFC0DF10601112002F0F8FC07
:10E9E00001A9102002F0F4FC0DF10301012010F048
:10E9F000C3F900222C4B9A719DF8033093B9A6F10C
:10EA0000DC039BB21E2B05D93F2E03D00122264BDF
:10EA10009A7107E09DF80D30013BDBB2012B03D961
:10EA2000012D3DD004B070BDBDF80630012B0CD0D7
:10EA3000BDF80430012B08D0FFF744FD38B3012D99
:10EA4000F0D10122184B9A71ECE79DF80F30013B91
:10EA5000DBB2012B0BD99DF80E30013BDBB2012B51
:10EA60000DD9012DDED101220F4B9A71DAE7BDF8E5
:10EA70000A30012BEFD101220B4B9A71EBE7BDF865
:10EA80000830012BEDD10122074B9A71E9E7FFF71E
:10EA9000CDFD0128D3D00EF0ADF90028CFD0C1E7CD
:10EAA0000122014B9A71BDE73800002008B52E4BBA
:10EAB0001B78012B34D00021062000F0ADFF2A4B3B
:10EAC0005B78012B31D00021052000F0A5FF264BFB
:10EAD0009B78012B2ED00021042000F09DFF224BBB
:10EAE000DB78012B2BD00021032000F095FF1E4B7B
:10EAF0001B79012B28D00021012000F08DFF1A4B3B
:10EB00005B79012B25D00021022000F085FF164BF8
:10EB10009B79012B22D03F21002000F07DFF08BD12
:10EB20006421062000F078FFC9E76421052000F089
:10EB300073FFCCE76421042000F06EFFCFE764216F
:10EB4000032000F069FFD2E76421012000F064FF98
:10EB5000D5E76421022000F05FFFD8E7FA2100200A
:10EB600000F05AFF08BD00BF3800002008B5FFF7CD
:10EB70006FFDFFF7F5FDFFF783FEFFF7F7FEFFF7E9
:10EB800095FF08BD30B583B005238DF80730072306
:10EB9000ADF80430022005F035F90446012005F0F7
:10EBA00031F905460DF10701042002F031FC01A9FD
:10EBB000042002F00DFC03235B4A13705B4A1370C0
:10EBC0009DF80730013BDBB2012B01D903B030BD0A
:10EBD000BDF80430022B1AD0012B3FD0032B64D098
:10EBE000002BF3D114B9002D00F0888014B9012D49
:10EBF00000F08980012C00F08D80012CE6D1012DE0
:10EC0000E4D10123484A1370484A1370DEE70CB977
:10EC1000012D0ED0012C12D004B9C5B1012CD5D1D3
:10EC2000012DD3D10022404B1A7001223F4B1A70A4
:10EC3000CCE700233C4A13703C4A1370C6E7002D12
:10EC4000EAD10123384A1370384A1370BEE7012213
:10EC5000354B1A700022354B1A70B7E7012C0FD0D4
:10EC60000CB9012D14D004B9C5B1012CAED1012DC0
:10EC7000ACD101222C4B1A7000222C4B1A70A5E744
:10EC8000002DEDD10023284A1370284A13709DE708
:10EC90000123254A1370254A137097E70022224B5F
:10ECA0001A700122214B1A7090E7012C0ED0012C12
:10ECB00014D00CB9012D1AD0002C87D1002D85D18C
:10ECC0000123194A1370194A13707FE7012DEED101
:10ECD0000023154A1370154A137077E7002DE8D109
:10ECE0000122114B1A700022104B1A706EE700229D
:10ECF0000D4B1A7001220D4B1A7067E70A4A137008
:10ED00000A4A137062E70122074B1A700022074B70
:10ED10001A705BE7002D7FF470AF0022024B1A706F
:10ED20000122024B1A7051E706C4FF1F05C4FF1FE2
:10ED300070B582B005248DF807408DF80640032594
:10ED4000ADF80450ADF80250002005F05BF806461F
:10ED50000DF10701092002F05BFB0DF106012046D1
:10ED600002F056FB01A9092002F032FB0DF102016D
:10ED7000204602F02DFB204B1D70092002F068FE9A
:10ED800001280BD0052002F063FE012812D00920D3
:10ED900002F05EFE012816D002B070BDBDF804304E
:10EDA000012BEFD1012E0AD0002EF5D10122124BFA
:10EDB0001A70F1E7BDF80230012BE8D1F2E700222A
:10EDC0000D4B1A70E8E7BDF80430002BE4D10520A4
:10EDD00002F03EFE0128DFD1BDF80230002BDBD16E
:10EDE0002EB1012ED8D10222034B1A70D4E7002293
:10EDF000014B1A70D0E700BF04C4FF1F08B5124BC7
:10EE00001B782BB1022B06D817200EF07DFC02E0F8
:10EE100017200EF08FFC0D4B1B782BB1022B06D860
:10EE200018200EF071FC02E018200EF083FC084B55
:10EE30001B782BB1022B02D819200EF065FC08BDFF
:10EE400019200EF077FC08BD04C4FF1F06C4FF1F85
:10EE500005C4FF1F0323034A1370034A1370034AB8
:10EE60001370704704C4FF1F06C4FF1F05C4FF1FB3
:10EE700008B5FFF75DFFFFF785FEFFF7BFFF08BD91
:10EE80000B4B1878022812D00A4B1B78022B09D0A2
:10EE900001280CD0012B07D008B1032070472BB1FB
:10EEA0000320704718467047184670471846704749
:10EEB00005C4FF1F06C4FF1F68B101EB01110D4B14
:10EEC0005B5CD90803F0070301229A400A48435CBF
:10EED00013434354704701EB0111064B5B5CD908A7
:10EEE00003F0070301229A400348435C23EA02032C
:10EEF000435470470C3A03007C000020034B5A78BF
:10EF0000034BDA7201221A72704700BF7C000020A6
:10EF10004400002008B5044B5A78044BDA720322EF
:10EF20001A72FFF7EBFF08BD7C000020580000209C
:10EF300008B5002004F066FF01460A2002F078FAC6
:10EF400008BD10B5032004F05DFF0446042004F062
:10EF500059FF012C06D0012804D00021092002F01D
:10EF600067FA10BD0121092002F062FA10BD10B548
:10EF7000012004F047FF0446022004F043FF012C67
:10EF800006D0012804D00021082002F051FA10BD5B
:10EF90000121082002F04CFA10BD000008B5002045
:10EFA00004F00AFB0E4B1B78012B04D00021062035
:10EFB00002F03EFA08BD3F2808D0DC3880B21E2897
:10EFC00009D80121062002F033FA08BD00210620ED
:10EFD00002F02EFA08BD0321062002F029FA08BD2E
:10EFE0004100002030B583B002AC012304F8013D9C
:10EFF000022004F0E1FA05462146022004F0BEF8A2
:10F00000144B1B78012B05D00021042002F010FACC
:10F0100003B030BD9DF80730022B0CD0062B11D069
:10F02000DA1ED2B2012A01D9082BF1D10221042023
:10F0300002F0FEF9ECE7002DF0D10021042002F0EF
:10F04000F7F9E5E7002DEBD00121042002F0F0F9FB
:10F05000DEE700BF4100002070B582B0012402ADA0
:10F0600005F8014D204604F0A7FA06462946204639
:10F0700004F084F8144B1B78A34205D000210C2027
:10F0800002F0D6F902B070BD9DF80730022B0CD00B
:10F09000062B11D0DA1ED2B2012A01D9082BF1D1E8
:10F0A00000210C2002F0C4F9ECE7002EF0D1002181
:10F0B0000C2002F0BDF9E5E7002EEBD001210C2079
:10F0C00002F0B6F9DEE700BF4100002030B583B0A2
:10F0D00001238DF807308DF80630042004F06CFA17
:10F0E0000446032004F068FA05460DF107010420E8
:10F0F00004F044F80DF10601032004F03FF8284B1A
:10F100001B78012B05D00021032002F091F903B0F8
:10F1100030BD9DF80730DA1ED2B2012A1CD9082B67
:10F120001AD09DF80610CA1ED2B2012A19D9082990
:10F1300017D0062B1AD0062B23D0062928D0022B55
:10F14000E5D1002CE3D10229E1D1002DDFD100214E
:10F15000032002F06DF9DAE70221032002F068F9DA
:10F16000D5E70221032002F063F9D0E7002CE2D0BA
:10F170000629E0D1002DDED00121032002F058F94C
:10F18000C5E7002CD9D00121032002F051F9BEE7D8
:10F19000002DD4D00121032002F04AF9B7E700BFC7
:10F1A0004100002008B514200EF0F0F920B900212C
:10F1B000072002F03DF908BD0121072002F038F9CF
:10F1C00008BD000030B583B001238DF807308DF8FD
:10F1D000063004238DF80530052004F0EDF90446CF
:10F1E000062004F0E9F905460DF10701062003F0B9
:10F1F000C5FF0DF10601052003F0C0FF0DF105016B
:10F2000002200FF0B9FD3E4B1B78012B09D00021E5
:10F210003C4B19703C4B1970052002F009F903B002
:10F2200030BD9DF80530042B1DD0364B1B78012BCB
:10F230002FD09DF80630042B03D0082B01D0032BD0
:10F2400002D101222F4B1A702F4B1B78012B28D093
:10F250009DF80730042B03D0082B01D0032B02D1DB
:10F260000122294B1A70274B1B78012B21D01BB987
:10F27000254A1278012A25D0012B28D004B17DBB64
:10F2800004B995BB04B1ADB30021052002F0D0F85C
:10F29000C5E79DF80630062BCBD10022194B1A701A
:10F2A000D2E79DF80730062BD2D10022164B1A70F8
:10F2B000D9E7154A1278012AD9D10621052002F092
:10F2C000B7F8ACE70521084602F0B2F8A7E70E4B05
:10F2D0001B78002BD2D10421052002F0A9F89EE76B
:10F2E0000321052002F0A4F899E70221052002F08D
:10F2F0009FF894E70121052002F09AF88FE700BFFC
:10F30000410000203F0000204000002000B583B0F5
:10F310000DF1070102200FF02FFD012802D003B0EC
:10F320005DF804FB9DF80730022B06D0042B09D0B2
:10F330000021022002F07CF8F1E70121022002F016
:10F3400077F8ECE70221084602F072F8E7E70000E0
:10F3500038B505460024204601E00134E4B20E2C05
:10F360000DD805EB0512064B134423449B78242B40
:10F37000F3D80028F1D118460EF013F9EDE738BDA7
:10F380000C3A0300837C013BDBB2072B30D81A4BCD
:10F390001B7A012B01D00020704770B50446C37A58
:10F3A00003F0F003144DAA7902F00F02134306464E
:10F3B00006F80B3FFF200DF0B3FDA17C0139AA88B0
:10F3C000C9B230460DF090FD214601F80A0FA27C2B
:10F3D000E87901F05DFB012801D0002070BDAB7918
:10F3E0000133DBB2AB710E2B04D90022AA7170BDC0
:10F3F00000207047012070BD6C000020F0B583B084
:10F4000005238DF807300023ADF80430ADF8023045
:10F410000DF10701202001F0FBFF01A9202001F0E0
:10F42000D7FF0DF10201212001F0D2FF00F004FB13
:10F43000474B1870012826D0002845D100211520FF
:10F4400001F0F6FF0021142001F0F2FFFFF770FD3C
:10F45000FFF7A4FDFFF7C6FDFFF7FEFDFFF7A2FED5
:10F46000FFF76FFDFFF732FEFFF781FDFFF7AAFE02
:10F47000FFF74CFF374B1B7A7BB3374B1C7A002CC2
:10F4800060D100273BE00121152001F0D1FF9DF85C
:10F490000730013BDBB2012B04D90321142001F01A
:10F4A000C7FFD3E7BDF80430352B03D9BDF80230D0
:10F4B000012B04D00021142001F0BAFFC6E701217E
:10F4C000142001F0B5FFC1E70321152001F0B0FFC2
:10F4D0000321142001F0ACFFB8E7FFF70FFDCCE7E4
:10F4E0002046FFF735FF054603E02046FFF730FFD3
:10F4F00005461A4B9B5DD3B98DB90134E4B2032C98
:10F500001FD8264604EB0412154B13445B78002BDE
:10F51000EBD000F091FA0128E2D00025E9E70120C4
:10F520000E4B98552146FFF7C7FC2F46E5E7002D07
:10F53000E3D10020094B98552146FFF7BDFC012778
:10F54000DBE70FB903B0F0BDFFF7E4FCFAE700BF5B
:10F5500041000020440000205800002078000020D6
:10F560000C3A030008B52E4B59682E4B18680EF064
:10F57000ABFC012800D008BD294B1B7A03BB2A4BEA
:10F580001B7A002BF7D0284B596818680EF09CFCAA
:10F590000128F0D12448FFF7F5FE012831D0224A96
:10F5A000537A013BDBB253721BB11E4B1B7A002B0B
:10F5B000E1D11D4B1A7A013A1A720A225A72DAE71D
:10F5C0001748FFF7DFFE012810D0154A537A013B98
:10F5D000DBB253721BB1134B1B7A002BCBD1104BF8
:10F5E0001A7A013A1A720A225A7208BD0EF060FCA9
:10F5F0000C4B18600A4B1A7A013A1A720A225A7294
:10F6000008BD0EF055FC074B18600EF051FC064B80
:10F6100018601A7A013A1A720A225A7208BD00BF9B
:10F62000580000206C000020440000200022014B04
:10F630001A7270476C0000200122014B1A72704749
:10F640006C00002038B500241A4B1C701A4B1C703B
:10F650001A4B1C700EF02CFC194B18609C809C718E
:10F660000222DA710EF024FC164B18601C720A2577
:10F670005D720EF01DFC144B18601C725D72234607
:10F6800006E000221149CA541149CA540133DBB2C1
:10F69000032BF6D90B4B19225A6008229A740A4B95
:10F6A000642159609A740022054B9A80FFF7C4FFC9
:10F6B00038BD00BF410000203F0000204000002076
:10F6C0006C0000205800002044000020780000203A
:10F6D0007C00002010B54FF4C871364B186800F05C
:10F6E000FEF910B10022344B1A70334B1B782BB14A
:10F6F000012B18D00022304B1A7010BD00F0EBF92E
:10F700002C4B1860002306E02C4A02EB0312002168
:10F7100091700133DBB2062BF6D90023284A13700F
:10F72000284A136010BD264B1B781BB9012000B37B
:10F7300000240EE003EB43039A00234B1344596863
:10F74000204B186800F0CBF9F1E701331C4A137025
:10F750007CB91B4B1B7803EB430291001A4A0A4405
:10F76000927A012A03D0062BEFD90446F0E704462B
:10F77000EEE7134B1B78062BBFD80028BDD01A012B
:10F780000E49885C03EB430291000F4A0A44127A47
:10F79000904204D00A4A13780133137010BD074A0F
:10F7A00002EB031301229A7000F095F9054B1860E3
:10F7B000F0E700BFFC00002084000020880000204B
:10F7C00000010020F8000020503A0300F8B50320A3
:10F7D0001D4B187000F07EF900231C4A13701C4A60
:10F7E00013701C4A13601C4A13701C4A13609E4617
:10F7F00001E00133DBB2062B1BD8194C5900CA18A3
:10F8000090002044057A174F1E01BA19BD55557056
:10F8100000259570D57015719560012515734268A6
:10F820009644827AAA42E4D10B490A782A440A70A3
:10F83000DFE7BEF5C87F03D900220B4B1A70F8BD75
:10F840000122094B1A70F8BD07C4FF1F8400002075
:10F8500000010020FC00002001010020F800002031
:10F86000503A03008800002085000020F8B5644B62
:10F870001B78012B07D00322624B1A700022624BC7
:10F880001A700024A9E000F033F90128F9D100240E
:10F8900027462546264603E00135EDB20134E4B2A1
:10F8A000062C1CD8204600F0EFF8584B03EB04134D
:10F8B000D8700228F0D004EB44039A00544B134450
:10F8C0009B7A012B06D0012BE8D10328E6D1013722
:10F8D000FFB2E3E70128F6D10136F6B2DEE745B123
:10F8E0000122484B1A700022474B1A70FFF7F2FEB4
:10F8F000C7E7484B1B783E44B34207D0414B1B78C7
:10F90000032B19D903223F4B1A7015E000233D4AFF
:10F9100013703D4A1370E9E701EB05135B789A42D7
:10F9200018D000F0D8F8394B03EB0513986000228B
:10F930001A731DE00135EDB2062DD7D82C4605EB24
:10F9400045039A00324B13441A7A2B012F49CB5CA2
:10F950009A42E1D02D4B03EB04134FF4FA719868EF
:10F9600000F0BDF820B1294B03EB041301221A73F8
:10F97000254B1B78002BDDD1244B03EB04131B7BA1
:10F98000002BD7D004EB44039A00214B13441A7A7E
:10F9900023011E49CB5C9A42CCD001EB0413DB78E7
:10F9A000012BC7D101EB04142379012BC2D0012212
:10F9B000154B1A70BEE704EB44039A00144B134432
:10F9C000597A204600F050F810492B01CA18CB5C38
:10F9D0005370D37813710134E4B2062C0AD825464B
:10F9E0000A4B03EB04139B78012BE4D02301074A55
:10F9F000D15CE6E7034B187800F06CF8F8BD00BF67
:10FA00008500002007C4FF1F84000020880000201C
:10FA1000503A030001010020054B1B78012B00D058
:10FA200070470628FCD80001024B1954F8E700BFC4
:10FA30008500002088000020014B1878704700BF27
:10FA400007C4FF1F064B1B78012B00D0704710B571
:10FA5000044C00232370FFF73DFE0123237010BDEB
:10FA60008500002084000020062800D9704708B5D2
:10FA700000EB40008200034B1344587803F0ACF8CD
:10FA800008BD00BF503A030010B582B000238DF8C6
:10FA90000730062802D9002002B010BD00EB40005C
:10FAA00083000B4AD45C0DF10701204603F066FB8E
:10FAB000204603F075FB08B10220EDE79DF8073002
:10FAC000042B03D0082BE7D10320E5E70120E3E76F
:10FAD000503A0300704708B50EF0EAF908BD08B5C2
:10FAE0000EF0F2F9012801D0002008BD012008BD68
:10FAF00000B583B002A9042301F8013D02200FF0F4
:10FB00003BF99DF807301BB9012003B05DF804FBF9
:10FB10000020FAE710B5044600F0B5FA174B03EBE6
:10FB200004135B7B012B09D0022B17D0134B03EB83
:10FB300004140123637300F0A7FA10BD204600F0FF
:10FB400013FB28B10D4B03EB041402236373F2E79C
:10FB5000204600F017FB0128EDD1F3E7204600F026
:10FB600003FB0028E7D1204600F00CFB0028E2D17F
:10FB7000024B03EB041401236373DCE7080100204C
:10FB800038B5044600F07FFA4B4B03EB04135B7A65
:10FB9000022B40D0032B7BD0012B07D0464B03EB2D
:10FBA00004140123637200F06FFA38BD424B03EB7B
:10FBB00004135B78012BF6D8204600F009FB0128DE
:10FBC0001DD0204600F0ECFA0028ECD03A4B03EBB5
:10FBD00004139B7A002BE6D1374B03EB041302226C
:10FBE0005A72DB7A012BDED1204600F004FB01289B
:10FBF0000BD0314B03EB04140123E372D3E72E4BFC
:10FC000003EB041402236372CDE72B4B03EB0414C4
:10FC10000023E372C7E7204600F0C2FAE0B1264BAA
:10FC200003EB04139B7A012B16D0234B03EB041335
:10FC30005B78032B1BD0204B03EB0413DB7A012BE7
:10FC4000B1D1204600F0D7FA01281BD01A4B03EBA4
:10FC500004140123E372A6E7204600F0B9FA002855
:10FC6000E3D1154B03EB0414012363729BE7124DA0
:10FC700005EB04150123EB72204600F0B4FA0323D0
:10FC80006B7290E70C4B03EB04140023E3728AE7DA
:10FC9000204600F0AEFA012807D0074B03EB04130F
:10FCA0005B7813B1012B7FF47EAF034B03EB04149D
:10FCB0000123637277E700BF0801002038B50446CE
:10FCC0000301664AD35C013B032B00F2C180DFE8ED
:10FCD00003F002273A99614B03EB00135B7B022B85
:10FCE00019D05E4B03EB00135B7A022B13D05B4BF6
:10FCF00003EB00135B78023BDBB2012B00F2AC801C
:10FD000000F0C7F9554B24011D1903221A5500F0C4
:10FD1000D6F9686038BD24010222504B1A5538BD0F
:10FD20004E4B03EB00135B7B012B40F095804B4B5C
:10FD300003EB00135B7A012B40F08E80040101225B
:10FD4000464B1A5538BD454B03EB00135B78012B2E
:10FD500027D900F09CF901282AD0204600F095F917
:10FD600001283DD03D4B03EB04131E21586800F0E1
:10FD7000AAF9012870D1204600F092F9204600F03F
:10FD800022FA364B03EB04139B7A002B34D1334B0E
:10FD900003EB041300225A70240101222F4B1A5541
:10FDA00038BD00F07DF9240101222C4B1A5538BDD5
:10FDB000204600F008FA294B03EB04139B7A4BB959
:10FDC000264B03EB041300225A7024010122234B1B
:10FDD0001A5538BD214B03EB041301225A70F4E786
:10FDE00000F051F9204600F062F900F04DF92401CD
:10FDF00004221A4B1A5538BD184B03EB0413012289
:10FE00005A70C9E7154B03EB00135B78012B12D92D
:10FE100000F03DF901281FD1104B03EB04139B7A2E
:10FE200083B90E4B03EB041300225A702401012204
:10FE30000A4B1A5538BD00F033F924010122074B53
:10FE40001A5538BD054B03EB041301225A70EDE738
:10FE500004010122014B1A5538BD00BF08010020E2
:10FE600038B5054600F0DBF90A4C04EB05142073A5
:10FE7000284600F08BF9A073237B2372834200D2C3
:10FE80002072044B03EB0513197A284600F020F981
:10FE900038BD00BF0801002010B5002434B100F0C7
:10FEA000C0F9B8B901220E4B1A7010BD204600F0FF
:10FEB000DFF80C48220183180121815400225A7076
:10FEC0001A7259729A72D9721A7359739A730C44CE
:10FED000E4B2E3E70DF0ECFF034B186010BD00BF88
:10FEE00018010020080100200401002010B50024A2
:10FEF0001CB100220A4B1A7010BD204600F0BFF85A
:10FF0000084821014218002343545370137253725E
:10FF10009372D372537313730134E4B2E8E700BFF2
:10FF2000180100200801002010B51A4B1B78012B86
:10FF300014D0194B186898B910BD2046FFF7EAFD98
:10FF40002046FFF71DFE2046FFF7B8FE2046FFF7CC
:10FF500087FF0134E4B2002CEFD010BD0024FAE793
:10FF60004FF47A710DF0B0FF0128E5D100240A4B5F
:10FF70001C60FFF791FF002CDED10021204600F02D
:10FF8000E3FE064B03EB041301229A721444E4B21D
:10FF9000F1E700BF18010020040100200801002043
:10FFA00028B90301034AD35C0B700120704700207D
:10FFB000704700BF08010020D8B908B503460D4AB4
:10FFC00002EB0012517001290AD00A4A02EB00121A
:10FFD000002090721846022908D000F0F4F808BDFD
:10FFE000044A02EB001201209072F3E700F0E6F8F9
:10FFF00008BD704708010020034620B9024800EB05
:020000040002F8
:10000000031001238372704708010020034620B9C2
:10001000024800EB031000238372704708010020A0
:1000200010B5044600F0BCF820B10E4B03EB0413EE
:100030009B7A2BB10B4800EB04100123C37210BD57
:10004000204600F0D8F8012805D0064800EB04103F
:100050000123C37210BD034800EB04100023C372D8
:1000600010BD00BF0801002008B500F093F808BDDE
:1000700008B50BF069FE1A200BF0D8F908BD08B5D9
:100080000BF0C4FE08BD7047704701207047002088
:10009000704708B51A200BF09FF90BF0B7FE08BDAA
:1000A00008B50BF051FE1A200BF0C0F908BD10B5D1
:1000B000044600F067FD204600F0A0FD10BD08B525
:1000C0000DF0F6FE08BD08B50DF0FEFE08BD0000FF
:1000D00038B50546042909D00C46032914D01F4B16
:1000E0001B78012B23D0002C33D038BD002100F029
:1000F0002BFEFFF7FBFE0DF0DBFE194B1860002115
:100100001B200DF02DFB38BD144B1B78002BE6D1C6
:100110000122124B1A70002100F016FE0DF0C8FEED
:10012000104B186000211B200DF01AFB38BD4FF456
:100130007A710C4B18680DF0C7FE0128D3D100224C
:10014000064B1A70FFF7A8FE0121284600F0FCFDBF
:1001500038BD01211B200DF003FBC6E72001002064
:10016000040100201C01002000B583B0694600F0A6
:100170009DFA9DF806301BB1012003B05DF804FB29
:100180000020FAE708B50BF0AFFE08BD08B50BF08C
:1001900051FE08BD00B1704708B500F009FC08BD6C
:1001A00000B583B0694600F0A9FB9DF806301BB18D
:1001B000012003B05DF804FB0020FAE708B5002138
:1001C00000F0C2FD08BD08B5012100F0BDFD08BD6D
:1001D00008B50BF077FE012804D00BF06DFE012866
:1001E00000D0002008BD08B500F008FD0BF08EFE21
:1001F00008BD0120704710B504460BF015FE01281C
:1002000001D0002010BD0BF05DFE0028F9D10BF0ED
:1002100053FE0028F5D1204600F076FCF1E70020DF
:10022000704708B500200BF087FE012800D00020A1
:1002300008BDF0B5059D9DF81860079CA779022FB1
:1002400047D0677807EB87074FEA870E45F80E001F
:10025000607800EB800087002F443A73627802EBED
:100260008202900028440361002309E0607800EBDB
:10027000800082002A44C85C1A4410710133DBB24A
:10028000072BF3D963780133DBB26370B34201D338
:1002900000236370627823789A420AD09A420DD282
:1002A0000121A1719B1ADBB2A278934214D2A370F0
:1002B000F0BD0223A3710023A370F0BD0121A17141
:1002C000B61A53FA86F3DBB2A278934204D2A37033
:1002D000F0BDA3880133A380F0BD70B4947984B3DA
:1002E000147804EB8404A50044591C60147804EBD2
:1002F0008404A50005442C7B1C73147804EB84044F
:10030000A50005442C691C6100240AE0167806EB60
:100310008606B500054425442E791D192E71013439
:10032000E4B2072CF2D913780133DBB213708B429D
:1003300001D30023137051781378994203D001231D
:10034000937170BC704700239371FAE720B92DE9CF
:10035000F8430546002416E0704704EB84039A0036
:10036000642303FB05224B4B134405EB8502111953
:10037000494A02EB01129168D86800F0F3FC0128A9
:1003800041D00134E4B2042C00F28280264605EB11
:1003900085031A19404B03EB02131B79002BDCD0A9
:1003A000012B41D0022BECD1A30023449A006427F7
:1003B00007FB0523374F1F4405EB8508A044364B48
:1003C00003EB0818D8F80C10F86800F0CBFC814655
:1003D000D8F80810F86800F0C5FCB9F1010F53D047
:1003E0000128CED106EB8606B200642303FB05226A
:1003F000284B134403221A74284B03EBC5039A8835
:1004000001329A80BDE704EB8406B200642303FB4B
:100410000522204B134403221A74204B03EBC5031F
:100420009A8801329A80ACE704EB84039A00642333
:1004300003FB0522174B134405EB85021119164ADD
:1004400002EB0112D168D86800F08CFC012898D129
:1004500004EB84039A00642303FB05220D4B134431
:100460001B7C022B8DD104EB8406B200642303FBBA
:100470000522084B134403221A74084B03EBC503EF
:100480009A8801329A807CE73B7C022BA8D1A9E7AD
:10049000BDE8F88334030020703B0300FC03002018
:1004A00028B9F0B583B007460E4600252DE0704709
:1004B00005EB8502930007EB870082011344344A61
:1004C000134403221A7449E0B31893F804C001EBF3
:1004D000810083000EEB8E04A00103442C4C2344C6
:1004E00003F802C00132D2B2337B9A42ECD301EB63
:1004F00041018A0007EB470081010A4425490A446B
:100500001279012A39D00135EDB20F2D3DD832686C
:10051000BE46294605EB4500830007EB4704A001D2
:1005200003441C48C3589A42EDD105EB8502930061
:1005300007EB870082011344154A13441B7C012BEF
:10054000B6D0032B0AD005EB8502930007EB87009A
:10055000820113440E4A134401221A74326988003E
:1005600008448300BC003C44A0011844084B0344E9
:10057000DA60327B1A720022B6E708220092321D3E
:100580003168384600F0FAFBBDE703B0F0BD00BFAC
:1005900024010020A43A03000022014B1A70704786
:1005A00004040020F0B589B03A4B1B78012B6ED0C3
:1005B00000F028FC09B0F0BD03A93846FFF770FF32
:1005C0000134E4B2092C60D8334B03EBC5039B79AB
:1005D000002B5AD003AB304A02EBC5020A21C826D1
:1005E0002E4806FB0500FFF778FE039905EB450250
:1005F00093002B4AD3589942DED305EB45039A006A
:10060000274B13445B689942D6D89DF81830079A57
:10061000009204AA384600F0E5FBD1E73C46D1E75A
:100620000134E4B20F2C25D804EB4402930005EB0F
:1006300045018A0113441B4A134499680029EFD0ED
:1006400004EB8402930005EB850082011344164AF3
:100650001344D86800F086FB0128E1D104EB84063E
:10066000B30005EB85018A0113440F4A13440422A9
:100670001A74D5E70137FFB2002F9BD13D46064BD8
:1006800003EBC7039B79002BC8D13C46CAE7002780
:10069000F2E700BF040400202C03002064020020C5
:1006A000643B0300A43A0300240100200A4638B941
:1006B000044B03EBC00303CB106051600120704773
:1006C000002070472C0300202DE9F04784B0854BB3
:1006D0001B78012B00F0038100F094FB04B0BDE80F
:1006E000F08704EB84039A00642303FB06227E4B0D
:1006F000134406EB860211197C4A02EB0112916841
:10070000D86800F02FFB01285DD00134E4B2042C3E
:1007100000F2D380274606EB86031A19734B03EBCE
:1007200002131B79002BDCD0012B74D0022BECD1EF
:10073000A30023449A004FF0640808FB06236A4A8A
:1007400002EB030806EB8609A144684B03EB091989
:10075000D9F80C10D8F80C0000F004FB8246D9F848
:100760000810D8F80C0000F0FDFABAF1010F00F003
:100770009B800128C9D1BB003B444FEA83084FF05E
:10078000640909FB06F9C844574B9844012388F8CB
:10079000103000F0E3FAC8F80C005549494498F8C5
:1007A000082006EB86031F443F01504BD859514B9C
:1007B00003EBC603029305230193009100234146F6
:1007C000FFF737FDA1E7A30023444FEA83084FF06A
:1007D000640909FB06F9C844434B9844012388F88F
:1007E000103000F0BBFAC8F80C004149494498F8B1
:1007F000082006EB86031F443F013C4BD8593D4B74
:1008000003EBC603029305230193009100234146A5
:10081000FFF70FFD79E704EB84039A00642303FBE1
:100820000622314B134406EB860211192F4A02EBC4
:100830000112D168D86800F095FA01287FF465AFFD
:1008400004EB84039A00642303FB0622264B134423
:100850001B7C022B7FF459AFA200224493004FF07F
:10086000640909FB06F94B441F4A02EB0308012304
:1008700088F8103000F072FAC8F80C001C4949449E
:1008800098F8082006EB860323441B011748C0583C
:10089000184B03EBC6030293052301930091002339
:1008A0004146FFF7C6FC30E798F81030022B7FF482
:1008B00060AF60E72846FFF749FD0135EDB2002D36
:1008C0007FF40CAF2E460C4B5B5D012BF5D1094B31
:1008D00003EBC5039B79022BECD02C4617E70025D0
:1008E000EDE700BF0404002034030020703B030048
:1008F00098030020FC030020080400200A4638B9B1
:10090000044B03EBC00303CB106051600120704720
:1009100000207047FC0300200F2801D900207047F9
:10092000F0B40B4D84002618B3000026B7013B44F9
:100930002B441F685B680F604B6020448300B60146
:1009400033441D442B7A13700120F0BC704700BF64
:10095000240100200F2808D800EB80008200044BFF
:1009600013441B7C0B70012070470020704700BFB0
:10097000240100200F2807D800EB80008200034BE1
:10098000134419740120704700207047240100208F
:100990000F2808D800EB80008200044B1344DB686A
:1009A0000B60012070470020704700BF2401002029
:1009B000F0B589B0054600F0D1F915BB0746002413
:1009C00001261BE00DF1130305AA07A9284600F034
:1009D000CDF90646C8230C4A03FB05239DF81320D6
:1009E0000A4901EBC50102910A21019100933B469E
:1009F00005A90798FFF71DFC0134E4B20CB9012EDC
:100A0000E0D009B0F0BD00BF640200202C0300203C
:100A100004281BD8F0B40027054600EB80008400B2
:100A20000B4B23441A723B460BE0CE5C05EB850072
:100A30008400642000FB074405482044C654013369
:100A4000DBB29342F1D30120F0BC70470020704725
:100A500034030020042808D800EB80008200044BF7
:100A600013441B7C0B70012070470020704700BFAF
:100A700034030020042807D800EB80008200034BD9
:100A8000134419740120704700207047340300207C
:100A9000194B9B79022B28D02DE9F04184B000241A
:100AA0002CBB0F2801D9002022E017460E46054630
:100AB000830003444FEA8308104B9844012488F8CC
:100AC000104000F04BF9C8F80C0028010C4B1858E6
:100AD000094B0293052301930A4B009300233A46E6
:100AE0003146FFF7A6FB204602E0002070470020B9
:100AF00004B0BDE8F08100BFFC03002034030020F7
:100B0000703B030098030020F0B587B000230193E9
:100B1000029303930493059348BB06460546174B7F
:100B200003EBC0039B7913B10024012015E00120E1
:100B30001EE001AB114A02EBC502052164271048F3
:100B400007FB0500FFF7C9FB9DF8103002AA0199C9
:100B5000304600F04FF90134E4B25CB901280BD102
:100B6000064B03EBC5039B79002BE2D100E000208C
:100B700007B0F0BD0120FBE70120F9E7FC030020EE
:100B80009803002018B9F0B40546002612E00020B2
:100B9000704700EB80029100C82202FB0411154A45
:100BA0000A441A44002111710133DBB2072BF0D93A
:100BB0000136F6B2092E0ED82C4630460D4FB30042
:100BC00033449900C82202FB0512B9180023BB5018
:100BD0000B730B61EAE7084B002203F8352003EBA7
:100BE000C5056A700A23AB70AA71AA800120F0BC07
:100BF000704700BF640200202C03002018B9F0B435
:100C00000546002612E00020704700EB80029100AC
:100C1000642202FB0411154A0A441A44002111718E
:100C20000133DBB2072BF0D90136F6B2042E0ED811
:100C30002C4630460D4FB30033449900642202FB2A
:100C40000512B9180023BB500B730B61EAE7084B80
:100C5000002203F8352003EBC5056A700523AB704D
:100C6000AA71AA800120F0BC704700BF9803002041
:100C7000FC030020F8B500240CB1002452E020460B
:100C8000FFF780FF274610E005EB85018A0006EBA1
:100C9000860081010A4428490A440021D1540133C5
:100CA000DBB2072BF0D90137FFB20F2F10D8264641
:100CB0003D46BA003A449300A10021448A011A44F7
:100CC0001D4B134400221A741A72DA602346E8E7B7
:100CD0000134E4B2D0E700EB80029100642202FB11
:100CE0000511164A0A440021D1540133DBB2072B07
:100CF000F1D90136F6B2042E0FD825463046B2009F
:100D000032449100642303FB04120C4B1344002271
:100D10001A741A72DA602346E9E70122084B1A5561
:100D20001444E4B224B92046FFF768FF2646E2E700
:100D30000122044B1A70F8BD240100203403002066
:100D4000080400200404002018B9034A11540120AB
:100D500070470020704700BF0804002008B50DF060
:100D6000A7F808BD08B50DF0AFF808BD08B50846EE
:100D700011461A460BF064F8002008BD70BB10B590
:100D800003461446084603EB43029101144A0A4401
:100D9000D2F89C2082420FD003EB43029101104A0B
:100DA0000A44D2F8A82090420FD00D4B0B44D3F840
:100DB000B430984209D010BD029B0022214601F0B8
:100DC000FDFC00200EF054F810BD029B01222146CC
:100DD00001F0F4FC01200EF04BF8ECE7704700BF87
:100DE000A43A030010B582B0049C009400F0D8FE31
:100DF00002B010BD08B5084611461A460BF032F88D
:100E0000002008BD704700000023352B2BD8F0B51B
:100E100003E00133DBB2352B24D8362202FB01324A
:100E20001201114CA25A8242F3D1362202FB013444
:100E30000D4A02EB0412927A012AEAD10A4A02EB25
:100E40000412B2F80CE0094C5A00D61877004FF49F
:100E5000A27606FB01F6374424F807E03C4404225E
:100E60002271D6E7F0BD7047E43B03000C0400207C
:100E7000B2BB9446352B35D82DE9F04196461F4636
:100E8000362202FB0C34184A02EB041292F802805C
:100E90000022154602E000250132D2B2362404FBBE
:100EA0000E76114C04EB0614E478A2420CD208EB47
:100EB00002068E42EFDA865D013CA41AE400E4B239
:100EC00006FA04F42543E7E7362202FB0C33064A10
:100ED00002EB03131879C540D8882840BDE8F0819B
:100EE0000020704700207047E43B0300002A50D1E7
:100EF0002DE9F0431446172B49D816461D464FEAF4
:100F0000430E0EEB03025700E20002EB04084FEA27
:100F1000081C6744DFF880C03CF8077073444FEA50
:100F2000830E144463019E441A4B734493F802E009
:100F3000DC7893F804C007FA0CF70EEB04030B708F
:100F4000002122E005EB4502930006EBC6084FEABC
:100F5000481213440F4A1344DA8802FA0CF2CB0009
:100F6000DBB2DA40D2B20EEB040808F1FF38A8EB8E
:100F7000010810F8089029EA020227FA03F3DBB20D
:100F8000134300F808300131C9B2A142DAD3BDE8F9
:100F9000F0837047443F03005005002029B970B525
:100FA0000D4606460024214602E070470134E4B2B3
:100FB000352C1AD8C9B9362303FB05431B010B4A4C
:100FC000D35AB342F2D104EB44035A004FF4A27354
:100FD00003FB0522064B13441B79022BE6D10221A9
:100FE000304600F09BFA0121E0E770BDE43B0300CE
:100FF0000C04002002B170472DE9F04184B0154681
:101000000F46064600240294039404AA02F8094DF0
:1010100002A900F0A5FA304600F08AFA804601E005
:101020000134E4B2352C21D8362303FB05431B01E0
:10103000104AD35A9E42F3D123462A469DF8071000
:1010400002A8FFF715FF0C4B620002EB040E4FEAFB
:101050004E014FF4A27E0EFB05FE714403EB010C22
:101060005852ACF802808CF80470D9E704B0BDE89F
:10107000F08100BFE43B03000C04002018B970B5F8
:101080000546002402E070470134E4B2352C22D832
:10109000362303FB0542104B03EB02139B7B012B12
:1010A000F2D104EB440359004FF4A27303FB051380
:1010B0000A491944204600F059FA0028E4D104EB0B
:1010C000440672004FF4A27303FB0522034B134442
:1010D00005221A71D8E770BDE43B03000C04002020
:1010E00020B92DE9F8430546002402E07047013499
:1010F000E4B2172C23D804EB4402930005EBC5019E
:101100004A0113440F4A13449B7A012BEFD1DFF8B5
:101110003880630023445F00EB002B441A0117441E
:1011200038F807904946204600F042FC28F80700AE
:101130008145DCD03B46434402221A71D7E7BDE823
:10114000F88300BF443F03005005002001B1704701
:101150002DE9F04784B00D46074600260296039617
:1011600000F0E6F98246384600F0D4FB814634466A
:101170003046B04614E004A9002301F8093D234697
:101180002A4602A8FFF7B2FE9DF80730984500D323
:10119000434698460120B9F1010F1ED00134E4B254
:1011A000172C26D8264604EB4402930005EBC50114
:1011B0004A011344164AD35A9F42EFD104EB44022A
:1011C000530005EBC5010A011344124A13441B796D
:1011D000002BD0D0022BDED1CDE706EB4606730004
:1011E00005EBC5010A0113440A4A1344A3F802A0FF
:1011F000D4E710B904B0BDE8F087424602A93846EA
:1012000000F0A7FB0221384600F09BFBF2E700BF8D
:10121000443F030050050020F8B500257DB10025AE
:1012200048E005EB450205EB8201274A0A4401210B
:10123000D1540B44DBB20C2BF3D92B4618E02B46D0
:10124000F9E7362202FB0531204A02EB011216892A
:101250001F4A5900CC1860004FF4A27404FB05F437
:1012600020441718165200267E803E710133DBB2EF
:10127000352BE6D90135EDB2D0E75900CA189000F8
:10128000EA00561974012044124C2044B0F808E0DA
:101290001148CE18740057193E013444071920F83C
:1012A00004E000267E803E710133DBB2172BE4D9C7
:1012B0000135EDB20DB92B46F8E700F09FFB012296
:1012C000064B1A70F8BD00BFE0050020E43B0300A8
:1012D0000C040020443F03005005002009040020B6
:1012E0002DE9F843254B1B78012B43D000F084FBFC
:1012F000BDE8F88307EB470307EB8302204B134459
:1013000013F80830012B26D029464846FFF746FE41
:101310002A4631464846FFF76DFE0134E4B20C2CF4
:1013200020D82F46A04605EB450305EB8303234455
:10133000144A32F813902146284600F0A9F80646D0
:101340000128D7D00328D5D00428E6D1294648461D
:10135000FFF75AFDE1E71746094B1F44002307F842
:101360000830D5E72846FFF789FE0135EDB21DB9F3
:101370002C46D4E70025FAE7BDE8F88309040020ED
:10138000E0050020C03B030038B50F4B1B78012B54
:1013900017D000F031FB38BD05EB45032344294647
:1013A0000A4A32F81300FFF7D1FE0134E4B2022CEE
:1013B000F2D90135EDB235B92846FFF791FE2C463A
:1013C000F5E70025F7E738BD09040020DC3B030002
:1013D000352818D810B40D4C420002445300E218CE
:1013E000E35A0B801379012B03D0032B01D001208A
:1013F00007E000EB40004200044B134402221A7144
:10140000012010BC70470020704700BF0C04002072
:10141000352808D800EB40004200044B13441B79E8
:101420000B70012070470020704700BF0C040020A3
:10143000172814D800EB400253000B4AD35A8B42B2
:101440000FD070B443001C186500002426013544F9
:1014500051532A4402231371012070BC70470020AD
:1014600070470120704700BF50050020172807D89B
:1014700000EB40004300034AD35A0B800120704721
:101480000020704750050020002070470020704762
:1014900000B583B000238DF807308DF806109DF855
:1014A0000630DBB20C2B03D9052003B05DF804FB3A
:1014B0009DF8063000EB400200EB820018440DF16D
:1014C0000701144B13F81000FFF744FA012801D06C
:1014D0000520EAE79DF80730042B17D8DFE803F072
:1014E0001805030C14000220DFE79DF80630DBB27C
:1014F0000120094AD054D8E79DF80630DBB201211B
:10150000054AD1540320D0E70420CEE70520CCE7DC
:101510000020CAE7C03B0300280600200C2801D8A1
:10152000022900D0704708B5C0B2FFF723FA08BD02
:1015300000B583B00023ADF806300F280AD900208B
:10154000012802D00023ADF80630BDF8060003B034
:101550005DF804FB0DF10601C0B2FFF719FAEFE7E1
:1015600008B5C0B2FFF7D8F908BD0000F0B585B0E6
:1015700000238DF80F300E888DF80E009DF80E3088
:10158000DBB2352B16D89DF80E301B018D4AD55A8B
:10159000002423460D2701E00133DBB20C2B0AD8CF
:1015A0004CB9894A32F81320E8B29042F4D11F4670
:1015B0000124F1E70D270C2F00F261810D463C4616
:1015C000824BDB5D012B3CD09DF80E30DBB2342B1F
:1015D00000F25981DFE813F04C014C01570157012B
:1015E0005701570157014C014C0157014C014C0167
:1015F00057014C014C015701570157014C014C0157
:1016000057015701570157014C014C015701570130
:10161000570157014C014C015701570157014C012B
:101620004C01570157015701570157015701570105
:101630004C014C01570157015701570157014C010B
:101640004C019DF80E30DBB2352B00F2C780DFE88D
:1016500003F01B547C7C7C7C7C1B547C1B547C1BCB
:10166000547C7C7C1B547C7C7C7C1B547C7C7C7CF4
:101670001B547C7C7C1B547CC5C5C5C5C5C51B548F
:101680007C7C7C7CC51B547C00230193029304AAC0
:10169000082302F80D3D01A94B4B33F81700FFF763
:1016A0005FFFFF200BF03CFC9DF80E00FFF7ECFE07
:1016B0009DF8031001390246C9B20DF105000BF087
:1016C00013FC80B2864211D0414BDB5DFF2B02D070
:1016D00001333F4AD3553E4B1B5D042B02D90023F7
:1016E0008DF80F3001223B4B1A557AE001238DF81B
:1016F0000F300022374BDA5573E09DF80E20364B41
:1017000033F812309E420ED0324BDB5D5BB90022C3
:101710002F4BDA559DF80E202F4B23F81260012332
:101720008DF80F305DE02B4B1B5D33B9284B1B5DF3
:10173000FF2B02D00133264A1355254B1B5D042B8A
:101740004FD900238DF80F304BE0214BDB5D43B9BF
:101750009DF80E20204B23F8126001238DF80F30E6
:101760003FE0042B09D89DF80E201B4B33F81230B4
:101770000B8001238DF80F3033E09DF80E30DBB283
:10178000302B19D09DF80E30DBB2312B14D09DF8E0
:101790000E209DF80E100B4B03EB011319890E4B15
:1017A00023F812109DF80E200B4B33F812302B80CB
:1017B00000238DF80F3014E09DF80E20064B23F81F
:1017C0001260EFE7E43B0300C03B03002806002063
:1017D000A4060020B40600203806002000238DF85F
:1017E0000F309DF80E30DBB2062B36D09DF80E3050
:1017F000DBB2092B31D09DF80E30DBB20C2B2CD094
:101800009DF80E30DBB2112B27D09DF80E30DBB2E5
:10181000172B22D09DF80E30DBB2172B1DD09DF870
:101820000E30DBB21D2B18D09DF80E30DBB21D2B15
:1018300013D09DF80E30DBB2222B0ED09DF80E3067
:10184000DBB2252B09D09DF80E30DBB22F2B04D054
:101850009DF80E30DBB2352B02D10022294B1A55F0
:101860009DF80E30DBB29DF80F10274AD15406E0E8
:101870009DF80E30DBB2244AD35C8DF80F309DF812
:101880000F0005B0F0BD00238DF804309DF80E0068
:1018900001A9FFF7BDFD9DF804301BB901238DF8A8
:1018A0000F30ECE7042B13D05A1ED2B2022A01D912
:1018B000052BE4D19DF80E20144B33F812302B8009
:1018C0009DF80E30DBB2104AD35C8DF80F30D6E7AE
:1018D00001238DF80F309DF80E30DBB2302BCED0C7
:1018E0009DF80E30DBB2312BC9D09DF80E209DF84B
:1018F0000E10074B03EB01139989044B23F81210C8
:10190000BDE700BF28060020F005002038060020B3
:10191000E43B030000B583B000238DF8073017289F
:1019200004D99DF8070003B05DF804FB0DF1070131
:10193000C0B2FFF78FF80128F3D000238DF80730ED
:10194000EFE7172800D9704708B5C0B2FFF792F843
:1019500008BD17282BD8F8B516460D4604460128B1
:1019600007D0022814D032462946E0B2FFF750F8DB
:10197000F8BD1020FFF78AFD0746FF200BF0D0FAD4
:10198000711E3A46C9B2681C0BF0AEFA2870EAE73D
:101990001620FFF77BFD0746FF200BF0C1FA711EF2
:1019A0003A46C9B2681C0BF09FFA2870DBE7704713
:1019B000172801D90020704738B50C46054600EBC2
:1019C000400293000B4AD05AFFF7A4FF012801D030
:1019D000204638BD012D05D0112D03D0172D01D083
:1019E000002038BD0D2C02D8601C80B238BD00200C
:1019F00038BD00BF443F030070470000002308E0EB
:101A000000220D49CA540D49CA540D49CA54013324
:101A1000DBB20C2BF4D900230BE00A4A02EB0312D1
:101A20001189094A22F813100121084AD1540B44A4
:101A3000DBB2352BF1D97047A40600202806002020
:101A4000B4060020E43B030038060020F005002027
:101A500000B583B002A9052301F8013DFFF7D8FCCA
:101A6000012803D0002003B05DF804FB9DF8073087
:101A7000013BDBB2012BF6D90020F4E738B5002397
:101A80000F4A137001210F4A11700AE00E4A5900E3
:101A9000C818840015190020105568602872013399
:101AA000DBB20C2BF2D9002000F05AFA002000F033
:101AB00065FA002000F05AFA00F0E0F838BD00BFE7
:101AC00009C4FF1F08C4FF1FC40600202DE9F04110
:101AD0000024A0462746264603E098461E460134C9
:101AE000E4B20C2C2BD8254604EB44039A00254B7A
:101AF00013444FF4A061586800F09BF830B104EB38
:101B000044039A001F4B134400221A7205EB45034D
:101B10009A001C4B13441B7A002BE0D005EB4502C6
:101B20009100194A0A44127A02B1174605EB45059D
:101B3000AA0014498A5C002ACFD19846CFE73846DC
:101B400000F00EFA304600F019FA404600F00EFAA6
:101B500000F0BAF80D4B1B78012B05D013B9002209
:101B60000B4B1A70BDE8F08100F058F820B101224B
:101B7000074B1A70BDE8F0810022054B1A70BDE8D2
:101B8000F08100BFC40600206440030008C4FF1FAA
:101B900009C4FF1F014B1878704700BF09C4FF1F1D
:101BA0002DE9F043002401E00134E4B20C2C26D8E6
:101BB00004EB4406B500134E755D8542F4D104EB89
:101BC0004405AE000F4D35446D688D42ECD1082BB5
:101BD000EAD192F801C00CF0010CDFF82C906600FD
:101BE00006EB04084FEA880E09EB0E0809F80EC050
:101BF000079DC8F80450012688F80860D4E7BDE8BE
:101C0000F08300BF64400300C406002008B500F064
:101C1000A3F908BD08B500F09BF908BD10B500F0A8
:101C20008DF9044608B9204610BD0020FEF7E4F9FE
:101C3000F9E708B50CF048F9012801D0002008BDEB
:101C4000012008BD08B50B4B1B784BB1052B07D005
:101C5000012B05D0022B03D0002000F043FA02E054
:101C6000012000F03FFA00F06BFA00F0C5FA024BD9
:101C7000186008BD630700206C07002008B500232A
:101C80000A4A13700A4A13700A4A13700A4A1370F8
:101C90000A4A137000F0B0FA094B186000F0ACFA71
:101CA000084B186000F080F908BD00BF63070020F2
:101CB00061070020620700206007002070070020F5
:101CC000640700206807002008B5944B1B78052B9B
:101CD00000F21D81DFE813F0060024004F007D00B4
:101CE000A700D10000F0DCF950B900F080F998B9F4
:101CF00000F0A1F9002800F00F8100F0E7F908BD1D
:101D000000F0DEF9FFF79EFF00F076FA844B1860D2
:101D10000122824B1A7008BD042000F0E9F908BDC9
:101D2000804B1B78042B0ED81E217F4B186800F0C7
:101D3000ADF9002800F0F080FFF784FF794A1378AE
:101D40000133137008BD40F22711754B186800F07D
:101D50009DF9002800F0E08000F04EFA734B186007
:101D600000F04AFA6E4B186000226E4B1A70022285
:101D70006A4B1A7008BD4FF420716B4B186800F065
:101D800085F9D0B94FF4FA61684B186800F07EF914
:101D9000B0B94FF44861624B186800F077F9002839
:101DA00000F0BA8000F028FA5D4B1860604B1B7899
:101DB0005BB10322594B1A7008BDFFF743FFE1E7FF
:101DC00000F01AFA594B1860E3E70422534B1A70DB
:101DD00008BD4FF42071544B186800F057F990B9C2
:101DE0004FF4FA61514B186800F050F970B9514B3B
:101DF0001B7883B94E4B1B78002B40F08D8004225A
:101E0000464B1A7008BDFFF71DFFE9E700F0F4F933
:101E1000464B1860EBE700F0EFF9414B18600222E7
:101E20003E4B1A7008BD434B1B78ABB9404B1B7837
:101E3000D3B9414B1B78DBB94FF4FA613B4B1868BF
:101E400000F024F9002867D000F0D6F9344B186070
:101E50000522324B1A7008BD00F0CEF9304B1860E5
:101E600002222E4B1A7008BD03222C4B1A7008BD9B
:101E700000F0C2F92D4B186008BD2D4B1B78ABB993
:101E80002D4B1B789BB3002000F032F92A4B1B78B6
:101E900013B3032000F02CF900F012F900F0ACF9B4
:101EA0001F4B186002221D4B1A7008BD002000F065
:101EB0001FF9032000F01CF900F002F9FFF7C2FE41
:101EC00000F09AF9194B186000F096F9144B18605D
:101ED0000122124B1A7008BD00F089F818B10420D5
:101EE00000F006F9D8E7012000F002F9D4E740F24B
:101EF000DC510B4B186800F0C9F868B100F0DAF853
:101F0000002000F0F5F80022044B1A7008BD0020F4
:101F100000F0EEF8FFF7B2FE08BD00BF6307002037
:101F200064070020700700206C070020680700206D
:101F3000610700206207002060070020034B1B7828
:101F40000BB9012070470020704700BF63070020D5
:101F500008B500F0DDF808BD08B500F0E7F808BDE9
:101F6000014B1870704700BF6107002008B5024B95
:101F7000187000F0B1F808BD60070020014B187020
:101F8000704700BF6207002010B50446042803D044
:101F9000204600F0ADF810BD00F029F80028F7D079
:101FA000204600F0A5F810BD002304E0FF21084AF8
:101FB000D1540133DBB2072BF8D9054A3B23137008
:101FC000002353709370034A1370034A13707047D1
:101FD00074070020710700207207002008B50FF079
:101FE000DFFA012801D0002008BD012008BDF8B5A6
:101FF000002001F007FF0446012001F003FF054621
:10200000022001F0FFFE0646032001F0FBFE07461A
:10201000042001F0F7FE34B93DB946B94FB908B113
:102020000120F8BDF8BD0120F8BD0120F8BD012058
:10203000F8BD0120F8BD0020704700207047000067
:1020400030B583B000252C4601E00134E4B20F2CFA
:102050000ED80DF107012046FEF77CFC0128F4D1D3
:102060009DF80730013BDBB2022BEED80125ECE7EF
:10207000054B1C7804B92C4614B9204603B030BD7A
:102080000020FDF7C3FFF8E77107002008B50BF04B
:102090001BFF012801D0002008BD012008BD000061
:1020A000034B1B780BB1012070470020704700BF25
:1020B0007307002008B503210020FDF77DFF08BD50
:1020C00008B500210846FDF777FF08BD08B50121D6
:1020D0000020FDF771FF08BD014B1870704700BF6D
:1020E00071070020014B1870704700BF7207002075
:1020F000042806D8054B1B7823B110B90022034BE6
:102100001A707047014B1870704700BF73070020AA
:1021100010B50024044B1C7021462046FEF714FE27
:102120002046FEF76BFD10BD0AC4FF1F08B5012154
:10213000024B19700020FEF707FE08BD0AC4FF1FFE
:1021400008B50022284B5A70284B1B7813B1012286
:10215000254B5A70264B1B78032B2DD00021224A89
:10216000D170032B32D0042B34D0022B2AD0FFF7AE
:1021700067FF20B11C4AD37843F01003D370FFF7F8
:102180005CFF20B1184AD37843F02003D370FFF7E7
:1021900025FF20B1144AD37843F04003D370FFF7F2
:1021A00026FF20B1104AD37863F07F03D370114B20
:1021B0001B78012B12D008BD0B494A7842F010025F
:1021C0004A70CBE70222084BDA70D0E70422064BB4
:1021D000DA70CCE70822044BDA70C8E7082202491B
:1021E0000320FEF755FCE6E7740700207207002085
:1021F000730700200AC4FF1F08B50BF059FE08BD85
:10220000034B002283F831201A6183F83020704795
:102210004C09002008B50A4601460420FEF738FCA8
:10222000012801D0002008BD012008BD00B583B001
:102230000022009201921D4B1B6903F00F018DF8E3
:10224000001000E00A469A420BD2511C0729F9D827
:102250001648024492F8320002AA0A4402F8080C16
:10226000F0E7134A127D52B9072B12D80133072B1E
:10227000FAD8002102AA1A4402F8081CF4E70B4B12
:10228000197E6846FFF7C6FF012808D1FFF7B8FF9F
:1022900005E008216846FFF7BDFF012802D003B022
:1022A0005DF804FBFFF7ACFFF9E700BF4C09002025
:1022B0003409002010B582B00023009301931F4A17
:1022C0001169C1F3032242F010028DF800208DF84D
:1022D00001100BE09A1C072A07D81849194491F8F5
:1022E000321002A8024402F8081C0133052BF1D970
:1022F00008216846FFF78EFF012801D002B010BD0B
:102300000E4C06236362002384F8FA3001226261D6
:1023100023622269063A0A4BA3FB0213D11A03EB8C
:1023200051039B08A362C3EBC303D11AE1620BF014
:10233000BFFD6060052384F83030DFE74C090020E2
:102340002549922430B583B0002300930193574A66
:10235000536903F00F0343F020038DF80030116A36
:10236000936A994219D3514BD86A002859D1002455
:102370001CE01346062B12D85A1C4C49496A0B44E0
:10238000072AF6D8C72BF4D848490B4493F83210E3
:1023900002AB134403F8081CEBE70023EAE708212B
:1023A0006846FFF737FF012818D00124A4B93F4B36
:1023B0001A695B6A9A4266D03C4B9B69002B6DD0D0
:1023C0003A4A116AB1FBF3F203FB1213002B5DD101
:1023D0000522364B83F8302003B030BD334C63699F
:1023E00001336361236A01332362636A07336362E3
:1023F0000BF05EFD60600024D8E71346834212D2E2
:102400005A1C2A49496A0B44072AF6D8C72BF4D824
:1024100026490B4493F8321002AB134403F8081C0E
:10242000EBE70023EAE7224A147D54B9072B19D8B9
:102430000133072BFAD8002102AA1A4402F8081C1B
:10244000F4E7411CC9B26846FFF7E4FE0128ADD1AC
:10245000164CE26A636A134463620BF029FD606004
:102460000024A3E708216846FFF7D4FE012801D025
:1024700001249BE70D4DEA6A6B6A13446B620BF013
:1024800017FD686092E7FFF7BBFEA5E70BF010FDB4
:10249000064B1860032283F830209DE70BF008FDFF
:1024A000024B1860032283F8302095E74C09002086
:1024B0003409002010B53F4B93F83030052B6DD810
:1024C000DFE803F00316254334503A4B93F83130DC
:1024D000012B6DD1374B1B69072B04D80122354BDB
:1024E00083F8302010BD0222324B83F8302010BD1B
:1024F0004621304B58680BF0E7FC012802D0FFF76B
:1025000095FE10BD06222B4B83F8302010BD4621CE
:10251000284B58680BF0D8FC012802D0FFF7CAFE00
:1025200010BD0622234B83F8302010BD9621214B8D
:1025300058680BF0C9FC012802D0FFF703FF10BD5B
:1025400006221C4B83F8302010BD1A4BD96901318B
:1025500018680BF0B9FC01282AD10422154B83F826
:10256000302010BD9621134B58680BF0ADFC0128AC
:102570000FD0104B93F8FA30012B19D10D4C0023DA
:1025800084F8FA300BF094FC2060032384F8303098
:1025900010BD0622074B83F8302010BD054B0022EA
:1025A00083F831201A61D9680131D96083F830206D
:1025B00010BD00BF4C09002000B583B000F00F0033
:1025C00040F030008DF800000C4B1A798DF8012096
:1025D0001B7A8DF8023000238DF803308DF804301B
:1025E0008DF805308DF806308DF8073008216846E3
:1025F000FFF710FE03B05DF804FB00BF34090020B4
:1026000010B5104B00241C615C731C739C60082285
:102610005A601C755C7509E0DC231A4600210A48E3
:1026200003FB040010F086FD0134E4B2012CF3D961
:10263000FC220021054810F07DFD0122014B1A709B
:1026400010BD00BF340900207C0700204C09002089
:10265000014B587B704700BF3409002038B5234B2D
:102660005B7B012B21D0002038BDDC2303FB05431D
:102670009B688B4203D9DC2303FB054399601C4B09
:10268000DC2202FB05F505F110041C4402341D4454
:10269000AA68214610F043FDAA680021204610F0E8
:1026A00049FDA86800232B740EE00023012B0AD8F3
:1026B0001D46DC220E4C02FB0342127C012AD4D0C0
:1026C0000133DBB2F2E700200023012B09D8DC2222
:1026D000074902FB0312127C012A03D00133DBB24B
:1026E000F3E700220AB9014B5A7338BD34090020C0
:1026F0007C070020F8B5531EC72B01D90220F8BD76
:102700000E4B93F831300BB10120F8BD14460E4644
:1027100005460BF0CDFB094F78602246314607F1A4
:10272000320010F0FCFC3C61012387F83130BD60C1
:10273000FFF7C0FEFFF7BEFE0020F8BD4C090020E9
:1027400008B5FFF7D7FF08BD134B1B7B13B3124B24
:102750005B7D012B06D001220F4B5A7300220E4BDA
:102760001A73704710B500240EE00C48DC2303FBFD
:1027700004F303F110010144C21892680231C058F9
:10278000FFF7DEFF0134E4B2012CEED90022024B48
:102790001A7310BD704700BF340900207C07002069
:1027A00008B5054B1B78012B00D008BDFFF782FE52
:1027B000FFF7CAFFF9E700BF34090020012A00D95A
:1027C00070470029FCD02DE9F04114460D46DC226B
:1027D000994902FB0412127C72B92A78072B08D996
:1027E0001309032B08D8DFE813F01100360071003D
:1027F000E9000220FFF7E0FE9621904B18690BF0EC
:1028000063FB012800F00481BDE8F0818B4B5B7D08
:10281000012B1AD0884BDC2202FB04F202F11000DB
:102820001844861C294651F8017FC0F80270888838
:102830008979B080B171297801F00F011344996052
:1028400001227E490A731A74D6E702F00F02691C4E
:10285000FFF776FFD0E7784FDC2202FB04F2B918CD
:102860000026CE602B781B0203F4706395F801E01C
:1028700043EA0E038B604E744E60B8506F4B5B7D25
:10288000012B0AD0DC236C4A03FB04239B68C72B73
:1028900006D90220FFF790FEAEE7684B5E73F1E7C2
:1028A000654BDC2202FB04F202F1100119442846B8
:1028B00050F8026FC1F802608088C8801344DA685B
:1028C0000632DA600020FFF777FE95E7DC235A49ED
:1028D00003FB04135B7C01335A4012F00F0F3DD110
:1028E000DC2303FB04139E68DB68F61A062E3AD835
:1028F0000F464FF0DC0808FB04F808EB030010302B
:1029000008443246691C023010F009FC4744FB6859
:102910003344FB60DC23484A03FB04235A7C013226
:1029200002F00F025A745A6801325A60434B5B68D6
:1029300063B1DC21404801FB0401C8688968884212
:1029400004D2B2FBF3F103FB112313B3DC233A4AA5
:1029500003FB04239A68DB689A421ED00BF0A8FAA6
:10296000364B186148E7344ADC2101FB04F10B4483
:10297000103313449E1C284650F8017FC3F80270A0
:1029800087888379B780B3715318DA680732DA60C1
:10299000C0E70020FFF710FED8E7C82A05D9DC23DE
:1029A000254A03FB0423C8229A600122234B1A7391
:1029B000DC23214903FB04131A74CFE712F00F0242
:1029C00013D11F4A012382F8FA306B789361AB78F8
:1029D000D361A3F18002702A03D9FA3B052B3FF69D
:1029E0000BAF7F22164BDA6106E7012A06D0022AD6
:1029F00009D00622124B83F83020FDE60BF058FA7E
:102A00000F4B5860F8E606220D4B83F83020F3E6B2
:102A1000DC23094A03FB04231B7C012B7FF4F4AE67
:102A20002B781B09022B7FF4EFAEDC2303FB04227F
:102A300000231374E8E600BF7C070020340900205F
:102A40004C090020014B93F8310070474C090020DD
:102A5000A0F18003702B07D9A0F1FA03052B05D94B
:102A6000034B98600120704700207047002070479A
:102A700034090020014B187A704700BF3409002048
:102A800038B506284CD800EB8003284AD35C3BB904
:102A90003F2923D0DB2923D9FA2923D80D4602E088
:102AA000642921D80D46044600200CF07BF943F63A
:102AB0009823984235D944F63823984233D81C4B92
:102AC000B3FBF0F304EB8400184A125C72B93F2D9B
