:20E000000030002085E40000D5E40000D5E40000D5E40000D5E40000D5E4000000000000AA
:20E02000000000000000000000000000D5E40000D5E4000000000000D5E40000B988010073
:20E04000435401004D54010057540100615401006B540100755401007F54010089540100E8
:20E06000935401009D540100A7540100B1540100BB540100C5540100CF540100D954010048
:20E08000E3540100D5E40000D5E40000D5E40000D5E40000D5E40000D5E40000D5E4000039
:20E0A000D5E40000D5E40000D5E40000D5E40000D5E40000D5E40000D5E40000D5E4000098
:20E0C000D5E40000D5E40000D5E40000D5E40000D5E40000D5E40000D5E40000D5E4000078
:20E0E000D5E40000D5E40000D5E40000D5E40000D5E40000D5E40000C9850100D385010022
:20E10000D5E40000D5E40000D5E40000D5E40000D5E40000D5E40000D5E40000D5E4000037
:20E12000D5E40000D5E40000D5E40000D5E40000D5E40000D5E40000D5E40000D5E4000017
:20E14000D5E40000D5E40000D5E40000D5E40000D5E40000D5E40000D5E40000D5E40000F7
:20E16000D5E40000D5E40000D5E40000D5E40000D5E40000D5E40000FF6C0100096D010066
:20E18000136D01001D6D0100276D0100D5E40000D5E40000316D01003B6D0100D5E400006B
:20E1A000456D0100D5E40000D5E40000D5E40000D5E40000D5E40000D5E40000D5E400009D
:20E1C000D5E40000D5E40000D5E40000AD720100B9720100C5720100D1720100D5E4000093
:20E1E000D5E40000DD720100E9720100F572010001730100D5E40000D5E400000D730100EA
:20E20000197301002573010031730100D5E40000D5E400003D73010049730100557301008A
:20E2200061730100D5E40000D5E40000D5E40000D5E40000D5E40000D5E40000D5E40000FA
:20E24000D5E40000D5E40000D5E40000D5E40000D5E40000D5E40000D5E40000D5E40000F6
:20E26000D5E40000D5E40000D5E40000D5E40000D5E40000D5E40000D5E40000D5E40000D6
:20E28000D5E40000D5E40000D5E40000D5E40000D5E40000D5E40000D5E40000D5E40000B6
:20E2A000D5E40000D5E40000D5E40000D5E40000D5E40000D5E40000D5E40000D5E4000096
:20E2C000D5E40000D5E40000D5E40000D5E40000D5E40000D5E40000D5E40000D5E4000076
:20E2E000D5E40000D5E40000D5E40000D5E40000D5E40000D5E40000D5E40000D5E4000056
:20E30000D5E40000D5E40000D5E40000D5E40000D5E40000D5E40000D5E40000D5E4000035
:20E32000D5E40000D5E40000D5E40000D5E40000D5E40000D5E40000D5E40000D5E4000015
:20E34000D5E40000D5E40000D5E40000D5E40000D5E40000D5E40000D5E40000D5E40000F5
:20E36000D5E40000D5E40000D5E40000D5E40000D5E40000D5E40000D5E40000D5E40000D5
:20E38000D5E40000D5E40000D5E40000D5E40000D5E40000D5E40000D5E40000D5E40000B5
:20E3A000D5E40000D5E40000D5E40000D5E40000D5E40000D5E40000D5E40000D5E4000095
:20E3C000D5E40000D5E40000D5E40000D5E40000D5E40000D5E40000D5E40000D5E4000075
:20E3E000D5E40000D5E40000D5E40000D5E40000D5E40000D5E40000D5E40000FFFFFFFF12
:20E400005334363731312E30312E3030544C434D430000003031000010B5054C237833B918
:20E42000044B13B10448AFF300800123237010BD00000020000000009C1402000C4B43B1BA
:20E440000C480D4910B5AFF300800C48036823B910BD0A48036833B97047094B002BF7D01D
:20E46000BDE810401847064B002BF5D0184700BF000000009C1402000400002014D3FF1F0E
:20E480000000000072B64FF000014FF000024FF000034FF000044FF000054FF000064FF086
:20E4A0000007B846B946BA46BB46BC460548854605488047054880470548804762B611F0E8
:20E4C00073FAFEE700300020A53D0100E93C010039B80100FFF7FEBF844641EA000313F0F1
:20E4E00003036DD1403A41D351F8043B40F8043B51F8043B40F8043B51F8043B40F8043B4D
:20E5000051F8043B40F8043B51F8043B40F8043B51F8043B40F8043B51F8043B40F8043BFF
:20E5200051F8043B40F8043B51F8043B40F8043B51F8043B40F8043B51F8043B40F8043BDF
:20E5400051F8043B40F8043B51F8043B40F8043B51F8043B40F8043B51F8043B40F8043BBF
:20E5600051F8043B40F8043B403ABDD2303211D351F8043B40F8043B51F8043B40F8043B4F
:20E5800051F8043B40F8043B51F8043B40F8043B103AEDD20C3205D351F8043B40F8043B5F
:20E5A000043AF9D2043208D0D2071CBF11F8013B00F8013B01D30B8803806046704700BF11
:20E5C000082A13D38B078DD010F003038AD0C3F10403D21ADB071CBF11F8013B00F8013BF7
:20E5E00080D331F8023B20F8023B7BE7043AD9D3013A11F8013B00F8013BF9D20B7803704C
:20E600004B7843708B78837060467047431E1F2B17D8DFE803F01010161016161610161619
:20E620001616161616101616161616161616161616161616161029B9054A138823EA000029
:20E6400010807047024B1A8810431880704700BF00C4FF1F08B501210846FFF7D7FF0DF04B
:20E660009FF9014B186008BD1C00002010B50CF0DDF9044640B9C8210E4B18680DF09CF90F
:20E68000012805D0052403E00DF08AF9094B1860631FDBB2012B08D9082C06D0042C04D0FA
:20E6A00001210820FFF7B2FF10BD00210820FFF7ADFF10BD1C00002008B51B4B1B78A3B19E
:20E6C000FFF7D4FF00210120FFF7A0FF00F0EEF801280FD0154B1B78012B0FD0144B1B88BC
:20E6E000F3B111200CF066FD08BD0CF0D9FB0E4B187008BD01220D4B1A70EBE70CF080F95F
:20E700000128EBD10CF002FD012804D001211020FFF77CFFE2E700211020FFF777FFDDE70F
:20E7200011200CF059FD08BD200000202100002000C4FF1F02280BD808B504D0002120202F
:20E74000FFF764FF08BD01212020FFF75FFF08BD70470000014B1888704700BF00C4FF1F25
:20E760000122014B1A707047210000200023054A1370054A1370054A1370054A1370054AEE
:20E7800013607047280000202900002022000020230000202400002010B582B00224ADF833
:20E7A000064002A9052301F8033D204602F0F4F90DF10601204602F0CDF99DF80530013B99
:20E7C000DBB2012B0CD94FF47A711F4B18680DF0F3F8012828D01D4B1A781D4B1A700AE0A4
:20E7E000BDF80630012B1BD00022194B1A700DF0D7F8154B1860154B1B78012B18D000213B
:20E80000144A11701BB9124B1B78012B18D00022114B1A700E4B1A780C4B1A7002B010BDEE
:20E8200001220B4B1A70E2E70022094B1A70E2E7074A1278002AE2D10121064A1170E1E7D0
:20E840000122054B1A70E5E7240000202300002022000020280000202900002010B582B09E
:20E860000024ADF8064002A9052301F8033D204602F092F90DF10601204602F06BF99DF844
:20E880000530013BDBB2012B02D9002002B010BDBDF80630012B01D02046F7E70120F5E7AB
:20E8A000014B1878704700BF22000020014B1878704700BF28000020014B1878704700BFD8
:20E8C0002900002010B582B00224ADF8064005238DF8053004238DF804300DF105010320FE
:20E8E00002F05AF90DF10601032002F033F901A920460DF041FD00220A4BDA709DF80430B8
:20E900002BB99DF80530013BDBB2012B01D902B010BDBDF80630012BF9D10122014BDA7061
:20E92000F5E700BF2C00002030B583B00224ADF8064005258DF805508DF804400DEB0501FC
:20E94000284602F029F90DF10601284602F002F901A920460DF010FD00220A4B5A709DF8E5
:20E9600004302BB99DF80530013BDBB2012B01D903B030BDBDF80630012BF9D10122014BF6
:20E980005A70F5E72C00002010B582B00224ADF8064005238DF8053004238DF804300DF1BD
:20E9A0000501062002F0F8F80DF10601062002F0D1F801A920460DF0DFFC9DF8043043B9B6
:20E9C0009DF80530013BDBB2012B04D90022064B1A7002B010BDBDF80630012BF6D101221E
:20E9E000014B1A70F5E700BF2C00002010B582B00224ADF8064005238DF8053004238DF8C4
:20EA000004300DF10501072002F0C6F80DF10601072002F09FF801A920460DF0ADFC00225A
:20EA20000A4B9A709DF804302BB99DF80530013BDBB2012B01D902B010BDBDF80630012B9B
:20EA4000F9D10122014B9A70F5E700BF2C00002070B582B0002004F09BFB06460225ADF873
:20EA6000065005238DF8053004248DF804400DEB0301204602F090F80DF10601204602F034
:20EA800069F800220F4B1A710DEB040128460DF073FC9DF8043053B99DF80530013BDBB2CF
:20EAA000012B06D9012E08D00022064B1A7102B070BDBDF80630012BF4D10122014B1A7191
:20EAC000F5E700BF2C00002008B5214B1B78012B24D00021052000F079FB1D4B5B78012B62
:20EAE00021D00021042000F071FB194B9B78012B1ED00021022000F069FB154BDB78012B7D
:20EB00001BD00021012000F061FB114B1B79012B18D03F21002000F059FB08BD6421052045
:20EB200000F054FBD9E76421042000F04FFBDCE76421022000F04AFBDFE70121084600F02E
:20EB400045FBE2E7FA21002000F040FB08BD00BF2C00002010B5FFF7A3FE0446FFF77EFE5E
:20EB600001280DD0B4B1FFF7ADFEFFF7DDFEFFF70BFFFFF73BFFFFF76BFFFFF7A5FF10BDC1
:20EB80000A4C0020E07060702070A07004F000FB2071F2E7054C0020E070A07004F0F8FA2F
:20EBA0002071FFF7C1FEFFF7EFFEE6E72C0000207047704710B582B000208DF8070003F00F
:20EBC000C1FE224B1B78012B02D0D3B302B010BD04460DF10701002003F08CFC9DF80730BC
:20EBE000022B10D0062B15D0042B1CD0032B23D0052B21D0072B1FD0082B1DD00021022011
:20EC000001F0DAFFE2E73F2CECD10021022001F0D3FFDBE7DB2CE7D9FA2CE5D80021022084
:20EC200001F0CAFFD2E7DB2CE0D9FA2CDED80121022001F0C1FFC9E70121022001F0BCFF30
:20EC4000C4E70021022001F0B7FFBFE73300002000B583B002A9002301F8013D032003F023
:20EC600049FC174B1B78012B03D003B303B05DF804FB9DF80730032B10D0052B0ED0072B84
:20EC80000CD0082B0AD0042B08D00021052001F093FF0021062001F08FFFE7E701210520E0
:20ECA00001F08AFF0121062001F086FFDEE70021052001F081FF0021062001F07DFFD5E730
:20ECC0003300002030B583B0494B1B78012B04D0002B00F0838003B030BD02AC002304F817
:20ECE000023D062003F02EFE05462146062003F001FC9DF80630022B36D0062B3FD0042B5B
:20ED000047D0032B05D0052B03D0072B01D0082B06D10121042001F04FFF0022354B1A7018
:20ED200002AC002304F8013D052003F00BFE05462146052003F0DEFB9DF80730022B30D00B
:20ED4000062B39D0042B41D0032B05D0052B03D0072B01D0082BBED10121032001F02CFF0D
:20ED60000022254B1A70B6E7002DC6D1214B1B78002BD5D10021042001F01EFFD0E7002D0F
:20ED8000BDD00021042001F017FF0022194B1A70C6E70121042001F00FFF0122154B1A708B
:20EDA000BEE7002DCCD1144B1B78002B93D10021032001F001FF8EE7002DC3D000210320B5
:20EDC00001F0FAFE00220C4B1A7084E70121032001F0F2FE0122084B1A707CE7002104200E
:20EDE00001F0EAFE0021032001F0E6FE73E700BF3300002032000020310000200023024AA3
:20EE00001370024A13707047310000203200002008B500F0EBF9174B1870FFF71FFD50B9B0
:20EE2000144B1B78012B18D0DBB1FFF7C3FEFFF70FFFFFF747FFFFF733FD012816D00420F0
:20EE400004F0A6F9012811D0002000F0D3FC0023094A1370094A137008BD012101F0ACFEE5
:20EE6000E3E70021084601F0A7FEDEE7002000F0CBFC08BD3300002031000020320000206C
:20EE8000704770477047000010B54FF4C871364B186800F01EFA10B10022344B1A70334B99
:20EEA0001B782BB1012B18D00022304B1A7010BD00F00BFA2C4B1860002306E02C4A02EB8B
:20EEC0000312002191700133DBB2052BF6D90023284A1370284A136010BD264B1B781BB999
:20EEE000012000B300240CE003EB43039A00234B13445968204B186800F0EBF9F1E70446F9
:20EF00008CB91C4B1B7803EB430291001B4A0A44927A012AF3D0052B03D80133154A137020
:20EF2000EEE70446ECE7134B1B78052BBFD80028BDD01A010E49885C03EB430291000F4AFF
:20EF40000A44127A904204D00A4A13780133137010BD074A02EB031301229A7000F0B5F9AF
:20EF6000054B1860F0E700BF9C0000203400002038000020A00000209800002020FC010036
:20EF8000F8B503201D4B187000F084F900231C4A13701C4A13701C4A13601C4A13701C4A27
:20EFA00013609E4601E00133DBB2052B1BD8194C5900CA1890002044057A174F1E01BA19CA
:20EFC000BD55557000259570D570157195600125157342689644827AAA42E4D10B490A78CB
:20EFE0002A440A70DFE7BEF5C87F03D900220B4B1A70F8BD0122094B1A70F8BD02C4FF1F3C
:20F0000034000020A00000209C000020A10000209800002020FC01003800002035000020DD
:20F02000F8B5644B1B78012B07D00322624B1A700022624B1A700024A9E000F053F9012817
:20F04000F9D1002427462546264603E00135EDB20134E4B2052C1CD8204600F0F5F8584BF0
:20F0600003EB0413D8700228F0D004EB44039A00544B13449B7A012B06D0012BE8D103286C
:20F08000E6D10137FFB2E3E70128F6D10136F6B2DEE745B10122484B1A700022474B1A70FE
:20F0A000FFF7F2FEC7E7484B1B783E44B34207D0414B1B78032B19D903223F4B1A7015E0DB
:20F0C00000233D4A13703D4A1370E9E701EB05135B789A4218D000F0F8F8394B03EB051324
:20F0E000986000221A731DE00135EDB2052DD7D82C4605EB45039A00324B13441A7A2B01DE
:20F100002F49CB5C9A42E1D02D4B03EB04134FF4FA71986800F0DDF820B1294B03EB041389
:20F1200001221A73254B1B78002BDDD1244B03EB04131B7B002BD7D004EB44039A00214B2B
:20F1400013441A7A23011E49CB5C9A42CCD001EB0413DB78012BC7D101EB04142379012BB4
:20F16000C2D00122154B1A70BEE704EB44039A00144B1344597A204600F050F810492B01CF
:20F18000CA18CB5C5370D37813710134E4B2052C0AD825460A4B03EB04139B78012BE4D03E
:20F1A0002301074AD15CE6E7034B187800F072F8F8BD00BF3500002002C4FF1F34000020A7
:20F1C0003800002020FC0100A1000020054B1B78012B00D070470528FCD80001024B1954A7
:20F1E000F8E700BF3500002038000020014B1878704700BF02C4FF1F064B1B78012B00D0AE
:20F20000704710B5044C00232370FFF73DFE0123237010BD3500002034000020052810D8F9
:20F2200008B501280AD0032807D000EB40008200044B1344587802F097FE08BD03F04CF965
:20F2400008BD704720FC010010B582B000238DF80730052802D9002002B010BD00EB40006D
:20F2600083000B4AD45C0DF10701204603F042F9204603F051F908B10220EDE79DF80730CE
:20F28000042B03D0082BE7D10320E5E70120E3E720FC010010B50446FFF702FB012804D08B
:20F2A0000021022003F018F910BD012CF8D1FFF7D5FA012804D00121022003F00DF910BD78
:20F2C0000021022003F008F910BD08B50CF068FB08BD08B50CF070FB012801D0002008BD46
:20F2E000012008BD00B583B002A9042301F8013D01200DF041F8FFF7B1FA20B99DF807309A
:20F3000013B9012000E0002003B05DF804FB000010B5044600F0B5FA174B03EB04135B7B0E
:20F32000012B09D0022B17D0134B03EB04140123637300F0A7FA10BD204600F013FB28B1BB
:20F340000D4B03EB041402236373F2E7204600F017FB0128EDD1F3E7204600F003FB0028D6
:20F36000E7D1204600F00CFB0028E2D1024B03EB041401236373DCE7A800002038B504468E
:20F3800000F07FFA4B4B03EB04135B7A022B40D0032B7BD0012B07D0464B03EB0414012320
:20F3A000637200F06FFA38BD424B03EB04135B78012BF6D8204600F009FB01281DD02046F5
:20F3C00000F0ECFA0028ECD03A4B03EB04139B7A002BE6D1374B03EB041302225A72DB7A26
:20F3E000012BDED1204600F004FB01280BD0314B03EB04140123E372D3E72E4B03EB0414A5
:20F4000002236372CDE72B4B03EB04140023E372C7E7204600F0C2FAE0B1264B03EB041383
:20F420009B7A012B16D0234B03EB04135B78032B1BD0204B03EB0413DB7A012BB1D120466D
:20F4400000F0D7FA01281BD01A4B03EB04140123E372A6E7204600F0B9FA0028E3D1154B21
:20F4600003EB0414012363729BE7124D05EB04150123EB72204600F0B4FA03236B7290E7A4
:20F480000C4B03EB04140023E3728AE7204600F0AEFA012807D0074B03EB04135B7813B13A
:20F4A000012B7FF47EAF034B03EB04140123637277E700BFA800002038B504460301664A63
:20F4C000D35C013B032B00F2C180DFE803F002273A99614B03EB00135B7B022B19D05E4B68
:20F4E00003EB00135B7A022B13D05B4B03EB00135B78023BDBB2012B00F2AC8000F0C7F9E8
:20F50000554B24011D1903221A5500F0D6F9686038BD24010222504B1A5538BD4E4B03EB11
:20F5200000135B7B012B40F095804B4B03EB00135B7A012B40F08E8004010122464B1A5573
:20F5400038BD454B03EB00135B78012B27D900F09CF901282AD0204600F095F901283DD064
:20F560003D4B03EB04131E21586800F0AAF9012870D1204600F092F9204600F022FA364B2E
:20F5800003EB04139B7A002B34D1334B03EB041300225A70240101222F4B1A5538BD00F09C
:20F5A0007DF9240101222C4B1A5538BD204600F008FA294B03EB04139B7A4BB9264B03EB69
:20F5C000041300225A7024010122234B1A5538BD214B03EB041301225A70F4E700F051F99B
:20F5E000204600F062F900F04DF9240104221A4B1A5538BD184B03EB041301225A70C9E70B
:20F60000154B03EB00135B78012B12D900F03DF901281FD1104B03EB04139B7A83B90E4B56
:20F6200003EB041300225A70240101220A4B1A5538BD00F033F924010122074B1A5538BDBE
:20F64000054B03EB041301225A70EDE704010122014B1A5538BD00BFA800002038B50546FD
:20F6600000F0DBF90A4C04EB05142073284600F08BF9A073237B2372834200D22072044B35
:20F6800003EB0513197A284600F020F938BD00BFA800002010B5002434B100F0C0F9B8B9F6
:20F6A00001220E4B1A7010BD204600F0DFF80C48220183180121815400225A701A725972FE
:20F6C0009A72D9721A7359739A730C44E4B2E3E70CF066F9034B186010BD00BFB800002038
:20F6E000A8000020A400002010B500241CB100220A4B1A7010BD204600F0BFF8084821017B
:20F700004218002343545370137253729372D372537313730134E4B2E8E700BFB800002001
:20F72000A800002010B51A4B1B78012B14D0194B186898B910BD2046FFF7EAFD2046FFF793
:20F740001DFE2046FFF7B8FE2046FFF787FF0134E4B2002CEFD010BD0024FAE74FF47A71E4
:20F760000CF02AF90128E5D100240A4B1C60FFF791FF002CDED10021204600F0E9FE064B86
:20F7800003EB041301229A721444E4B2F1E700BFB8000020A4000020A800002028B9030167
:20F7A000034AD35C0B70012070470020704700BFA8000020D8B908B503460D4A02EB00122F
:20F7C000517001290AD00A4A02EB0012002090721846022908D000F0F4F808BD044A02EBB2
:20F7E000001201209072F3E700F0E6F808BD7047A8000020034620B9024800EB031001235A
:20F8000083727047A8000020034620B9024800EB0310002383727047A800002010B5044664
:20F8200000F0BCF820B10E4B03EB04139B7A2BB10B4800EB04100123C37210BD204600F036
:20F84000D8F8012805D0064800EB04100123C37210BD034800EB04100023C37210BD00BF39
:20F86000A800002008B500F093F808BD08B50AF07BF81A2009F002FC08BD08B50AF0D6F81E
:20F8800008BD70477047012070470020704708B51A2009F0C9FB0AF0C9F808BD08B50AF09B
:20F8A00063F81A2009F0EAFB08BD10B5044600F06BFD204600F0A4FD10BD08B50CF070F8C4
:20F8C00008BD08B50CF078F808BD000038B50546042909D00C46032914D01F4B1B78012BAC
:20F8E00023D0002C33D038BD002100F031FEFFF7FBFE0CF055F8194B186000210E200BF053
:20F900007BFC38BD144B1B78002BE6D10122124B1A70002100F01CFE0CF042F8104B186069
:20F9200000210E200BF068FC38BD4FF47A710C4B18680CF041F80128D3D10022064B1A7020
:20F94000FFF7A8FE0121284600F002FE38BD01210E200BF051FCC6E7C0000020A4000020AD
:20F96000BC00002000B583B0694600F0A1FA9DF806301BB1012003B05DF804FB0020FAE7C9
:20F9800008B50AF0C1F808BD08B50AF063F808BD00B1704708B500F00BFC08BD00B583B092
:20F9A000694600F0ABFB9DF806301BB1012003B05DF804FB0020FAE708B5002100F0C8FDAF
:20F9C00008BD08B5012100F0C3FD08BD08B50AF089F8012804D00AF07FF8012800D000204F
:20F9E00008BD08B500F00CFD0AF0A0F808BD0120704710B504460AF027F8012801D000201B
:20FA000010BD0AF06FF80028F9D10AF065F80028F5D1204600F07AFCF1E70020704708B549
:20FA200000200AF099F8012800D0002008BDF0B5059D9DF81860079CA779022F47D06778FF
:20FA400007EB87074FEA870E45F80E00607800EB800087002F443A73627802EB8202900048
:20FA600028440361002309E0607800EB800082002A44C85C1A4410710133DBB2072BF3D9B5
:20FA800063780133DBB26370B34201D300236370627823789A420AD09A420DD20121A1711E
:20FAA0009B1ADBB2A278934214D2A370F0BD0223A3710023A370F0BD0121A171B61A53FA02
:20FAC00086F3DBB2A278934204D2A370F0BDA3880133A380F0BD70B4947984B3147804EB89
:20FAE0008404A50044591C60147804EB8404A50005442C7B1C73147804EB8404A5000544A8
:20FB00002C691C6100240AE0167806EB8606B500054425442E791D192E710134E4B2072CD9
:20FB2000F2D913780133DBB213708B4201D30023137051781378994203D00123937170BC8E
:20FB4000704700239371FAE720B92DE9F8430546002416E0704704EB8402930005EB850122
:20FB6000CA0013444C4A134404EB45024B4901EB02129168D86800F0F9FC012841D0013420
:20FB8000E4B2012C00F28580264604EB4503434A02EB03131B79002BDDD0012B43D0022BA0
:20FBA000EDD1A30023449F00AB002B44DA001744394B1F4404EB4508384B03EB0818D8F80B
:20FBC0000C10F86800F0D2FC8146D8F80810F86800F0CCFCB9F1010F57D00128CFD106EB89
:20FBE0008606B30005EB8501CA0013442A4A134403221A742A4B03EBC5039A8801329A8017
:20FC0000BDE704EB8406B30005EB8501CA001344214A134403221A74214B03EBC5039A88C4
:20FC200001329A80ABE704EB8402930005EB8501CA001344184A134404EB4502174901EB0B
:20FC40000212D168D86800F091FC012897D104EB8402930005EB8501CA0013440E4A1344BB
:20FC60001B7C022B8BD104EB8406B30005EB8501CA001344084A134403221A74084B03EB04
:20FC8000C5039A8801329A8079E73B7C022BA4D1A5E7BDE8F88300BF0C020020BCFC010022
:20FCA0009802002028B9F0B583B007460E4600252DE0704705EB85029300C7EB0710C200B2
:20FCC0001344344A134403221A7449E0B31893F804C001EB81008300CEEB0E14E000034410
:20FCE0002C4C234403F802C00132D2B2337B9A42ECD301EB41018A0007EBC700C1000A44E8
:20FD000025490A441279012A39D00135EDB2052D3DD83268BE46294605EB4500830007EB95
:20FD2000C704E00003441C48C3589A42EDD105EB85029300C7EB0710C2001344154A134416
:20FD40001B7C012BB6D0032B0AD005EB85029300C7EB0710C20013440E4A134401221A7406
:20FD600032698800084483003C01E41BE0001844084B0344DA60327B1A720022B6E7082223
:20FD80000092321D3168384600F0FCFBBDE703B0F0BD00BFC400002068FC01000022014B0A
:20FDA0001A707047A0020020F0B589B03A4B1B78012B6ED000F00EFC09B0F0BD03A930465E
:20FDC000FFF770FF0134E4B2092C60D8334B03EBC5039B79002B5AD003AB304A02EBC5020D
:20FDE0000A21C8272E4807FB0500FFF774FE039905EB450293002B4AD3589942DED305EB82
:20FE000045039A00274B13445B689942D6D89DF81830079A009204AA304600F0CBFBD1E749
:20FE20003446D1E70134E4B2052C25D804EB4402930005EBC501CA0013441B4A134499683B
:20FE40000029EFD004EB84029300C5EB0510C2001344164A1344D86800F088FB0128E1D18F
:20FE600004EB8407BB00C5EB0511CA0013440F4A134404221A74D5E70136F6B2002E9BD1CD
:20FE80003546064B03EBC6039B79002BC8D13446CAE70026F2E700BFA00200200402002036
:20FEA0003C010020B0FC010068FC0100C40000200A4638B9044B03EBC00303CB10605160BF
:20FEC0000120704700207047040200202DE9F04784B0844B1B78012B00F0018100F07AFB67
:20FEE00004B0BDE8F08705EB8502930006EB8601CA0013447C4A134405EB46027B4901EB8A
:20FF000002129168D86800F031FB01285CD00135EDB2012D00F2D1802F4605EB4603734A72
:20FF200002EB03131B79002BDDD0012B74D0022BEDD1AB002B444FEA8308B3003344DA0015
:20FF40009044694B984405EB4609684B03EB0919D9F80C10D8F80C0000F008FB8246D9F8E6
:20FF60000810D8F80C0000F001FBBAF1010F00F09B800128CBD1BA003A449300B200324423
:20FF80004FEAC2084344584A02EB0308012388F8103000F0E7FAC8F80C006421544B01FB9C
:20FFA000063198F8082007EB46031B014F48C058504B03EBC60302930523019300910023F5
:20FFC0004146FFF734FDA2E7AB002B444FEA8308B3003344DA009044434B9844012388F826
:20FFE000103000F0BFFAC8F80C006423404A03FB062398F8082005EB46073F013B49C8593A
:020000021000EC
:200000003C4901EBC601029105210191009300234146FFF70CFD7AE705EB8502930006EBC5
:200020008601CA001344304A134405EB46022F4901EB0212D168D86800F098FA01287FF400
:2000400066AF05EB8502930006EB8601CA0011461344254A13441B7C022B7FF458AFAA00E3
:200060002A4493000B44204A02EB0308012388F8103000F077FAC8F80C0064231C4A03FBD2
:20008000062398F8082005EB4601090117484058184901EBC6010291052101910093002332
:2000A0004146FFF7C4FC32E798F81030022B7FF460AF60E72046FFF747FD0134E4B2002C8D
:2000C0007FF40EAF26460C4B1B5D012BF5D1094B03EBC4039B79022BECD0254619E700242E
:2000E000EDE700BFA00200200C020020BCFC01003402002098020020A40200200A4638B9AD
:20010000044B03EBC00303CB10605160012070470020704798020020052801D900207047A9
:20012000F0B40B4D84002618B3000026F7003B442B441F685B680F604B6020448300F60002
:2001400033441D442B7A13700120F0BC704700BFC4000020052808D800EB80008200044B2F
:2001600013441B7C0B70012070470020704700BFC4000020052807D800EB80008200034B7D
:20018000134419740120704700207047C4000020052808D800EB80008200044B1344DB6805
:2001A0000B60012070470020704700BFC4000020F0B589B0054600F0D5F915BB074600245A
:2001C00001261BE00DF1130305AA07A9284600F0D1F90646C8230C4A03FB05239DF81320E7
:2001E0000A4901EBC50102910A21019100933B4605A90798FFF71BFC0134E4B20CB9012E7D
:20020000E0D009B0F0BD00BF3C01002004020020012801D900207047F0B50027064600EBA9
:20022000800084000B4B23441A723B460EE011F803E006EB8604A00007EB8705EC0020442D
:20024000044C204400F803E00133DBB29342EED30120F0BD0C020020012801D900207047E2
:2002600000EB80008200034B13441B7C0B700120704700BF0C020020012801D9002070473B
:2002800000EB80008200024B13441974012070470C020020194B9B79022B28D02DE9F04156
:2002A00084B000242CBB052801D9002022E017460E460546830003444FEA8308104B984415
:2002C000012488F8104000F04DF9C8F80C0028010C4B1858094B0293052301930A4B0093AA
:2002E00000233A463146FFF7A2FB204602E000207047002004B0BDE8F08100BF98020020CF
:200300000C020020BCFC010034020020F0B587B000230193029303930493059348BB064664
:200320000546174B03EBC0039B7913B10024012015E001201EE001AB114A02EBC50205214D
:200340006427104807FB0500FFF7C5FB9DF8103002AA0199304600F035F90134E4B25CB96E
:2003600001280BD1064B03EBC5039B79002BE2D100E0002007B0F0BD0120FBE70120F9E717
:20038000980200203402002018B9F0B40546002612E00020704700EB80029100C82202FBB9
:2003A0000411154A0A441A44002111710133DBB2072BF0D90136F6B2092E0ED82C463046DA
:2003C0000D4FB30033449900C82202FB0512B9180023BB500B730B61EAE7084B002203F8D6
:2003E000352003EBC5056A700A23AB70AA71AA800120F0BC704700BF3C01002004020020C3
:2004000018B9F0B40546002612E00020704700EB80029100642202FB0411154A0A441A448C
:20042000002111710133DBB2072BF0D90136F6B2042E0ED82C4630460D4FB300334499005F
:20044000642202FB0512B9180023BB500B730B61EAE7084B002203F8352003EBC5056A70F1
:200460000523AB70AA71AA800120F0BC704700BF3402002098020020F8B500240CB10024EF
:2004800054E02046FFF780FF274610E005EB85018A00C6EB0610C1000A4429490A44002139
:2004A000D1540133DBB2072BF0D90137FFB2052F10D826463D46BA003A4493002101091B56
:2004C000CA001A441E4B134400221A741A72DA602346E8E70134E4B2D0E705EB85018A0004
:2004E00006EB8600C1000A4416490A440021D1540133DBB2072BF0D90137FFB2012F10D8C6
:2005000026463D46BA003A449300A1002144CA001A440C4B134400221A741A72DA60234666
:20052000E8E70122084B1A551444E4B224B92046FFF766FF2746E1E70122044B1A70F8BD95
:20054000C40000200C020020A4020020A002002018B9034A1154012070470020704700BF10
:20056000A402002008B50BF01BFA08BD08B50BF023FA08BD08B5084611461A4609F070FA64
:20058000002008BD38B900EBC003D800084B0344DB6B8B4200D0704710B514460846029BC1
:2005A0000022214601F0D2FA00200CF061F810BD68FC010010B582B0049C009400F02AFD0C
:2005C00002B010BD08B5084611461A4609F05AFA002008BD704700000023072B2DD82DE981
:2005E000F04103E00133DBB2072B24D803EBC1021201124CA25A8242F4D103EBC10204EBB1
:200600000212927A012AEDD103EBC1040B4A02EB0412B2F80C800A4E5C00E21897004A0001
:2006200002EB010C4FEA4C1E774426F807803E4404223272D6E7BDE8F0817047ECFC0100FE
:20064000A80200207ABB9446072B2ED82DE9F04196461F4603EBC202154C04EB021292F861
:2006600002800022164602E000260132D2B207EBCE040F4D05EB0414E478A24209D208EB85
:2006800002048C42F0DA045DD500EDB2AC402643EBE703EBCC0305EB03131879C640D88806
:2006A0003040BDE8F081002070470020704700BFECFC0100002A40D12DE9F04316460A2B49
:2006C00039D815461C465A001A44930072011644B2001A44194B9F5A194B134493F802E09F
:2006E000DE7893F804C007FA0CF70EEB06030B7000211EE004EB4402930005EB45184FEA67
:20070000880213440E4A1344DA8802FA0CF2CB00DBB2DA40D2B20EEB010810F8089029EA42
:20072000020227FA03F3DBB2134300F808300131C9B2B142DED3BDE8F08370470803002040
:200740006CFD010029B970B50D4606460024214602E070470134E4B2072C19D8C1B904EB0D
:20076000C5031B010B4AD35AB342F3D104EB4402930005EB450042011344074A13441B7A86
:20078000022BE7D10221304600F0B4FA0121E1E770BD00BFECFC0100A802002002B170474A
:2007A0002DE9F04385B015460F46064600240294039404AA02F8094D02A900F0B6FA3046AF
:2007C00000F0A2FA804601E00134E4B2072C21D804EBC5031B01114AD35A9E42F4D1234686
:2007E0002A469DF8071002A8FFF72CFF0C4B61000A194FEA820E6A0002EB05094FEA491C6B
:20080000E64403EB0E0C23F80E00CCF804808CF80870D9E705B0BDE8F08300BFECFC010004
:20082000A802002018B970B50546002402E070470134E4B2072C21D804EBC503104A02EBFB
:2008400003139B7B012BF3D104EB4403990005EB4502530119440B4B1944204600F06AFA58
:200860000028E5D104EB4406B30005EB45014A011344044A134405221A72D9E770BD00BFD2
:20088000ECFC0100A802002020B92DE9F8430546002402E070470134E4B20A2C22D804EB89
:2008A0004402930005EB45118A00114613440E4A13449B7A012BEED1DFF8308063002344E1
:2008C0009F000F4438F80790494644EA052000F0BDFA28F807008145DDD03B464344022210
:2008E0001A72D8E7BDE8F8836CFD01000803002001B170472DE9F04784B00D460646002748
:200900000297039700F000FA8246304600F076FA81463C463846B84614E004A9002301F89A
:20092000093D23462A4602A8FFF7C4FE9DF80730984500D3434698460120B9F1010F1ED08A
:200940000134E4B20A2C26D8274604EB4402930005EB45118A001344164AD35A9E42EFD10F
:2009600004EB4402930005EB45118A001344124A13441B7A002BD0D0022BDED1CDE707EBF3
:200980004707BB0005EB45118A0013440A4A1344C3F804A0D4E710B904B0BDE8F087424641
:2009A00002A9304600F049FA0221304600F03DFAF2E700BF6CFD010008030020F8B5002227
:2009C00032B300253FE002EB8200234901440120C8540344DBB2042BF5D91346072B19D844
:2009E00003EBC2001D4901EB0011B1F808E01C495C00E0188500500087187E0135444F19C6
:200A000021F805E000267E603E720133DBB2E5E71346E0E70132D2B2D2E75C00E1188A0028
:200A200068014619B1000A440E4911440E890E498F188E5200267E603E720133DBB20A2B24
:200A4000EBD90135EDB20DB92B46F8E700F01CFA0122064B1A70F8BD8C030020ECFC010096
:200A6000A80200206CFD010008030020A50200202DE9F843234B1B78012B3FD000F002FAD7
:200A8000BDE8F88306EB86021F4B134413F80830012B24D039464846FFF754FE3A46294655
:200AA0004846FFF77BFE0134E4B2042C1ED83E46A04607EB87032344144A32F81390214669
:200AC000384600F0C9F805460128DBD00328D9D00428E8D139464846FFF77EFDE3E716466B
:200AE000094B1E44002306F80830D7E73846FFF799FE0137FFB21FB93C46D6E70027FAE716
:200B0000BDE8F883A50200208C030020DCFC010038B50E4B1B78012B16D000F0B3F938BDEA
:200B20002046FFF7B1FE254625B10134E4B2002CF6D038BD62192146054B33F81200FFF752
:200B4000D7FE0135EDB2EFE70024F0E7A5020020E8FC010007281BD810B40E4C42000244A6
:200B60009300002252011344E218E35A0B80137A012B03D0032B01D0012007E000EB400096
:200B80008200044B134402221A72012010BC704700207047A8020020072808D800EB4000FE
:200BA0008200044B13441B7A0B70012070470020704700BFA8020020C3B2000A1ED10A2B22
:200BC0001ED8F0B503EB4304A20000EB4015AC0022440D4CA25A8A4214D025465C00E2188B
:200BE0009600420102EB000E4FEA8E07BE463E44A953354402232B720120F0BD00207047F1
:200C0000002070470120F0BD08030020F0B4072919D905263046F0BC70470133DBB2042B4A
:200C2000F8D8002FF6D100EB80021A44084C34F8124001EBC0021201064DAA5CA242ECD196
:200C40001E460127E9E700231F460526E7E700BFDCFC0100ECFC010010B582B000238DF897
:200C600007308DF806109DF80630DBB2042B02D9052002B010BD04469DF8063000EB80021A
:200C800013440DF10701194A12F81300FFF762FA012801D00520ECE79DF80730042B21D83F
:200CA000DFE803F0220503111E000220E1E79DF8063003EB4303C4EB041003440C4A134481
:200CC00001205870D5E79DF8063003EB4303C4EB04101844064B1844012343700320C8E7FB
:200CE0000420C6E70520C4E70020C2E7DCFC010094030020042801D8022900D0704708B586
:200D0000C0B2FFF737FA08BD00B583B002A9002341F8043DC0B2FFF73BFA012801D000238B
:200D20000193019803B05DF804FB08B5C0B2FFF7F3F908BD70B582B004460D460E880146D8
:200D40000020FFF763FF04284FD800EB4002284B13445B7813B3072C19D8254B9B5C23B9D1
:200D6000244B23F82460012012E0042B05D8214B33F824302B8001200AE01F4B03EB041336
:200D80001B891C4A22F824302B80002000E00020184B03EB8404A07002B070BD02A900237A
:200DA00001F8013D2046FFF7F7FE9DF80730D3B1042B07D05A1ED2B2022A0CD9052B0AD03E
:200DC0000020E9E70C4B03EB04139A89094B23F824200120E0E7074B33F824202A8003EBB0
:200DE0008404A078D8E70120D6E70020D4E700BF94030020A4030020ECFC010000B583B0CD
:200E000000238DF807300A2804D99DF8070003B05DF804FB0DF10701C0B2FFF71DFA012893
:200E2000F3D000238DF80730EFE70A2800D9704708B5C0B2FFF720FA08BD0A2800D97047B2
:200E400008B5C0B2FFF7E4F908BD00000A2801D90020704738B5030AC2B20D4602EB4202F6
:200E6000940003EB43139A001444054B185BFFF7C5FF012801D0284638BD002038BD00BFFA
:200E80006CFD010070470000002038B37047154D03EB4302C0EB00110A44AC180021A954EE
:200EA0006170A1700133DBB2042BF0D903460EE003EBC0010C4A02EB011214890B4A22F84F
:200EC000214002EB8102012191700B44DBB2072BEED90130C0B210B130BC704730B4034615
:200EE000E2E700BF94030020ECFC0100A403002038B500230F4A137001210F4A11700AE031
:200F00000E4A5900C8188400151900201055686028720133DBB2052BF2D9002000F084FA5D
:200F2000002000F08FFA002000F084FA00F0E0F838BD00BF04C4FF1F03C4FF1FC40300205C
:200F40002DE9F0410024A0462746264603E098461E460134E4B2052C2BD8254604EB4403A2
:200F60009A00254B13444FF4A061586800F09BF830B104EB44039A001F4B134400221A7269
:200F800005EB45039A001C4B13441B7A002BE0D005EB45029100194A0A44127A02B117463C
:200FA00005EB4505AA0014498A5C002ACFD19846CFE7384600F038FA304600F043FA4046E3
:200FC00000F038FA00F0BAF80D4B1B78012B05D013B900220B4B1A70BDE8F08100F058F83D
:200FE00020B10122074B1A70BDE8F0810022054B1A70BDE8F08100BFC4030020F0FD010065
:2010000003C4FF1F04C4FF1F014B1878704700BF04C4FF1F2DE9F043002401E00134E4B2B4
:20102000052C26D804EB4406B500134E755D8542F4D104EB4405AE000F4D35446D688D4275
:20104000ECD1082BEAD192F801C00CF0010CDFF82C90660006EB04084FEA880E09EB0E08C2
:2010600009F80EC0079DC8F80450012688F80860D4E7BDE8F08300BFF0FD0100C403002073
:2010800008B500F0CDF908BD08B500F0C5F908BD10B500F0B7F9044608B9204610BD002025
:2010A000FEF7A8FBF9E708B50AF086FC012801D0002008BD012008BD08B50B4B1B784BB118
:2010C000052B07D0012B05D0022B03D0002000F039FA02E0012000F035FA00F054FA00F075
:2010E00053FA024B186008BD0F0400201804002008B500230A4A13700A4A13700A4A137045
:201100000A4A13700A4A137000F03EFA094B186000F03AFA084B186000F09EF908BD00BF33
:201120000F0400200D0400200E0400200C0400201C04002010040020140400202DE9F041F6
:2011400000F096F9074600F0A5F9054600F0A4F9064600F0ABF9044600F093F9A14B1B7838
:20116000052B00F23781DFE813F0060020004D007D00A900E30000F0C9F948B900F08AF929
:20118000002800F02C81042000F0DEF9BDE8F08100F0CCF9FFF790FF00F0F6F9924B18601B
:2011A0000122904B1A70BDE8F081904B1B78042B0FD81E218E4B186800F09EF9002800F0D6
:2011C0000E81FFF779FF894A137801331370BDE8F08140F22711844B186800F08DF9002890
:2011E00000F0FD8000F0D0F9824B186000F0CCF97D4B186000227D4B1A700222794B1A70A9
:20120000BDE8F0814FF42071794B186800F074F9D8B94FF4FA61774B186800F06DF9B8B90B
:201220004FF44861704B186800F066F9002800F0D68000F0A9F96C4B18606F4B1B7863B1A8
:201240000322684B1A70BDE8F081FFF735FFE0E700F09AF9674B1860E2E70422614B1A7053
:20126000BDE8F0814FF42071614B186800F044F998B94FF4FA615F4B186800F03DF978B9BB
:201280005E4B1B788BB95C4B1B78002B40F0A7800422544B1A70BDE8F081FFF70DFFE8E7DC
:2012A00000F072F9534B1860EAE700F06DF94E4B186002224B4B1A70BDE8F08180464F4BCB
:2012C0001B780BBB4C4B1B783BBB4D4B1B784BBB4FF4FA61474B186800F00EF900287ED047
:2012E000002F7CD1002D7AD1002E78D1B8F1000F75D1002C73D100F047F93B4B18600522C0
:20130000384B1A70BDE8F08100F03EF9364B18600222344B1A70BDE8F0810322314B1A701C
:20132000BDE8F08100F030F9324B1860BDE8F081314B1B78DBB9324B1B781BB915B90EB957
:20134000002C36D0002000F0FFF82D4B1B7803B924B3032000F0F8F800F0E8F800F014F9E6
:20136000214B186002221F4B1A70BDE8F081002000F0EAF8032000F0E7F800F0D7F8FFF7C2
:201380009BFE00F001F91B4B186000F0FDF8164B18600122134B1A70BDE8F08100F07AF8AB
:2013A00018B1042000F0D0F8D6E7012000F0CCF8D2E740F2DC510C4B186800F09DF870B161
:2013C00000F0AEF8002000F0BFF80022054B1A70BDE8F081002000F0B7F8FFF789FEBDE8BD
:2013E000F08100BF0F040020100400201C04002018040020140400200D0400200E0400203F
:201400000C040020034B1B780BB9012070470020704700BF0F04002008B500F0A5F808BD47
:2014200008B500F0AAF808BD014B1870704700BF0D04002008B5024B187000F07DF808BD61
:201440000C040020014B1870704700BF0E04002008B500F079F808BD002301E00133DBB238
:20146000072BFBD90022014B1A7070471D04002008B50CF067FF012801D0002008BD012057
:2014800008BD08B501F070FA012801D0002008BD012008BD0020704708B5FDF701FA0128FE
:2014A00001D0002008BD012008BD000030B583B000252C4601E00134E4B2052C0ED80DF120
:2014C00007012046FEF746FE0128F4D19DF80730013BDBB2022BEED80125ECE7054B1C7812
:2014E00004B92C4614B9204603B030BD0020FEF78BF9F8E71D04002008B50AF05DFA0128FA
:2015000001D0002008BD012008BD0000034B1B780BB1012070470020704700BF1E040020E2
:2015200008B503210020FEF745F908BD08B500210846FEF73FF908BD014B1870704700BF4A
:201540001D04002070470000042806D8054B1B7823B110B90022034B1A707047014B187084
:20156000704700BF1E04002008B500210846FEF7EFFF0020FEF744FF08BD08B50121002088
:20158000FEF7E6FF08BD704708B50AF009FA08BD034B002283F831201A6183F8302070473D
:2015A000F005002008B50A4601460120FEF772FE012801D0002008BD012008BD00B583B08F
:2015C0000022009201921D4B1B6903F00F018DF8001000E00A469A420BD2511C0729F9D8E9
:2015E0001648024492F8320002AA0A4402F8080CF0E7134A127D52B9072B12D80133072B33
:20160000FAD8002102AA1A4402F8081CF4E70B4B197E6846FFF7C6FF012808D1FFF7B8FFCF
:2016200005E008216846FFF7BDFF012802D003B05DF804FBFFF7ACFFF9E700BFF0050020E5
:20164000D805002010B582B00023009301931F4A1169C1F3032242F010028DF800208DF822
:2016600001100BE09A1C072A07D81849194491F8321002A8024402F8081C0133052BF1D9E3
:2016800008216846FFF78EFF012801D002B010BD0E4C06236362002384F8FA300122626180
:2016A00023622269063A0A4BA3FB0213D11A03EB51039B08A362C3EBC303D11AE1620AF061
:2016C0006FF96060052384F83030DFE7F00500202549922430B583B0002300930193574ADC
:2016E000536903F00F0343F020038DF80030116A936A994219D3514BD86A002859D100248B
:201700001CE01346062B12D85A1C4C49496A0B44072AF6D8C72BF4D848490B4493F83210E2
:2017200002AB134403F8081CEBE70023EAE708216846FFF737FF012818D00124A4B93F4BA0
:201740001A695B6A9A4266D03C4B9B69002B6DD03A4A116AB1FBF3F203FB1213002B5DD130
:201760000522364B83F8302003B030BD334C636901336361236A01332362636A0733636201
:201780000AF00EF960600024D8E71346834212D25A1C2A49496A0B44072AF6D8C72BF4D8FB
:2017A00026490B4493F8321002AB134403F8081CEBE70023EAE7224A147D54B9072B19D888
:2017C0000133072BFAD8002102AA1A4402F8081CF4E7411CC9B26846FFF7E4FE0128ADD1A8
:2017E000164CE26A636A134463620AF0D9F860600024A3E708216846FFF7D4FE012801D080
:2018000001249BE70D4DEA6A6B6A13446B620AF0C7F8686092E7FFF7BBFEA5E70AF0C0F893
:20182000064B1860032283F830209DE70AF0B8F8024B1860032283F8302095E7F00500207B
:20184000D805002010B53F4B93F83030052B6DD8DFE803F00316254334503A4B93F83130AC
:20186000012B6DD1374B1B69072B04D80122354B83F8302010BD0222324B83F8302010BD76
:201880004621304B58680AF097F8012802D0FFF795FE10BD06222B4B83F8302010BD46212F
:2018A000284B58680AF088F8012802D0FFF7CAFE10BD0622234B83F8302010BD9621214BA4
:2018C00058680AF079F8012802D0FFF703FF10BD06221C4B83F8302010BD1A4BD96901311D
:2018E00018680AF069F801282AD10422154B83F8302010BD9621134B58680AF05DF801287E
:201900000FD0104B93F8FA30012B19D10D4C002384F8FA300AF044F82060032384F83030E8
:2019200010BD0622074B83F8302010BD054B002283F831201A61D9680131D96083F8302098
:2019400010BD00BFF005002000B583B000F00F0040F030008DF800000C4B1A798DF801208A
:201960001B7A8DF8023000238DF803308DF804308DF805308DF806308DF80730082168467F
:20198000FFF710FE03B05DF804FB00BFD805002010B5104B00241C615C731C739C6008223B
:2019A0005A601C755C7509E0DC231A4600210A4803FB04000EF02EF80134E4B2012CF3D966
:2019C000FC22002105480EF025F80122014B1A7010BD00BFD805002020040020F005002085
:2019E000014B587B704700BFD805002038B5234B5B7B012B21D0002038BDDC2303FB0543AD
:201A00009B688B4203D9DC2303FB054399601C4BDC2202FB05F505F110041C4402341D447F
:201A2000AA682146FCF758FDAA68002120460DF0F1FFA86800232B740EE00023012B0AD86E
:201A40001D46DC220E4C02FB0342127C012AD4D00133DBB2F2E700200023012B09D8DC2244
:201A6000074902FB0312127C012A03D00133DBB2F3E700220AB9014B5A7338BDD8050020ED
:201A800020040020F8B5531EC72B01D90220F8BD0E4B93F831300BB10120F8BD14460E46BC
:201AA000054609F07DFF094F78602246314607F13200FCF711FD3C61012387F83130BD606E
:201AC000FFF7C0FEFFF7BEFE0020F8BDF005002008B5FFF7D7FF08BD134B1B7B13B3124B51
:201AE0005B7D012B06D001220F4B5A7300220E4B1A73704710B500240EE00C48DC2303FBDB
:201B000004F303F110010144C21892680231C058FFF7DEFF0134E4B2012CEED90022024B64
:201B20001A7310BD704700BFD80500202004002008B5054B1B78012B00D008BDFFF782FEBD
:201B4000FFF7CAFFF9E700BFD8050020012A00D970470029FCD02DE9F04114460D46DC2288
:201B6000994902FB0412127C72B92A78072B08D91309032B08D8DFE813F011003600710056
:201B8000E9000220FFF7E0FE9621904B186909F013FF012800F00481BDE8F0818B4B5B7DE6
:201BA000012B1AD0884BDC2202FB04F202F110001844861C294651F8017FC0F802708888D8
:201BC0008979B080B171297801F00F011344996001227E490A731A74D6E702F00F02691C85
:201BE000FFF776FFD0E7784FDC2202FB04F2B9180026CE602B781B0203F4706395F801E0EE
:201C000043EA0E038B604E744E60B8506F4B5B7D012B0AD0DC236C4A03FB04239B68C72BBC
:201C200006D90220FFF790FEAEE7684B5E73F1E7654BDC2202FB04F202F1100119442846BE
:201C400050F8026FC1F802608088C8801344DA680632DA600020FFF777FE95E7DC235A49AC
:201C600003FB04135B7C01335A4012F00F0F3DD1DC2303FB04139E68DB68F61A062E3AD8C9
:201C80000F464FF0DC0808FB04F808EB0300103008443246691C0230FCF71EFC4744FB6821
:201CA0003344FB60DC23484A03FB04235A7C013202F00F025A745A6801325A60434B5B68C2
:201CC00063B1DC21404801FB0401C8688968884204D2B2FBF3F103FB112313B3DC233A4A9D
:201CE00003FB04239A68DB689A421ED009F058FE364B186148E7344ADC2101FB04F10B447D
:201D0000103313449E1C284650F8017FC3F8027087888379B780B3715318DA680732DA6086
:201D2000C0E70020FFF710FED8E7C82A05D9DC23254A03FB0423C8229A600122234B1A73B4
:201D4000DC23214903FB04131A74CFE712F00F0213D11F4A012382F8FA306B789361AB789F
:201D6000D361A3F18002702A03D9FA3B052B3FF60BAF7F22164BDA6106E7012A06D0022AF8
:201D800009D00622124B83F83020FDE609F008FE0F4B5860F8E606220D4B83F83020F3E624
:201DA000DC23094A03FB04231B7C012B7FF4F4AE2B781B09022B7FF4EFAEDC2303FB0422AD
:201DC00000231374E8E600BF20040020D8050020F0050020014B93F831007047F0050020A2
:201DE000A0F18003702B07D9A0F1FA03052B05D9034B9860012070470020704700207047EC
:201E0000D8050020014B187A704700BFD805002038B504284CD800EB8003284AD35C3BB934
:201E20003F2923D0DB2923D9FA2923D80D4602E0642921D80D46044600200AF0B3FA43F6D1
:201E40009823984235D944F63823984233D81C4BB3FBF0F304EB8400184A125C72B93F2D93
:201E600027D0952D12D96A35EDB210E00D46E2E7DC25E0E7FA25DEE76425DCE703FB05F584
:201E8000104BA3FB0535C5F3471512E0002503FB05F50C4BA3FB05356D099635FA2D01D97B
:201EA000FA2506E0DB2D01D8DC2502E0EDB200E00025284638BD0025FBE700BFEC0600207A
:201EC00060E316001F85EB510023042B15D810B40C4C03EB8300221800219170D1701171DE
:201EE000094A32F8132022520133DBB2042BEFD90122064B1A7010BC70470122034B1A708A
:201F0000704700BFEC06002038FE01000507002038B5134B1B78012B20D038BD04EB840272
:201F2000104B1344D9782046FFF772FF05EB85050C4B1D440146687800F0CEFA0134E4B2F5
:201F4000042CEAD8254604EB8402064B13441B79002BE3D1034B13449978E4E70024EFE719
:201F600005070020EC0600200E4B1B78012B00D0704730B400231D4601E00133DBB2042B49
:201F80000DD865B903EB8302074CA25C8242F4D103EB8304044A224491700125EDE730BCE1
:201FA000E6E700BF05070020EC060020062812D8082910D830B4084D84002218D3002B44ED
:201FC000997000225A619A61DA611A622044C3001D446A6230BC704708070020062833D80A
:201FE00008B500EB8002D300184AD25A3423184903FB0013DB8A9A4213D983000344D900BD
:20200000124A0A44D3690133D3613422104902FB0012926A934200D208BD0321FFF7C6FF6D
:2020200008BD83000344D900084A0A445369013353613422064902FB0012126B9342EBD330
:202040000221FFF7B3FFE7E7704700BF080700205CFE0100062833D808B500EB8002D300B1
:20206000184AD25A3423184903FB00139B8A9A4213D283000344D900124A0A4493690133A6
:2020800093613422104902FB0012526A934200D208BD0421FFF78AFF08BD83000344D9005A
:2020A000084A0A445369013353613422064902FB0012D26A9342EBD30621FFF777FFE7E7F8
:2020C000704700BF080700205CFE010010B500240CE00021204600F079FA04EB8403DA00F1
:2020E0000E4B134400221A710134E4B2062C13D804EB8403DA00094B13449B78073BDBB2BE
:20210000012BE6D904EB8403DA00044B13445979204600F05BFAE7E710BD00BF08070020D8
:20212000062800D9704710B50446342202FB00F200EB8003D9001C4B0B441C49895898684A
:2021400000F062FA012803D02046FFF783FF10BD04EB8402D300144AD25A3423134903FB09
:202160000413DB899A421BD9A3002344D9000E4A0A44D3690133D36134220C4902FB041229
:2021800092699342E3D308212046FFF70FFF00F037FA04EB8404E200034B1344D86010BD02
:2021A0002046FFF757FF10BD080700205CFE01002DE9F041002414E104EB8403DA00954B86
:2021C00013441B79022B05D0012B0FD02046FFF705FF04E101212046FFF7E8FE04EB8405E6
:2021E000EA008C4B13440222DA70F8E000212046FFF7DCFE00F004FA864AA3001E19F100A1
:20220000114488600123CB702046FFF789FFE6E004EB8403DA007F4B13449B78073BDBB225
:20222000012B17D904EB8403DA007A4B13441B79022B17D013BB00212046FFF7B7FE04EB7F
:202240008405EA00734B13440022DA702046FFF7C5FEC4E004EB8405EA006E4B1344032230
:20226000DA70BCE001212046FFF7A0FE04EB8405EA00684B13440222DA70B0E02046FFF796
:202280004FFFACE004EB8403DA00624B13441B79012B11D0002B40F0A28000212046FFF775
:2022A00085FE04EB8405EA005A4B13440022DA702046FFF793FE92E000212046FFF776FE81
:2022C00000F09EF9534AA3001E19F100114488600123CB702046FFF723FF80E034234E4AA6
:2022E00003FB04231B7B032B0AD8DFE803F0023C464E04EB8403DA00464B13440322DA70E0
:202300003422454B02FB053205EB8503D900414B0B449168D86800F077F901285FD105EB95
:202320008503DA003B4B13441B7C012B57D1394B13441B79B3B3022B34D0012B4FD1DFF84A
:20234000D480AE007319DF004744002139742046FFF72CFE00F054F9B8600123FB702046E7
:20236000FFF7DEFE3BE0204600F052F904EB8403DA00284B13441874C2E704EB8403DA0030
:20238000244B134401221A74BAE704EB8403DA00204B13441B79002BB2D11E4B13440122EE
:2023A0001A74ADE71B4FAE007219D3003B444FF0000883F8108041462046FFF7F7FD354464
:2023C000EB001F4487F803802046FFF707FE06E004EB8403DA000F4B13440222DA700134C2
:2023E000E4B2062C14D8254604EB8403DA00094B1344DB78032BEBD801A252F823F000BFC0
:20240000B92101001122010085220100DD220100BDE8F081080700205CFE010010B500247C
:202420000AE004EB8403DA00054B13449978204600F004F90134E4B2062CF2D910BD00BF03
:202440000807002010B500241BE01048A3002344DA008318002181529970D97019715971F8
:202460009960D960197459619961D961196259623423074A03FB0423587900F0A7F8013417
:20248000E4B2062CE1D900F0D8F810BD080700205CFE010070B5002412E0204600F086F894
:2024A0000C4DA6003219D300EA18E8525179204600F04CF82644F3001D4428710134E4B23D
:2024C000062CEAD9FFF774FEFFF700FEFFF7A6FF70BD00BF08070020062807D800EB80007D
:2024E000C200034B1344597101207047002070470807002001230B70062808D800EB8000B5
:20250000C200044B13449B780B70012070470020704700BF0807002006280ED800EB8003A6
:20252000DA00094B13445B69022B08D9064B1344DB78012B05D0002070470020704700207A
:2025400070470120704700BF08070020062801D90220704778B93F291CD0952901D80220DF
:2025600070473422104B02FB0030837996398B4212D90220704789B134220B4B02FB003057
:2025800083791BB901290BD002207047994209D20220704700207047012070470020704778
:2025A00001207047012070475CFE0100062801D90020704708B53422034B02FB003000792A
:2025C00000F0E6FD08BD00BF5CFE0100062814D808B53422094B02FB0030407906280BD8D1
:2025E00040B919B93F2100F0D9F908BD002000F0D5F908BD00F0D2F908BD70475CFE0100F4
:2026000008B509F0CDF908BD08B509F0D5F908BD38B50446FCF750F90546FCF747F9062C0D
:2026200005D8012D05D0012805D0002038BD002038BD012038BD012038BD704706283CD86D
:2026400008293AD810B50239062935D8DFE801F02D250F0F1A040400184B00EB40001C18EF
:20266000185C08F0B9FD607808F0A4FD10BD134B00EB40001C18185C08F09CFD607808F068
:20268000ABFD10BD0D4B00EB40001C18185C08F0A3FD607808F0A0FD10BD00EB4000074B4B
:2026A0001844807808F086FD10BD00EB4000034B1844807808F090FD10BD704744FE010065
:2026C00000B1704708B5054900EB8003CA18D27882F00102C95C00F0BBF808BDC8FF010023
:2026E00000B1704708B5044900EB8003CA18D278C95C00F0ADF808BDC8FF0100002303B1B0
:20270000704710B4074C03EB83002118002222544A708A70CA700A710133DBB2002BF1D093
:2027200010BC70472008002070B5002404B170BD04EB84013E4A0A4412793E4B0B441B7962
:202740009A4268D20B463A49CB5C012B0BD02046FFF7C6FF04EB8405354B1D4400236B70E9
:202760000134E4B2E2E704EB8401314B0B4401321A715B78DBB104EB84022D4B13449B7812
:20278000012B1FD004EB8401294A0A44D278294B0B449B789A4234D32046FFF791FF04EB0B
:2027A0008405234B1D440123EB70AB70D8E70D461F4B1D4401266E702046FFF781FFEE700B
:2027C000AE70CDE711461A4A0A44D278194B0B445B789A420BD32046FFF782FF04EB84053F
:2027E000134B1D440123EB700023AB70B8E704EB84050F4B1D440132EA702046FFF760FF43
:20280000AEE704EB84050A4B1D440132EA702046FFF766FFA4E72046FFF762FF044804EB24
:2028200084014218002353704354937098E700BF20080020C8FF010030B9044A00EB800346
:20284000D018D15400230371704700BF2008002008B9342900D9704708B50846114606F010
:2028600037FC08BD0022094B1A700BE0084B002123F8321003EBC203598099809971D971AB
:202880000132D2B2062AF1D9704700BF05C4FF1F28080020284B1B7813B970B500241DE0C2
:2028A0007047264D05EBC4039988204600F024F925F8340024E0224B03EB86039B7883B321
:2028C0001E4D35F83610B1FA81F14909204600F0B3F805EBC606F0710134E4B2062C2AD88E
:2028E0002646164B03EBC4039B79012BD9D0134D05EBC4035988204600F0FEF825F83400D8
:202900000F4B13F82630002BD5D0012BE4D10B4D35F83610204600F0A1F805EBC606F07174
:20292000DAE7064D35F83610204600F085F805EBC606F071D0E770BD05C4FF1F2808002005
:20294000D0FF0100064B1B782BB9062805D8054B33F830007047002070470020704700BF05
:2029600005C4FF1F280800200023184601E00133DBB2062B0DD8074A02EB8302D278002AB0
:20298000F5D0054A02EBC302D279012AEFD11046EDE77047D0FF0100280800200D4B1B784F
:2029A000B3B9062814D80C4B13F8203063B929B90A4B03EBC000002343807047074B03EB01
:2029C000C000012343807047044B03EBC0004180704700BF05C4FF1FD0FF0100280800205E
:2029E000062803D8024B03EBC0008180704700BF28080020062804D8024B03EBC0000123E3
:202A00008371704728080020062804D8024B03EBC00000238371704728080020002306E08F
:202A2000044A02EBC302002191710133DBB2062BF6D970472808002008B5074B03EB80002E
:202A4000407821B1642106F049FE012008BD06F045FE002008BD00BFD0FF010010B50C4680
:202A6000244B03EB80035B7868B1062840D84A1E92B2442A2ED9632932D8184606F02EFE0D
:202A8000A4BB002010BDDB2901D83F290DD13F2C16D0A4F1960189B2184606F01FFE00217D
:202AA0000846FFF7C9FE012010BD963989B2184606F014FE00210846FFF7BEFE012010BD9E
:202AC0000021184606F00AFE01210020FFF7B4FE002010BD4621184606F000FE012010BDFB
:202AE0006421184606F0FAFD012010BD012010BD012010BDD0FF010030B583B005460C46B7
:202B000002A9002301F8013D012009F035FC062D1CD8DFE805F0040C0C0C0C1414009DF891
:202B20000730042B14D0022B14D020460CE09DF80730042B10D0022B10D0204604E09DF821
:202B40000730022B0CD0204603B030BD2046FBE73F20F9E73F20F7E70020F5E70020F3E775
:202B60000020F1E730B400EBC0035A00104B13449B79013300EB800251000E4A0A44527948
:202B8000934206D900EBC0035A00094B134400229A71074CC20011184B00234499791D89F9
:202BA0001044084424F810500131997130BC704760080020ECFF010070B5044600EB8003C9
:202BC0005A00384B13441B79013B042B60D8DFE803F00316283A4C00334EC5002B185A0026
:202BE000324400EB80014B002E4919449389497900F04EFC2C4463001E44B08170BD2A4EB1
:202C0000C5002B185A0000EB80035900254B0B443244597900F042FC2C4463001E44B081F0
:202C200070BD214EC5002B185A0000EB800359001C4B0B443244597900F032FC2C446300E0
:202C40001E44B08170BD184EC5002B185A0000EB80035900134B0B443244597900F022FC22
:202C60002C4463001E44B08170BD0F4EC5002B185A00324400EB80014B000A491944938909
:202C8000497900F011FC2C4463001E44B08170BD054AC300181841000846114409890244E4
:202CA000918170BDECFF010060080020F8B5002654E0A30023445A00334F174479782046C2
:202CC00000F0D4FA00F0010004EBC4035A002F4B13441881FB78012B30D02046FFF742FF8F
:202CE0002046FFF769FF0134E4B20D2C34D804EB84035A00244B13449B789E42F3D104EBC4
:202D000084025300204AD35C032BD2D0042BEAD104EB84035A001C4B13445978204600F0D2
:202D2000AFFA04EBC4056A00184B134418812046FFF718FF2046FFF73FFFD4E738B904EBCD
:202D4000C4056A00114B134401221A81C5E70F4B134400221A81C0E70136F6B2032E0ED818
:202D6000304600F082FA304600F088FB04460021204600F087FB0028F9D00024B5E7002074
:202D800000F073FAF8BD00BFECFF01006008002070B500241BE0A30023445A00304E16446E
:202DA0007178204600F062FA00F0010004EBC4035A002C4B13441881F378012B2AD0204619
:202DC000FFF7D0FE2046FFF7F7FE0134E4B20D2C44D804EB84025300214AD35C012B27D039
:202DE000002BD8D0022BF0D104EB84035A001C4B13445978204600F03FFB04EBC4056A0001
:202E0000184B134418812046FFF7ACFE2046FFF7D3FEDAE738B904EBC4056A00114B1344A5
:202E200001221A81CBE70F4B134400221A81C6E704EB84035A000A4B13445978204600F064
:202E40001FFA04EBC4035A00064B134418812046FFF788FE2046FFF7AFFEB6E770BD00BF94
:202E6000ECFF01006008002030B40024494B1C703DE003EB83025100474A0A44D18803EBAF
:202E8000C3020244454B23F81210431CD8B2234604EB84025100404A0A445279904215D2E6
:202EA00004EB84014A003C498A5C002AE1D103EB83025100384A0A44D28802F0010203EB3C
:202EC000C3030344354921F81320DEE7334DE00001194A002A44002191711181518191818B
:202EE000D18103445A00154429740134E4B20D2C01D80020CBE70023294A1370184622E0C1
:202F0000254921444979264C2478A14204D9244C2170002423490C7002EB820461001E4C03
:202F2000615C022902D801251F4C25700339C9B2012913D801241D490C700FE001211C4A5F
:202F400011700133DBB20D2B21D81A4603EB83014C0011492144097A0129D1D002EB820262
:202F600051000D4A0A445279904202D211490B701046104A127802EB82025100064A0A447B
:202F80005279032ADAD80021094A1170D9E730BC704700BF5C090020ECFF01006008002077
:202FA000610900205F0900205D0900205E09002006C4FF1F600900202D4B1B78002B56D124
:202FC00070B52C4A1378013313702B4B1B787BB12A4B1B78012B0BD0274B1B785BB1284B4C
:202FE0001B78012B07D0244B1B783BB100233BE0FFF75CFEF0E7FFF7CBFEF4E700F090FAD4
:2030000000240FE01F4EE5002A19530033449A895989204600F088FA25446B001E4470813A
:203020000134E4B20D2C12D804EB84035A00164B13445B7A012BE5D0124AE30018194100B3
:2030400011448889234459000A445081E8E770BD0C49DA00D4186000084484891A445000AD
:2030600001444C810133DBB20D2BF1D970BD704706C4FF1F5F0900205C0900205E0900201B
:203080005D09002060080020ECFF01000022014B1A7070475C09002000B589B000230CE005
:2030A00003EBC30251000C4A0A44518908AA02EB430222F81C1C0133DBB20D2BF0D90E2167
:2030C00001A800F059FA0122044B1A700022044B1A7009B05DF804FB600800205C090020F3
:2030E0005F090020034628B1154A1178154A1278914223D310B513B90022114B1A7000F003
:2031000045FA04460120002301E00133DBB20D2B13D803EB830251000B4A0A44127A012AFF
:20312000F3D103EBC3025100084A0A44518934F813209142E9D00220E7E710BD00207047CE
:203140005F09002061090020ECFF0100600800200D4B1B78A3B90D2814D800EBC0035A0079
:203160000A4B13441B7C012B06D000EBC0004200064B134418897047044B1344D88970475F
:20318000002070470020704706C4FF1F600800200D4B1B78A3B90D2814D800EBC0035A00A1
:2031A0000A4B13441B7C012B06D000EBC0004200064B134458897047044B1344D8897047DF
:2031C000002070470020704706C4FF1F600800200D2805D800EBC0004200024B1344D981D4
:2031E000704700BF600800200D2806D800EBC0004200024B134401221A747047600800203D
:203200000D2806D800EBC0004200024B134400221A74704760080020002308E003EBC3025D
:203220005100044A0A44002111740133DBB20D2BF4D97047600800200538062805D8DFE8E7
:2032400000F01206080A0C0E1000FF207047062070470520704704207047032070470120C5
:20326000704702207047002070477047342901D90020704708B5084605F046FF80B208BDE6
:2032800070B582B00E460023ADF80630431F082B00F2EC80DFE803F0B72929292929290922
:2032A00005001924204602B070BD042904D90024012C0ED00024F5E76E2004F02DFD0DF1A4
:2032C0000601304605F0B6FB04466E2004F018FDEEE7BDF8063046F6537404FB03F4C4F37A
:2032E0000F3404F52F74A4B2DCE70446FFF7A4FF0546072E09D9BDF8063040F22E6404FBE3
:2033000003F4E40AA0B2002311E0304600F032FAADF80600052CEED1052000F02BFABDF846
:2033200006300344ADF80630E5E70133DBB2042B18D803EB430251004D4A0A445289904273
:20334000F3D34B4A0A4492899042EED2484A0A44D289A4B202FB04F404EB841204EB4204D7
:20336000640C00E00024FF2D9CD0002B9AD10CF0EBFA012896D105F12C033E4A02EB43035A
:203380001B7A002B8ED005F12C0302EB4303DB79002B87D0134692F85E20D2B293F85D30E4
:2033A000DBB29A42BFF47EAF05F12C02314B03EB42031B7A9C420DD82E4A92F85E3003FB0B
:2033C00004F42C3502EB4502137ADBB2B4FBF3F4A4B267E7274A05F12C0302EB4303197AB0
:2033E000611A92F85D4092F85E00241A04FB01F4D9791B7ACB1AB4FBF3F492F85E3013FA8A
:2034000084F4A4B24EE7084600F0B4F9ADF80600052000F0AFF9BDF80630184480B240F2AB
:203420002E6404FB00F0C40AA0B2002301E00133DBB2042B18D803EB430251000C4A0A44DF
:2034400052899042F3D30A4A0A4492899042EED2074B0B44DB89A4B203FB04F404EB8413D3
:2034600004EB4304640C1DE700241BE7002419E77800020000F803000020704708B508F057
:2034800085FA08BD08B589B280B208F0A1FA08BD08B510461A460BF01DFD08BD0020704742
:2034A000002070470020704730B583B000200090ADF804001C46B3B903461EE0012502A808
:2034C00000EB430020F8085C0133DBB28B4221D232F813000E28F1D8002502A800EB430088
:2034E00020F8085CF0E70023F0E7002502A800EB430020F8085C0133DBB28B420AD232F872
:2035000013001428F1D9012502A800EB430020F8085CF0E7224668460BF0DCFC03B030BDB8
:2035200008B508F003FE08BD70B582B004460E461546002002A901F8010D08F01DFF0128B1
:2035400007D004EB840462000A4B1344D88802B070BD9DF80730042B03D0032B08D028468E
:20356000F5E704EB84046200024B1344D888EEE73046ECE7ECFF010008B54A0001460248F0
:20358000FAF7AAFF08BD00BF64090020004870476409002008B503280DD8DFE800F002135B
:2035A0002333204B93F85100342805D91D4B93F85200342803D908BD05F060FDF6E705F0CE
:2035C0005DFD08BD174B93F85100342807D9154B93F852003428EED805F050FD08BD05F0F7
:2035E00023FDF4E70F4B93F85100342807D90D4B93F852003428DED805F016FD08BD05F055
:203600003DFDF4E7074B93F85100342807D9054B93F852003428CED805F006FDCBE705F05D
:2036200003FDF4E780090020072812D808B500EB80035A00094B13445B7863B9074B134425
:203640009878342801D9002008BD05F05DFD80B208BD00207047002008BD00BF80090020D5
:2036600000B583B00023ADF80630072815D800EB80035A000E4B13445B78012B01D00020E0
:203680000CE00B4B13449878042801D9002005E00DF1060105F0CEF900E0002010B90023C9
:2036A000ADF80630BDF8060003B05DF804FB00BF8009002008B56E2004F02EFB08BD08B51B
:2036C0006E2004F01DFB08BD294B93F853301BB92DE9F041002415E07047254FA6003219B9
:2036E00053003B44187900F001082046FFF79CFF00F0010080EA080035446B001F44388114
:203700000134E4B2072C1ED82546194A04EB84014B001344D97892F854309942F0D104EBE7
:2037200084035A00124B13445B78002BD5D0012BE6D12046FFF794FF04EB84056A000C4B46
:2037400013441881DCE70A4A92F854300133DBB282F85430012B03D90022054B83F854202C
:20376000034B93F85400FFF715FFBDE8F08100BF8009002010B5114B93F853306BB900231E
:20378000072B17D81C4603EB83014A000B498A5C824204D00133DBB2F2E700240BE0FFF779
:2037A00089FF04EB84046200044B13441C89FFF786FF00E00024204610BD00BF8009002043
:2037C00008B50020024B83F85400FFF7E3FE08BD8009002038B5204A002382F853301F49CC
:2037E00008888978A2F8500082F852100BE01A499A00D41860000844C4881A4450000144B3
:203800000C810133DBB2072B1AD8134C9A001A4451006018124A02EBC3021568526865501C
:2038200042604278002AE2D121469A00D418600004460844C08800F0010021440881E0E77E
:20384000FFF7BEFF044B93F85000342800D938BD05F0EAFBFBE700BF80090020E00002005B
:20386000A00002000346284A92F88820002A46D0032846D800EB00125100234A0A44127C99
:20388000022A14D0032A19D00101014448001E4A0244908B518B084482B2CAB903EB0313C7
:2038A0005A00194B1344002083F821007047164B0B44012283F821200020704700EB00131C
:2038C0005A00114B1344012283F82120642070474FF47A7000FB01F0B0FBF2F080B20530B4
:2038E00080B20A4AA2FB0020C0F3C70003EB03135A00054B1344012283F821207047002050
:2039000070470020704700BFD8090020CDCCCCCC03461A4A92F888205AB303282BD801010C
:2039200001444800154A0244908B528B104480B2B0B14900114A0A44527862B94FF47A7270
:20394000B2FBF0F003EB03135A000C4B1344012283F8212070470A4AB2FBF0F080B2F1E74D
:2039600003EB03135A00054B1344002283F821207047002070470020704700BFD80900203F
:2039800040420F00032827D800EB00135A00174B13445B7883B100EB00135A00134B134447
:2039A0009B884FF6E852934217D800EB001041000E4A0A44D381704710B40C49020114186C
:2039C00063000B449B880A4CA4FB03439B09104442001144CB8110BC704700EB001042003C
:2039E000024B13444FF6E852DA817047D8090020D34D621003280FD810B4084902011418A9
:203A000063000B4400249C83DC895C8310444300194403230B7410BC704700BFD809002091
:203A200003280FD810B408490201141863000B4400245C83DC899C831044430019440223DE
:203A40000B7410BC704700BFD809002010B500EB00135A00124B13441B7C13B1012B10D06C
:203A600010BD0F4A03011C18610011448C89034459000A44D3899C4200D810BDFFF7D0FF8B
:203A800010BD074A03011C18610011444C89034459000A44D3899C42EFD9FFF7ABFFECE7E2
:203AA000D809002008B53C2004F036F93D2004F033F908BD70B50446030103445A002F4DF7
:203AC0001544A87805F020FB2B7C032B37D8DFE803F0021B344507F059FF04EB04135A007A
:203AE000264B13441B89C01A0CD480B204EB04135A00224B1344DB89984220D32046FFF7BD
:203B00008FFF70BD80B2F1E707F040FF04EB04135A001A4B1344DB88C01A0CD480B204EB50
:203B200004135A00154B1344DB89984207D32046FFF760FF70BD80B2F1E7012800D070BD2D
:203B40000E4E25012A195300334401221A7407F01DFF2C4463001E44F08070BD0028EED159
:203B6000064E25012A195300334400221A7407F00DFF2C4463001E443081E0E7D80900205D
:203B800008B5094B93F8883053B1032808D800EB00135A00044B13445B7813B1FFF78AFFAE
:203BA00008BDFFF753FF08BDD809002008B53C2004F0A6F83D2004F0A3F808BD70B51B4B4B
:203BC000012283F88820002483F8894083F88A4028E01649200103195D004A1904EB440358
:203BE0005E00134B33441E684E519B889380002382F82130D3801381538193815382083568
:203C00000D44AB81D382061975002E4610350D442B811374538331448B832046FFF7B2FE9C
:203C20000134E4B2032CD4D970BD00BFD8090020E4000200194B93F8883003B9704710B52B
:203C4000FFF730FF00240AE02046FFF761FE04EB04135A00114B1344D8830134E4B2032C0E
:203C600018D82046FFF78CFF2046FFF7FBFD0B4A04EB04114B00134483F8200092F8893040
:203C8000002BE1D104EB04135A00044B13440022DA83E2E7FFF78AFF10BD00BFD8090020ED
:203CA00030B4104B93F888501DB100231C46184606E0002030BC70472C4601200133DBB2B4
:203CC000032BF7D8002CF5D103EB03125100054A0A44127C012AEFD0032AEFD12C4601200C
:203CE000ECE700BFD80900201F4B204903E013F8012B01F8012B1E4A9342F8D11D4B1E494A
:203D000003E013F8012B01F8012B1C4A9342F8D11B4B02E0002203F8012B1A4A9342F9D1CC
:203D2000194B1A4903E013F8012B01F8012B184A9342F8D1174B184A9A4210D0002306E0F4
:203D4000144A52F82310144A42F823100133134AB3EB920FF4D3124B0F4A1A607047104BE4
:203D60000C4A1A60704700BFCC14020000C4FF1FE4230200E423020018D3FF1F20240200D8
:203D8000000000204020002020240200000000202024020000E0000000C0FF1F0004000015
:203DA00008ED00E0054B064A5A605A6842F220121A604FF6FF729A60704700BF00200540A7
:203DC00020C528D94FF0E021D1F80C2D92B2024B1343C1F80C3D70470400FA05002837D0E9
:203DE00070B404464368002B31D0002108E000221343184A32F81000174A42F82030013144
:203E00002368994223D2626801EB8103D05C114A32F81050104850F8252022F0804240F80B
:203E200025206068C218C05C557893781679D2781B0603F0E063D20002F00802134306F05D
:203E400007021343002DD2D04FF08042D0E770BC704700BF3C0102000050064030B40378A6
:203E6000ABB144788178C278554B5B6823F47F63002C00F086804FF4006423430901C9B2E7
:203E80000B43120202F4E06213434D4A53600379CBB1057AC47981794279494B1B6923F054
:203EA0003F03002D6FD001252B43002C6DD002242343890001F00C010B43120102F03002BF
:203EC00013433F4A1361037F002B34D0427F3C4B1B6C23F00103002A59D001221343384AAA
:203EE0001364817F136C23F00203002951D002221343334A1364C17F136C23F004030029FA
:203F000049D0042213432E4A136490F82010136C23F00803002940D008221343284A136426
:203F200090F82110136C23F01003002937D010221343234A1364037B002B3ED190F82230F5
:203F4000EBB11F4B9A6E00249C6690F824105A6822F48052090301F480510A435A609C66EC
:203F600090F823305BB190F8253090F826205B0003F00E0343F080531343114A936630BCB4
:203F80007047002479E700258EE7002490E70022A4E70022ACE70022B4E70022BDE70022AA
:203FA000C6E79A1C00EB82029168064A42F823100133DBB2022BF4D9C0E70023FAE700BF54
:203FC00000800440481B00200378B3B143780D498A7802F07F0283F00103DB01DBB21343FF
:203FE0008B7090F90230002B08DB06490A7902F0E00203F01F0313430B71704720335BB259
:20400000F3E700BF00D0074010B40123C37000220271437182710370437083708373037314
:204020004273C2710372437280F83030C26243773A49016102750277437582750224C475D5
:204040000376437680F8283080F8202080F8272080F821200C2180F8221080F8232080F824
:20406000243080F8253080F83530032180F8341080F8433080F8391080F8382080F8373007
:2040800080F8363080F83D4080F83C3080F83B2080F83A10062480F8414080F8402080F861
:2040A0003F3080F83E101E4901671D21C16680F8443080F8452080F8462080F8472080F899
:2040C000483080F84C3080F84B3080F84A2080F8492080F8603080F8613080F8623080F82B
:2040E000633080F8643080F8653080F86B3080F8503042658265C26580F8663080F8673037
:2041000080F8682080F8692080F86A2080F8743080F8753080F8762010BC704700127A0046
:20412000B0C5FF1F242801D804207047332813D0382813D03A2813D03F2813D04A2813D087
:204140000B4B33F810200B4B53F8223013F0804F0CD14FF48070704704207047042070476C
:20416000042070470420704704207047002070473C01020000500640084B5B69DBB2042B2F
:2041800007D0802B03D0012B05D00420704703207047022070470120704700BF00E007407D
:2041A000054BD3F8003113F0807F02D0034B186870470020704700BF00400640401B0020C3
:2041C00030B585B00B4600293DD0434AD2F8002112F0007F4DD1404AD2F8001121F40001AC
:2041E000C2F800114FF08061C2F8001100253B4A156000286DD0002D6BD11A7A597A02F0C3
:204200000702090201F4E0610A43334CC4F80421DA7998795979120102F03002C00000F08A
:2042200008000243890001F004010A43C4F808211A79012A2BD0F2B1022A34D01A68274B00
:204240001A60274C3EE000238DF804308DF80C3001228DF808208DF809208DF805208DF809
:20426000063002238DF8073004AB1E4A43F8102DABE70225BDE71A7B3AB14FF4000242F044
:2042800001021549C1F80021D8E70022F7E71A7B3AB14FF4000242F001120F49C1F80021E8
:2042A000CCE70022F7E71A7B4AB14FF4000242F4403242F001020849C1F80021BEE70022A7
:2042C000F5E7013CFFF76CFF08B9002CF9D104B90325284605B030BD00400640401B0020B7
:2042E00088E7300000127A00084BD3F8003213F0807F08D0054BD3F8080210F0010001D072
:204300000348704770470020704700BF0040064000127A0030B583B00B46002934D02C4A30
:20432000D2F8002212F0007F3ED1294AD2F8001221F40001C2F800120025C2F80052002877
:2043400042D0002D40D15A78997802F00702090201F4E0610A431E49C1F804221A7802F0D7
:204360000102C1F80822187959799A79F0B10323F1B104210B43EAB14FF400021343144A71
:20438000C2F80032642418E000238DF8043001228DF805208DF806308DF801208DF8022000
:2043A00002AB03F8082DBAE70225C8E70123DFE70021DFE70022E1E7013CFFF795FF08B966
:2043C000002CF9D104B90325284603B030BD00BF00400640064BD3F8003313F0807F04D08A
:2043E000034BD3F80833034870470020704700BF00400640006CDC0230B583B00B4691B354
:20440000284AD2F8002312F0007F3AD1254AD2F8001321F40001C2F800134FF08061C2F8A8
:204420000013002500283AD0002D38D15A78997802F00702090201F4E0610A431949C1F855
:2044400004231A7802F00302C1F8082359799A79C9B10123CAB14FF400021343114AC2F81A
:204460000033142414E001238DF8053000228DF806208DF801308DF8023002AB03F8082DE8
:20448000BEE70225CEE70923E4E70022E5E7013CFFF7A0FF08B9002CF9D104B903252846DA
:2044A00003B030BD0040064008B50F4BD3F8003613F0807F02D10023184608BDFFF770FE3F
:2044C00003460028F8D00849D1F80826C2F302220132B0FBF2F3D1F80826C2F3044210328B
:2044E00002FB03F35B08E7E70040064030B585B00C46B1B13D4BD3F8003613F0007F23D145
:204500003A4BD3F8002622F40002C3F800264FF08062C3F80026002500B1BDB1284605B0C3
:2045200030BD00238DF804308DF80B3001228DF808208DF809208DF8053007228DF80620E6
:204540008DF8073001ACD5E70225E5E7FFF728FE2379627903F00703120202F4E062134311
:204560002249C1F804366378A2781B0203F4E063120402F4F8121343C1F808362378012B67
:2045800016D04BB1022B1FD04FF47A74FFF78CFF40BB3CB3013CF9E7E3793BB14FF40003D6
:2045A00043F00103114AC2F80036EDE70023F7E7E3793BB14FF4000343F001130B4AC2F8C0
:2045C0000036E1E70023F7E7E3794BB14FF4000343F4403343F00103044AC2F80036D3E765
:2045E0000023F5E7002C99D1032597E70040064008B50138052810D8DFE800F00306090F17
:204600000F0CFFF7CDFD08BDFFF76EFE08BDFFF7E1FE08BDFFF748FF08BD002008BD000052
:204620002DE9F04180460D468C7801344B7803FB04470B7803FB0446C878FFF7D9FF0009F3
:20464000B8F1020F3ED0B8F1030F6ED0B8F1010F02D00020BDE8F081EA7802EB42018B00BB
:204660005949CB581B0903FB04F4A04200F2908002EB42039900544B0B445B681B0903FBD9
:2046800007F3984200F287804F4B0B449B681B0903FB06F3984200F28180A87869782C78D4
:2046A000130603F07063020402F4702213430A01D2B2134304F00F021343444A5361002095
:2046C000BDE8F081EA7802EB42018B004049CB581B0903FB04F4A04263D802EB42039900F9
:2046E0003B4B0B445B681B0903FB07F398425BD8374B0B449B681B0903FB06F3984256D802
:20470000A87869782C78130603F07063020402F4702213430A01D2B2134304F00F021343F1
:204720002A4A93610020BDE8F081EA7802EB42018B002849CB581B0903FB04F4A04239D81D
:2047400002EB42039900234B0B445B681B0903FB07F3984231D81F4B0B449B681B0903FB31
:2047600006F398422CD8A87869782C78130603F07063020402F4702213430A01D2B2134315
:2047800004F00F021343114AD3610020BDE8F0810120BDE8F0810120BDE8F0810120BDE8C5
:2047A000F0810120BDE8F0810120BDE8F0810120BDE8F0810120BDE8F0810120BDE8F08175
:2047C0000120BDE8F08100BF28020200004006407C020200D401020038B50446FFF7CCFCE5
:2047E0002146FFF71DFF054668B941F28832013A064B1B69C3F30363E178994201D0002A8C
:20480000F5D102B90325284638BD00BF00400640124B1B69C3F30363032B1DD000B583B047
:20482000FFF7D8FD20B1002038B103B05DF804FB00210120FFF7E0FDF6E703238DF80730F8
:2048400000228DF8062001228DF8052002A800F8043DFFF7C1FFE8E70020704700400640F9
:2048600070B582B004460146C078FFF753FD054648B1FFF781FC02282FD0032830D001289E
:2048800011D0002611E004F11001607FFFF798FC05460028EDD104F1200194F82800FFF7C0
:2048A00025FE0546E5E704F136069DB9F378032B19D08DF80730B3788DF8063073788DF8A3
:2048C0000530337802A800F8043DFFF785FF054600285DD0284602B070BD04F13A06E4E7AE
:2048E00004F13E06E1E794F8283013BB0125637F0BB1012D2DD0E3780BB1012D38D0002D9C
:20490000E8D1E11DA07BFFF777FD05460028E1D1F3788DF80730B3788DF8063073788DF8B9
