:20500000200C0020FD540000515500005155000000000000000000000000000000000000A7
:2050200000000000000000000000000051550000000000000000000051550000D98E0000BD
:20504000515500005155000051550000515500005155000051550000515500005155000020
:205060005155000051550000BDC50000D1C5000051550000515500005155000079BA0000A7
:20508000515500005DBE000071BE000085BE00009DC5000051550000FDC3000021C4000030
:2050A000B1C20000D1C2000051550000515500005155000051550000B1B20000C1B6000078
:2050C0005155000051550000515500005155000051550000515500005155000051550000A0
:2050E000515500005155000051550000515500005155000051550000515500005155000080
:2051000051550000515500005155000051550000515500005155000051550000515500005F
:2051200051550000515500005155000051550000515500005155000051550000515500003F
:2051400051550000515500005155000051550000515500005155000051550000515500001F
:205160005155000051550000515500005155000051550000515500005155000051550000FF
:205180005155000051550000515500005155000051550000515500005155000051550000DF
:2051A0005155000051550000515500005155000051550000515500005155000051550000BF
:2051C00051550000515500005155000051550000515500005155000051550000515500009F
:2051E00051550000515500005155000051550000515500005155000051550000515500007F
:2052000051550000515500005155000051550000515500005155000051550000515500005E
:2052200051550000515500005155000051550000515500005155000051550000515500003E
:2052400051550000515500005155000051550000515500005155000051550000515500001E
:205260005155000051550000515500005155000051550000515500005155000051550000FE
:205280005155000051550000515500005155000051550000515500005155000051550000DE
:2052A0005155000051550000515500005155000051550000515500005155000051550000BE
:2052C00051550000515500005155000051550000515500005155000051550000515500009E
:2052E00051550000515500005155000051550000515500005155000051550000515500007E
:2053000051550000515500005155000051550000515500005155000051550000515500005D
:2053200051550000515500005155000051550000515500005155000051550000515500003D
:2053400051550000515500005155000051550000515500005155000051550000515500001D
:205360005155000051550000515500005155000051550000515500005155000051550000FD
:205380005155000051550000515500005155000051550000515500005155000051550000DD
:2053A0005155000051550000515500005155000051550000515500005155000051550000BD
:2053C00051550000515500005155000051550000515500005155000051550000515500009D
:2053E00051550000515500005155000051550000515500005155000051550000FFFFFFFF27
:20540000533439355F544C434D42000030412E30302E30300000000078785F585858585832
:205420005858000010B5064C2378002B07D1054B002B02D0044800E000BF0123237010BD4B
:2054400060FFFF1F000000007CD20000084B10B5002B03D00749084800E000BF0748036872
:20546000002B00D110BD064B002BFBD09847F9E70000000064FFFF1F7CD200005CFFFF1F15
:2054800000000000164B002B00D1144B9D46402292029A1A924600218B460F461348144AEB
:2054A000121A07F067F90F4B002B00D098470E4B002B00D098470020002104000D000D485B
:2054C000002802D00C4807F033FA07F0C7F82000290005F0C2FC07F0B1F8C04600000800FA
:2054E000200C0020000000000000000060FFFF1F0808002031C9000041C9000072B60E4930
:205500000D4A0D4B0C4C0C4D0B4E0B4FB846B946BA46BB46BC46094885460948804762B62C
:205520000849094A094B9B1A03DD043BC858D050FBDCFFF7A7FF000000000000200C0020A0
:20554000E5C50000A8D2000000F9FF1F60FFFF1F0048004751550000002243088B4274D3DD
:2055600003098B425FD3030A8B4244D3030B8B4228D3030C8B420DD3FF22090212BA030C96
:205580008B4202D31212090265D0030B8B4219D300E0090AC30B8B4201D3CB03C01A5241A1
:2055A000830B8B4201D38B03C01A5241430B8B4201D34B03C01A5241030B8B4201D30B035A
:2055C000C01A5241C30A8B4201D3CB02C01A5241830A8B4201D38B02C01A5241430A8B4274
:2055E00001D34B02C01A5241030A8B4201D30B02C01A5241CDD2C3098B4201D3CB01C01A43
:20560000524183098B4201D38B01C01A524143098B4201D34B01C01A524103098B4201D37E
:205620000B01C01A5241C3088B4201D3CB00C01A524183088B4201D38B00C01A52414308DE
:205640008B4201D34B00C01A5241411A00D20146524110467047FFE701B5002000F0F0F849
:2056600002BDC0460029F7D076E7704703460B437FD4002243088B4274D303098B425FD3EB
:20568000030A8B4244D3030B8B4228D3030C8B420DD3FF22090212BA030C8B4202D31212BA
:2056A000090265D0030B8B4219D300E0090AC30B8B4201D3CB03C01A5241830B8B4201D317
:2056C0008B03C01A5241430B8B4201D34B03C01A5241030B8B4201D30B03C01A5241C30A2E
:2056E0008B4201D3CB02C01A5241830A8B4201D38B02C01A5241430A8B4201D34B02C01A92
:205700005241030A8B4201D30B02C01A5241CDD2C3098B4201D3CB01C01A524183098B4230
:2057200001D38B01C01A524143098B4201D34B01C01A524103098B4201D30B01C01A5241D0
:20574000C3088B4201D3CB00C01A524183088B4201D38B00C01A524143088B4201D34B004A
:20576000C01A5241411A00D201465241104670475DE0CA0F00D04942031000D3404253403C
:2057800000229C4603098B422DD3030A8B4212D3FC22890112BA030A8B420CD38901921113
:2057A0008B4208D3890192118B4204D389013AD0921100E08909C3098B4201D3CB01C01AB4
:2057C000524183098B4201D38B01C01A524143098B4201D34B01C01A524103098B4201D3BD
:2057E0000B01C01A5241C3088B4201D3CB00C01A524183088B4201D38B00C01A5241D9D2BD
:2058000043088B4201D34B00C01A5241411A00D20146634652415B10104601D34042002BF2
:2058200000D54942704763465B1000D3404201B5002000F005F802BD0029F8D016E77047C1
:205840007047C0460022014B1A70704728F9FF1FF0B5D6464F464646C0B584B090464B00F1
:20586000C200121A9B18454A9C5C072C0ED04D1C6B00C200121A9B18404A9B5C072B1AD0DD
:2058800001250127002F27D100243CE04D1C6B00C200121A9B18394A9B5C062BE7D1130068
:2058A0006D00C200101A2D185D196F78490008181B185D78E6E7062C02D001250127E1E795
:2058C00013004900C200101A091859184F786D002D185D196D78D5E700239946484604B01A
:2058E0001CBC90469946A246F0BD254ABB001B195B00D1184978985C00F032F9A3006A46C1
:2059000098500134E4B2032CEFD90021002399461EE0032B15D00133DBB2032B16D89A0032
:205920006C461659820012183C01E41B6400A2465244144CA218D25C9642EAD0FF2AE8D0C1
:2059400004E0434662461A70FF2399460131C9B20529C3D84B46002BC0D12F0008008B0022
:205960005B182A01521B54001B19064AD3181B799C46FF2BEAD00023CFE7C0464CF9FF1FBD
:2059800070F9FF1F2CF9FF1FF0B5C64600B584B0704B1B78002B00D0D8E00023984611E0B0
:2059A00002ABDA1D00214046FFF752FFC0B2FF2829D000230193FF2800D1BCE043460133BB
:2059C000DBB298464346042B00D9BFE04546EA00521B614B9B181B79132BE1D0EB005B1B07
:2059E0005D4A985C022813D0062811D003280FD009280DD0EA00521B574B9B18597800F06B
:205A0000AFF8070009E002AB07331B780193D2E7EA00521B504B9B185F78002301930020D5
:205A200001244FE07300EA00521B9B184A4AD3185878721EE900491B474B5B189B181B791D
:205A4000152B73D89B00454AD3589F46874235D90123019332E0874230D3012301932DE04F
:205A600087422BD20123019328E0874226D80123019323E0874221D1012301931EE08742E4
:205A80001CD00123019319E0074317D10123019314E0002F4CD0002810D1012301930DE092
:205AA00007430BD00123019308E0002F06D0002804D00123019301E0874001970134E4B25D
:205AC000FF20019F012C00D975E726006200EB005B1BD218204BD05C0228A3D00628A1D0FF
:205AE00003289FD009289DD06300EA00521B9B18194AD318597800F033F89AE7F84001907D
:205B0000DCE701003800FFF7ADFD0191D6E73B180193D3E73B1A0193D0E778430190CDE759
:205B200001003800FFF718FD0190C7E70197C5E701230193C2E76B461A79EB005B1B064D45
:205B4000ED18A979687900F037F837E704B004BC9046F0BD28F9FF1F4CF9FF1FBCCA0000E1
:205B600010B582B00C00002803D001281FD0002020E06B46991D200001F07CFB012801D006
:205B8000002017E06B4606331B78013BDBB2022B01D900200EE06B46D91D200001F056FB8A
:205BA000012801D0002005E06B46D87902E0080002F0A8F802B010BD10B50B00002802D01F
:205BC000012805D010BD91B2180002F0EBFAF9E791B2180002F0DCFDF4E7000010B504001E
:205BE00000F044FA2201184B9B185B7B012B09D0022B18D02401144B1C190123637300F0AB
:205C000036FA10BD200000F097FA002805D024010D4B1C1902236373F1E7200000F09AFAC0
:205C20000128ECD1F3E7200000F086FA0028E6D1200000F08FFA0028E1D12401024B1C191B
:205C400001236373DBE7C0467CFFFF1F70B5040000F00CFA22014B4B9B185B7A022B3FD04D
:205C6000032B00D179E0012B07D02401454B1C190123637200F0FBF970BD424B9B185B78C2
:205C8000012BF7D8200000F084FA01281CD0200000F06CFA0028EDD022013A4B9B189B7A9B
:205CA000002BE7D1374B9B1802225A72DB7A012BE0D1200000F086FA01280BD02401314B75
:205CC0001C190123E372D5E724012E4B1C1902236372CFE724012B4B1C190023E372C9E7DF
:205CE000200000F043FA00281CD02201254B9B189B7A012B16D02201224B9B185B78032B92
:205D00001BD022011F4B9B18DB7A012BB2D1200000F058FA01281AD024011A4B1C190123FC
:205D2000E372A7E7200000F034FA0028E3D12401144B1C19012363729CE7124DAD180123E9
:205D4000EB72200000F030FA03236B7292E724010C4B1C190023E3728CE7200000F028FA62
:205D6000012808D02201074B9B185B78002B02D0012B00D07EE72401024B1C190123637229
:205D800078E7C0467CFFFF1F70B504000201664BD35C022B48D020D9032B55D0042B00D069
:205DA000BDE00201604B9B185B78012B00D8A9E000F060F9012800D0B5E022015A4B9B1833
:205DC0009B7A002B00D0A4E0574B9B1800225A7024010122544BE254A5E0012B00D09EE0D2
:205DE0000201514B9B185B7B022B18D04E4B9B185B7A022B13D002014B4B9B185B78023BD9
:205E0000DBB2012B00D98EE000F036F9464D24010323635500F03CF92D19686083E0240112
:205E20000222414BE2547EE002013F4B9B185B7B012B78D13C4B9B185B7A012B73D1140000
:205E40000122394BE2546EE00201374B9B185B78012B26D900F00EF9012829D0200000F0B8
:205E600007F901283CD022012F4B9B1858681E2100F012F9012856D1200000F001F9200029
:205E800000F082F92201284B9B189B7A002B33D1254B9B1800225A7024010122224BE25410
:205EA00041E000F0EDF8240101221F4BE2543AE0200000F069F922011B4B9B189B7A002BFC
:205EC00008D1194B9B1800225A7024010122164BE25428E02201144B9B1801225A70F4E702
:205EE00000F0C4F8200000F0CFF800F0C0F8240104220D4BE25416E022010B4B9B18012259
:205F00005A70C9E700F0BCF824010122064BE25409E02201044B9B1801225A7058E7240135
:205F20000122014BE25470BD7CFFFF1F70B5050000F05CF92B010B4CE4182073280000F05D
:205F40000DF9A073237B2372834203D22A01054B9B1818722A01034B9B18197A280000F0CC
:205F60009FF870BD7CFFFF1F10B50024002C03D001220B4B1A7010BD200000F073F8094B3D
:205F800022010121D1549B1800225A701A7259729A72D9721A7359739A730134E4B2E5E74D
:205FA0008CFFFF1F7CFFFF1F10B50C4B1B78012B11D010BD2000FFF711FE2000FFF746FE97
:205FC0002000FFF7E1FE2000FFF7B0FF0134E4B2002CEFD0EDE70024FAE7C0468CFFFF1FC9
:205FE000002804D10001034B1818007B70470020FCE7C0467CFFFF1F10B5040000F0B6F8EA
:20600000002805D022010E4B9B189B7A002B05D024010B4B1C190123E37210BD200000F039
:20602000D1F8012805D02401054B1C190123E372F3E72401024B1C190023E372EDE7C046A3
:206040007CFFFF1F002804D10001034B1818807B70470020FCE7C0467CFFFF1F10B500F022
:2060600081F810BD10B505F033F910BD70477047012070470020704710B505F0E5FA10BDA4
:2060800010B505F001FB10BD10B500F037FD10BD10B502F0C5FE10BD10B502F0C7FE10BD37
:2060A00070B50400032908D01F4B1868C821490002F0BCFE01280FD070BD1C4B1B78002B91
:2060C000F2D10122194B1A70002100F0C7FD02F0A7FE154B1860EFE7144B1B78012BEBD1F8
:2060E0000022124B1A70FFF73FFF002503E0FFF73BFF0135EDB205F07BF9002801D1042DC2
:20610000F5D905F075F9002801D1042D04D80121200000F0A3FDCFE7BFF34F8F044A054B91
:20612000DA60BFF34F8FFEE790FFFF1F8DFFFF1F0400FA0500ED00E000B583B0694600F002
:206140007BFA6B469B79002B02D0012003B000BD0020FBE710B505F065F910BD10B505F0D6
:2061600055F910BD10B500F0CDFB10BD00B583B0694600F08BFB6B469B79002B02D00120CA
:2061800003B000BD0020FBE710B5012100F066FD10BD10B505F044F9012804D005F03EF966
:2061A000012800D0002010BD10B505F041FA10BD10B505F037F9002801D0012010BD05F071
:2061C0002FF9FAE710B5040005F012F9012801D0002010BD05F024F90028F9D105F01EF9F6
:2061E0000028F5D1200000F013FCF1E710B505F005F910BDF0B505AC20CC2678079CA77992
:20620000022F45D06778BC46BF006744BF00E851607887003F18B800281802736278900068
:2062200080188200AA181361002309E06278900080188200AA18C85CD21810710133DBB26C
:20624000072BF3D963780133DBB26370B34201D300236370627823789A4209D00DD20121E7
:20626000A1719B1ADBB2A278934214D2A37012E00223A3710023A3700DE00121A171B61A90
:20628000F6B29B19DBB2A278934204D2A37002E0A3880133A380F0BD70B59479002C30D0CE
:2062A0001578AC006419A50044591C601478A5002D19AC000419247B1C731478A5002D1985
:2062C000AC00041924691C6100240AE01578AE007619B50045192D192E791D192E71013409
:2062E000E4B2072CF2D913780133DBB213708B4201D30023137051781378994202D00123CF
:20630000937170BD00239371FBE70000F8B5DE4657464E464546E0B506000024002C05D0F6
:206320003CBC90469946A246AB46F8BD250032191201414B9B181B79002B06D0012B22D0AD
:20634000022B43D00134E4B2E8E733199A00D21891003A4A5218D0681B01374AD318996853
:2063600000F08AFC0128EDD13519AB005D19AA00324B9B1803221A74F200314B9B189A8881
:2063800001329A80DEE733199A00D21891002B4A5218D0681B01284AD318D96800F06CFC61
:2063A0000128CFD1321993009B189A00234B9B181B7C022BC6D1214B9B1803221A74F200A9
:2063C0001F4B9B189A8801329A80BBE71B4B994633199B469F00FA1893004B44D8685B4669
:2063E0001B01154A904698444346D96800F044FC82465F44BB001F004B44D86843469968D8
:2064000000F03AFC5346012B10D001289AD17519AB005D19AA00094B9B1803221A74F20018
:20642000074B9B189A8801329A808BE7034BDB191B7C022BE9D1EAE744CB00005000002066
:20644000C8000020F0B5C64600B506000D0000242AE0A200121993005B18344AD31803224C
:206460001A744AE0AB181B799C46810009188B003901C91B8900884643442C49CB18614603
:2064800099540132D2B22B7B9A42EBD3420010188200F10089198800121825498A1812794C
:2064A000012A39D00134E4B2022C3BD837002000620012199300F200921991005B181C4A1E
:2064C0009B582A689A42EDD1A200121993003201921B91005B18154AD3181B7C012BB8D0C4
:2064E000032B0AD0A200121993003201921B91005B180E4AD31801221A748200121893001D
:206500003101891B8A009A18084B9B182A69DA602A7B1A720022B6E72A1D2968300000F0AE
:20652000B7FBBFE704BC9046F0BDC04694FFFF1F14CB0000F0B589B0394B1B78012B00D138
:206540006CE000F0C6FB09B0F0BD03A93800FFF779FF0134E4B2052C5ED8EA00314B9B183B
:206560009B79002B58D02B015B1BDA002E488018EB002C4AD21803AB0621FFF78DFE0399ED
:206580006B005B199A00294BD3589942DDD3274B9B185B689942D8D803AA137B079A009277
:2065A00004AA380000F08CFBD3E73C00D3E70134E4B2022C25D8620012199300EA00521963
:2065C00091005B181A4AD31899680029EFD0A200121993002A01521B90001B18154AD3187A
:2065E000D86800F049FB0128E1D1A3001E19B3002A01521B91005B180E4AD31804221A742C
:20660000D5E70137FFB2002F9DD13D00FA00054B9B189B79002BC8D13C00CAE70027F2E739
:20662000D000002048000020D0FFFF1F38CB000014CB000094FFFF1F10B50C00002808D1B0
:20664000C100054B59180822200006F051F8012010BD0020FCE7C04648000020F0B5DE4607
:2066600057464E464546E0B587B0824B1B78012B00D1FCE000F02DFB07B03CBC90469946DD
:20668000A246AB46F0BD33199A00D21891007A4A5218D0681B01794AD318996800F0ECFA0C
:2066A00001285CD00134E4B2002C00D0CDE0270032191201714B9B181B79002BE3D0012B7F
:2066C00075D0022BEED16C4B9A4633199B469B0098461A005A4493005344D8685B461B016D
:2066E000664A914699444B46D96800F0C5FA0590D84443469A005244D0684B46996800F091
:20670000BBFA059B012B00D193E00128CAD15A4B9946F719BB009846DA1993004B4401228B
:206720001A7400F0A5FA4346DA1993004B44D8609100494464227243514B9A180B7A9C4658
:206740003F014E4BF858F7004E4BDB19029305230193009200236246FFF74CFDA2E7464B85
:2067600099463719BB009846DA1993004B4401221A7400F07DFA4346DA1993004B44D8604E
:2067800091004944642272433D4B9A180B7A9C463F013A4BF858F7003A4BDB1902930523BD
:2067A0000193009200236246FFF724FD7AE733199A00D2189100304A5218D0681B012F4A5E
:2067C000D318D96800F058FA012800D06AE7321993009B189A00284B9B181B7C022B00D01C
:2067E00060E7254B99463719BB009846DA1993004B4401221A7400F03BFA4346DA19930020
:206800004B44D86091004944642373431C4AD2180B7A9C463F01194BF858F700194BDB195C
:20682000029305230193009200236246FFF7E2FC38E743469A00104B9B181B7C022B00D0F2
:2068400063E764E72800FFF761FD0135EDB2002D00D011E72E000C4B5B5D012BF5D1EA0044
:20686000084B9B189B79022BECD02C001CE70025EDE7C046D00000205000002044CB000078
:2068800064000020C8000020D400002010B50C00002808D1C100054B59180822200005F005
:2068A00027FF012010BD0020FCE7C046C8000020F8B5040008001600022C01D90020F8BD27
:2068C000074FA5002B1999007918082205F010FF2C19A300FF183B7A33700120EFE7C046CD
:2068E00094FFFF1F022808D8830018188200044B9B181B7C0B70012070470020FCE7C046B3
:2069000094FFFF1FF0B58BB0060000F0B1F9059000240125002C21D1012D1FD1132702AB44
:206920009C4667443B0007AA09A9300000F0A8F9050033019B1BDA00094B9B183A78F000F9
:20694000084909180291062101910093059B07A90998FFF74FFC0134E4B2DBE70BB0F0BDBF
:20696000D0FFFF1F4800002070B5051E14D1830018188400094B1B191A72002308E0CE5C15
:20698000A8004019840005480019C6540133DBB29342F4D3012070BD0020FCE750000020D4
:2069A000F0B585B004000D0016000022144B9B79022B1FD0002A1FD1022801D900201CE0EB
:2069C00083001B189A000F4FBF1801233B7400F04FF9F86024010C4BE058094B029305230A
:2069E00001930A4B0093002332002900FFF702FC012002E0002000E0002005B0F0BDC0461E
:206A0000C80000205000002044CB000064000020F0B587B0051E2AD10600C200174B9B18B4
:206A20009B79002B02D00024012015E001201FE0642373431248C01801AFF3000F4AD21896
:206A40003B000521FFF728FC3B7B02AA0199280000F037F90134E4B2002C0BD101280BD19F
:206A6000F200064B9B189B79002BE1D100E0002007B0F0BD0120FBE70120F9E7C8000020DF
:206A800064000020F0B5002801D1002713E000202FE0A90049198A003401A41BE1005118B7
:206AA000144A5218D218002111710133DBB2072BEFD90137FFB2052F10D806003D000D4B26
:206AC000B900C9198A000101091ACC0012190021D1509B18197319610023E8E7064BC00077
:206AE0000022C2541818427005238370827182800120F0BDD0FFFF1F4800002070B50028FC
:206B000001D1002612E000202DE0A10009198A00642169435118144A5218D2180021117122
:206B20000133DBB2072BF0D90136F6B2042E0FD8050034000C4BB10089198A00642141432B
:206B400052180021D1509B18197319610023E9E7064BC0000022C254181842700523837097
:206B600082718280012070BD64000020C8000020F8B5CE46474680B50024002C01D000249E
:206B800036E02000FFF77EFF260010E0810009188A002901491B8F00D2192C498A180021CA
:206BA000D1540133DBB2072BF0D90136F6B2022E10D825003000B200921993002101091B72
:206BC0008A009A18214B9B1800221A741A72DA602300E8E70134E4B2CFE72000FFF78EFFCE
:206BE000200000280DD00122194B1A550134E4B2002CF2D00122174B1A700CBC9046994635
:206C0000F8BD26000500144B994621188B005F18BF004F44002294463A745A1897004F4483
:206C200062463A726346FB60030009E071198A0052189100084A52180021D1540133DBB23E
:206C4000072BF3D90130C0B2CBE7C04694FFFF1FD4000020D000002050000020002803D1DA
:206C6000024B1954013070470020FCE7D400002010B502F0D5F810BD10B502F0D7F810BDD7
:206C800010B5080011001A0004F0D6FB002010BD70B50D001400C30018188200074B9B188A
:206CA0009B698B4200D070BD052001F02BF80128F9D12100280000F00DFDF4E714CB0000DD
:206CC000704710B5080011001A0004F0EFFB002010BD7047F0B5DE4657464E464546E0B569
:206CE000002301E00133DBB2052B2BD8184C5D00ED18AA00CD006D18EF00D219155BA218D6
:206D0000527A8542EED1012AECD15C00E2189500CA0093465718FF00ED190D4F7D19AD7A1E
:206D2000A9460C4A9246E7187F005A465518AD00AC4667444D465246BD543C00544404222B
:206D40002271CFE73CBC90469946A246AB46F0BD70CB0000D8000020F0B5D6464F464646A2
:206D6000C0B5844688469246994611001F00580048448300D0005044C4001B191C48C3181D
:206D80009B780024002002E000200134E4B27E00F619B500CE007618F200AD18144E75198A
:206DA000ED78AC420AD21D194545EDDA6246555DE600F6B2B540ADB22843E6E735004B46E3
:206DC0005B004A469C18A1005246D400A718FE0089196918097908414B44990089196D180D
:206DE000EB881840C0B21CBC90469946A246F0BD70CB0000F0B5D6464F464646C0B58A46D2
:206E000008AC24789846A446194D1B199C00E7187E003700AE19B678B946EF193F79B840C4
:206E20004C462D19ED7873191370002219E044466444A3001B195C000D4B1B19DB88BB409C
:206E4000D100C9B20B41DBB29946B418544403041B0C0B4149460B4021780B4323700132C9
:206E6000D2B2AA42E3D31CBC90469946A246F0BDB8CB0000F0B5DE4657464E464546E0B52D
:206E800085B00600884615000822002102A805F071FC6B46DA1D02A9300000F02DFA3000B3
:206EA00000F028FA8346002401E00134E4B2052C28D8620012199300EA005219D1005B183D
:206EC000144A9B5A9E42F0D16B46D97923002A0002A8FFF741FF82460F4A600001194B00A8
:206EE000E9004F19BF00B946DB1957469F54D3185F465F8003195800494640181218434682
:206F00001371D2E705B03CBC90469946A246AB46F0BDC04670CB0000D800002070B50600E8
:206F2000002401E00134E4B2052C25D8620012199300F2009219D1005B18104AD318DB7AB8
:206F4000012BEFD163001B195900F3009B199A0089180B4B5918200000F0D3F90028E1D1F6
:206F600063001D196B00F200921991005B18044AD31805221A71D5E770BDC04670CB000057
:206F8000D8000020F0B5D6464F4680B583B006000024002C04D003B00CBC91469A46F0BD32
:206FA0000194321993009B185A00124B9B185B7A012B02D00134E4B2EBE70F4B9A46351949
:206FC0006F007A19530052469B5C99461900200000F0A3F97F197B00524698548145E9D013
:206FE000019BF5186B005D196A00034B9B1802221A71DFE7B8CB0000FC000020F0B5C646D7
:2070000000B58AB004000F000822002108A805F0B1FB200000F077F90590200000F075F93F
:2070200003900126002398460025002D05D0022E40D00AB004BC9046F0BD04957A19930072
:207040009B185A00204BD35A9C4202D00135EDB2EBE77A1953009B185A001C4B9B181B7993
:20706000002B0FD0022B0DD0039B012BEED1049BFA1853009B185A00144B9B186A46928A84
:207080005A80E3E70F2604AB9C466644049BFA1853009B185A000D4BD05C00953B00320045
:2070A00008A9FFF7A7FE3378984500D3434698460226D9E7424608A9200000F029F931003E
:2070C000200000F024F9B4E7B8CB0000FC000020F0B50025002D07D0002542E00133DBB273
:2070E000012BFBD92B0020E02B00F9E75800C1188A00E9004E19F40012191E4CA218127A80
:2071000094461D4CC61872004F19BE003700921966461655A21800265680C0184200D21902
:20712000A418002222710133DBB2052BDED90135EDB2CFE76A1893009B1858000F4B1B18FE
:207140001F7A0F4853009E1874002754041900266680002323710131C9B20029EAD00135A1
:20716000EDB2002D01D12900F7E70122054B1A70F0BDC04670CB0000D8000020B8CB000004
:20718000FC0000200201002070B51A4B1B78012B24D000F0C4F870BD2A0001003000FFF749
:2071A00069FE0134E4B2012C12D86B001B195B00114A9E5A300000F06DF80128ECD00328A4
:2071C000EAD00428EDD129003000FFF783FDE8E70135EDB2002D03D12C00E4E70025F9E79B
:2071E000002404E02000FFF799FE0134E4B2002CF8D0D0E70201002068CB000070B5114B8D
:207200001B78012B0BD000F08AF870BD2000FFF7B9FE0134E4B2002CF8D000250EE0002472
:20722000F9E72B195B00084A985A2900FFF7E6FE0134E4B2002CF4D00135EDB2002DE4D116
:207240002C00F7E7020100206CCB000030B505280BD8074A43001D186C00A45C0C706B00B9
:20726000D21802231371012030BD0020FCE7C046D8000020052808D8430018184200044B5B
:207280009B181B790B70012070470020FCE7C046D800002000B583B0C0B26B46D91DFFF75C
:2072A00021FB00281DD06B46DB79042B1CD86B46DB799B000E4AD3589F4600226B46DA714F
:2072C00012E001226B46DA710EE002226B46DA710AE003226B46DA7106E004226B46DA717C
:2072E00002E005226B46DA716B46D87903B000BD54CB00000020704710B5C0B2FFF7D8FA22
:2073000010BD012070470020704700207047704710B5C0B2FFF728FB10BD080070477047D0
:20732000054B1B78002B05D00122044B1A700022014B1A707047C046D0020020D1020020D4
:2073400010B582B008220021684605F013FA104B5C88E1B20F230B406A461370002306E0B0
:20736000581C0B4AD3181B796A461354C3B29AB29442F5D80131C9B2684600F09FFA01283D
:2073800001D002B010BD0622014B1A70F9E7C046E001002030B583B008220021684605F0B2
:2073A000E9F91F4B5A88110A0F230B4010210B4369460B704A70002307E0991C184AD21899
:2073C0001279684642540133DBB2052BF5D90821684600F073FA012801D003B030BD104CF5
:2073E0000622D223E2520023C632A35401210132A1540332A3546588063D06312800FEF730
:20740000ABF8D423E05407212800FEF72BF9D523E15400F04DFAE023E050DB3B2370DCE732
:20742000E001002010B582B008220021684605F0A1F9434ACD23D15CBE3B0B4020210B434F
:2074400069460B70D023D15C0433D35C99422ED3D5233B4AD15C00295CD1394B5A88D22147
:207460005B5A9A4258D0CE23354AD15C00295FD00233D05CFEF7F6F8C9B2002950D105222E
:207480002F4B1A7011E0591C2D4AD220105A1B18D3181B796A465354CBB2062BF3D9082103
:2074A000684600F00BFA012803D002B010BD0023F3E7234CCD22A35C0133A3540332A35CF5
:2074C0000133A3540232A35A0733A35200F0F0F9E023E050C1E7581C194AD224145B1B19FD
:2074E000D3181B796A461354C3B28B42F3D30131C9B2684600F0E2F90128D6D1104CD523A4
:20750000E35CD222A15A5B18A35200F0D1F9E023E050A2E70023E8E70622094B1A70C4E7BC
:2075200000F0C6F9064BD8229850D53A1A70BCE700F0BEF9024BD8229850D53A1A70B4E723
:20754000E001002010B5454B1B78072B76D89B00434AD3589F46414B5B78012B6ED13F4B36
:207560005B88072B03D801223C4B1A7066E002223A4B1A7062E0E023384AD058FA2149001B
:2075800000F092F9012802D0FFF7DAFE56E00722324B1A7052E0E023304AD058FA21490006
:2075A00000F082F9012802D0FFF7F4FE46E007222A4B1A7042E0E023284AD058FA2149000C
:2075C00000F072F9012802D0FFF72CFF36E00722224B1A7032E0214BCF22995C093298586F
:2075E00000F062F9012829D104221C4B1A7025E0E0231A4AD058FA21490000F055F90128A7
:207600000FD0CC23154AD35C012B17D114000022CB33E25400F04CF9D823E050D53B23708D
:207620000CE007220D4B1A7008E00C4B00225A705A801A70E422985800F03EF910BD074C87
:20764000E423E05800F039F9002363706380E822A3580133A35000232370EFE7E001002037
:20766000C4CB000000B583B008220021684605F081F830236A4613702D3B53701133937034
:207680000321684600F024F903B000BD10B50122064B1A70DB320021054805F06BF8F022F3
:2076A0000021044805F066F810BDC046D202002004010020E001002010B5054B1B78012B49
:2076C00000D010BDFFF73EFFFFF72AFEF9E7C046D202002070B50C0009780B09012B16D00A
:2076E000002B05D0022B2ED0032B00D16CE070BD611C454D28001030072204F0F9FF2278C1
:207700000F2313406B600122404B1A70EFE73E4D0022AA6023781B026178F0263601334003
:207720000B436B60EA602A60D823E850374B1A70A11C28001030063204F0DAFF0623AB60BF
:20774000FFF790FFD3E7304B9D88986882B2AD1AADB2DB68013359400B07C8D1062D25D805
:20776000294E10303018611C2A0004F0C1FFB3689C466544B560244BDA68511C0F220A405B
:20778000DA601A68501C18609A685B689A4204D20321FDF767FF002913D01B4B5A689B681D
:2077A0009A42A4D101221A4B1A70A0E7164D10302818611C072204F09BFFAB680733AB6070
:2077C000D9E7FFF74FFFE8E70F23194007D0012910D0022914D007220E4B1A7087E70D4B89
:2077E0000131CC229954617802329954A178013299547CE700F05CF8E023064AD05076E7D2
:207800000722044B1A7072E704010020D1020020D0020020E0010020024B1878012800D02C
:2078200000207047D102002010B5084B1B78012B01D0002010BD064C21001031626804F077
:2078400057FF0022014B1A70A088F3E7D102002004010020F8B504000D001600531E9BB22E
:20786000C72B01D90220F8BD0B4B5B78002B01D00120F8E700F01CF8074FE023F850381D46
:207880003200290004F034FF7E8001237B70E333FC500020E7E7C046E0010020014B5878E6
:2078A0007047C046E001002010B501F0BFFA10BD10B501F0B5FA10BD7047704710B50A005F
:2078C00001000020FFF76CF8012800D0002010BD10B5FFF7F3FF10BD30B50C281CD80F4968
:2078E000162242438A18957A948983001B185B001B185B195B005C52937A0133DBB2937269
:20790000074A121834321278D2B2934204D316234343C8180023837230BDC046D802002028
:2079200000FC000010B50C2819D883001B185A002B4B9B181B79052B4BD89B00294AD35808
:207940009F46294B1B1834331978C9B216234343264CE418E389220000F058FB208210BDBB
:20796000214B1B1834331978C9B2162343431F4CE418220000F050FB2082F0E71A4B1B1861
:2079800034331978C9B216234343184CE418220000F047FB2082E2E7134B1B18343319780D
:2079A000C9B216234343114CE418220000F03BFB2082D4E70C4B1B1834331978C9B2162359
:2079C00043430A4CE418A389220000F02EFB2082C5E7162343430548C01883890382BEE700
:2079E00078F9FF1FE4CB000000FC0000D802002070B500264AE0200000F0F6F90123184063
:207A000016226243274B9B189881A3001B195A00254B9B18DB78012B26D02000FFF75CFF11
:207A20002000FFF77FFF0134E4B20C2C2CD8A3001B195A001C4B9B189B789E42F3D11A4B44
:207A4000D35C032BD7D0042BEDD1200000F0DEF916236343134DED18A8812000FFF73CFF90
:207A60002000FFF75FFFDEE7012806D0162363430C4DED180123AB81CFE715336343094D47
:207A8000ED180023AB81C8E70136F6B2012E04D8300000F093FA0024C7E7002000F08EFAE2
:207AA00070BDC046D802002078F9FF1F70B500241BE0162262432F4B9B1800229A8120005F
:207AC000FFF70AFF2000FFF72DFFAB005B195A00294BD35C012B2DD0AB005B195A00264B36
:207AE000D35C022B35D00134E4B20C2C40D82500A3001B195A00204BD35C002BE5D1200019
:207B000000F072F90123184016226243194B9B189881A3001B195A00174B9B18DB78012BBC
:207B2000CDD10128C5D016226243124B9B1801229A81C4E7200000F069F916226A430D4B64
:207B40009B1898812000FFF7C7FE2000FFF7EAFEC2E7200000F012FA16236B43054DED187D
:207B6000A8812000FFF7B8FE2000FFF7DBFEBAE770BDC046D802002078F9FF1F10B50123DB
:207B80002B4A13702B4A137000232B4A13702B4A1370002236E0930098184400284800199A
:207BA000C4889B185B009B185B185B0025481C520131C9B21000244B9B1834331B78DBB2A9
:207BC0009942E8D3162151431E4B5B18002199729981D981598200241C75198293009B1857
:207BE0005900174B5B181B7A012B0FD0164B181834300378DBB2052B02D900210C4B1970AE
:207C00000132D2B20C2A11D80021D3E70C4BCB5C022B03D80121084B1970E7E7033BDBB296
:207C2000012BE3D80121054B1970DFE710BDC046D5020020D3020020D4020020D6020020EF
:207C400078F9FF1FD802002000FC000070B5274B1B78002B00D170BD00F0A1F9244B1B78C0
:207C6000002B03D1234B1B78002B01D0FFF7C0FE1F4B1B78002B03D11F4B1B78002B01D05F
:207C8000FFF714FF00F0AAF8194B1B78002B01D1002328E000F0CBF900240BE01533634379
:207CA000164DED182A8AE989200000F0C1F9E8810134E4B20C2CCED8A3001B195A00104BCE
:207CC0009B185B7A012BE9D0162262430B4B9B181A8ADA81ECE716215943084A5218118A55
:207CE000D1810133DBB20C2BF5D9B4E7D5020020D3020020D6020020D4020020D8020020FD
:207D000078F9FF1F0D4B1B78002B12D00C2812D8162242430A4B9B181B7D012B05D0162327
:207D200043430748C018C08904E005488018408A00E0002070470020FCE7C046D502002003
:207D4000D802002010B50F4B1C78002C02D00020002303E0200010BD0133DBB20C2BFAD89B
:207D60009A00D2185100084A5218127A012AF3D116215943054A5218D289012AECD1200008
:207D8000EAE7C046D502002078F9FF1FD80200200C2804D8162343430148C0184182704722
:207DA000D80200200C2805D8162343430248C018012303757047C046D8020020002307E07A
:207DC00016215943044A5218002111750133DBB20C2BF5D97047C046D802002010B51520FA
:207DE00003F008F910BD000010B50C2801D9002010BD830018184200034B9B18587803F049
:207E00002DF980B2F4E7C04678F9FF1F70B582B00400002201AB1A800C2800D9A3E0062819
:207E200000D2A3E00B281CD90C2800D09EE083001C1862004E4B9B18587803F057F901AB1F
:207E400018800121180000F0F1FD0200494B988950439A7BD2B2D04080B21B8A181880B246
:207E600082E083001B185A00414B9B18587803F03DF901AB18800121180000F0D7FD020014
:207E80003C4B588A50431B7DDBB2D84080B2002301E00133DBB2042B19D85A00D2185500F9
:207EA000344A5219D28A92B29042F2D3314A5219128B92B29042ECD22E4B5B195B8B5843DD
:207EC000FA218900FDF748FB80B20523E1E7062C0BD0072C29D0082C29D0092C29D00A2CDB
:207EE00029D00B2C29D0FF2300E00023FF2B3BD0214A14885288944236D81D009E001E4918
:207F00008919898888421AD99B001B4EF318DB88984219D9AD00184B5D19EB889A421DD8E9
:207F20009B1A9BB2C01880B21EE00123DEE70223DCE70323DAE70423D8E70523D6E7604311
:207F4000FDF794FB80B20FE0451A101B6843591AFDF702FB80B2201880B205E0D31A9BB229
:207F6000C01880B200E0002002B070BD0020FBE778F9FF1F00FC000000FE000000207047B6
:207F800010B500F043FF10BD10B589B280B200F059FF012801D0002010BD0120FCE710B5F3
:207FA000152003F013F8FFF7EBFF0400C8212000FFF7EAFF0028F9D010BD000010B5012816
:207FC00000D910BD002808D0012816D0192003F011F8182003F00EF805E0192002F0F6FF81
:207FE000182003F007F8FFF7CBFF040006492000FFF7CAFF0028F9D0E3E7192002F0E6FF9A
:20800000182002F0E3FFEEE77102000010B510001A0000F0F3FC10BD10B5100000F006FDA9
:2080200010BD002070470020704700207047704710B582B014006B46D91D012000F0A6FED0
:20804000012802D0002002B010BD6B4607331B78DAB2012A03D9032B01D00020F3E720005C
:20806000F1E700000022084B1A7009E0074BD0000021C1521B185980998099710132D2B204
:20808000072AF3D97047C046FAF9FF1FF8030020F8B5384B1B78002B6BD1002431E0E200B9
:2080A000354B9B189B79012B08D0334EE700F3195988200000F0A9F8B85337E02E4E1700BA
:2080C000B3189988200000F0A0F8B8532EE02A4BE20099188988D15228E0AA005219274B28
:2080E0009B189B78012B35D0EA00234BD25AAB005B19224DED186978200000F07FF80134D5
:20810000E4B2072C35D82500A20012191B4B9B181B79012BC3D0E200174B9B189B79012BF4
:20812000D5D0154BE20099184988D152AB005B19124A9B5C002BD0D0012BE0D1EA000E4B56
:20814000D25AAB005B190D4DED186978200000F05BF8D4E7EA00084BD25A53425A4192B299
:20816000AB005B19054DED186978200000F046F8C5E7F8BDFAF9FF1FF8030020FCF9FF1FBA
:20818000064B1B78002B05D1072805D8C000044BC05A00E0002070470020FCE7FAF9FF1FFA
:2081A000F8030020072803D8C000024B181841807047C046F8030020072803D8C000024BAD
:2081C000181881807047C046F8030020072804D8C000024B1818012383717047F803002064
:2081E000002306E0D900044A5218002191710133DBB2072BF6D97047F803002010B5080061
:20820000D1B202F00BFF10BD704710B582B00C00002002F0DBFB012802D0002002B010BDD6
:208220006B46D91D002000F0B1FD012801D00020F4E76B4607331B78DAB2012A03D9032BA5
:2082400001D00020EAE72000E8E7000070B5040083001B189A00344BD55A0F2100F0F8FA34
:2082600080B285422FD9A200121991002E4B5B180222DA709B78022B0ED000F071FB2A4958
:20828000A2001519AB00CB181861D8789870AB00C91800230B712EE0234B5B181D690A21E4
:2082A000200000F0D5FA0100280000F0ADFA002821D01D4AA300181981005118C97883001D
:2082C000D218117117E0A20012199100164B5B180122DA709B78012B0ED000F041FB1249F8
:2082E000A2001519AB00CB181861D8789870AB00C91800230B7170BD0B4B5B181D69052182
:20830000200000F0A5FA0100280000F07DFA0028F1D0054AA300181981005118C978830064
:20832000D2181171E7E7C0463804002070B5040083001B189A005F4BD55A0E2100F088FAAE
:2083400080B285422FD2A20012199100594B5B180322DA709B78032B0ED000F001FB554996
:20836000A2001519AB00CB181861D8789870AB00C91800230B7170BD4E4B5B181D690921BA
:20838000200000F065FA0100280000F03DFA0028F1D0484AA300181981005118C978830021
:2083A000D2181171E7E7A3001B199A00414BD55A0D21200000F04CFA80B285422FD2A20037
:2083C000121991003B4B5B180422DA709B78042B0ED000F0C5FA3749A2001519AB00CB18CB
:2083E0001861D8789870AB00C91800230B71C2E7304B5B181D690821200000F029FA010007
:20840000280000F001FA0028B5D02A4AA300181981005118C9788300D2181171ABE7A30005
:208420001B199A00234BD55A0B21200000F010FA80B285429FD2A3001B199A001D4BD55A19
:208440000C21200000F004FA80B2854200D392E7A20012199100174B5B180522DA709B78E5
:20846000052B0ED000F07CFA1249A2001519AB00CB181861D8789870AB00C91800230B71D3
:2084800079E70C4B5B181D690421200000F0E0F90100280000F0B8F9002800D16BE7054ABA
:2084A000A300181981005118C9788300D218117161E7C04638040020F8B5040083001B18BD
:2084C0009A00494B9B18DD68032100F0C1F90100280000F099F9002800D181E0A3001B19CC
:2084E0009A00414BD55A0B21200000F0B1F980B2854232D9A200121991003B4B5B180722BD
:20850000DA709B78072B0ED000F02AFA3649A2001519AB00CB18186100201871D878AB00E0
:20852000C91888705FE0304B5B181D690621200000F08EF90100280000F066F9002852D02F
:20854000294FA60033199D007D19EB782B7100F007FA286102236B7145E0A3001B199A006E
:20856000214BD55A0C21200000F072F980B2854232D9A200121991001B4B5B180622DA700B
:208580009B78062B0ED000F0EBF91749A2001519AB00CB18186100201871D878AB00C91829
:2085A000887020E0104B5B181D690721200000F04FF90100280000F027F9002813D00A4F52
:2085C000A60033199D007D19EB782B7100F0C8F9286102236B7106E02000FFF7A7FE02E0B9
:2085E0002000FFF7A3FEF8BD3804002070B5002419E00F49A2001019830000205852CB181E
:20860000002500269E70DD701D715D719D711881D86012199300C91808610021200000F040
:20862000A3F90134E4B2042CE3D900F00FF970BD38040020F0B5C64600B500240CE0A3004D
:208640001B199A00514B9B189B79012B1FD02000FFF7FCFD0134E4B2042C00D993E0200058
:2086600000F0DCF8494AA3001E19B100885252185379012B1BD0002BE1D0022B30D0A30045
:208680001D19AA00414B9B1800225A71E2E73F4B9846160046443189200000F065F900F0E5
:2086A0005FF9F0600023337101227271D2E7A3001B199A00354B9B189B79002B0CD10021AB
:2086C000200000F051F9314AA300181981005118002008714871BDE72000FFF7EDFEB9E770
:2086E0000021200000F040F9A3001B199A00274B9B181E690221200000F0AAF801003000ED
:2087000000F082F80028A5D00121200000F0A0F8FF23184001281CD0002812D0022828D0CD
:20872000032897D1A3001B199A00184B9B189B79002B8FD115498A1800205071D07090705F
:2087400088E7A3001D19AA00104B9B1802225A7180E7200000F056F8002800D17AE70B49B7
:20876000A300181982008A1800205071D070907070E70649A300181982008A180020507161
:20878000D070907066E704BC9046F0BD3804002070B504000D00042801D9002070BD8300A1
:2087A0001B189A000D4B9B181981002100F050F8C0B2854208D8A3001C19A200074B9B1856
:2087C00000229A710120E9E7A3001C19A200034B9B1801229A710120E0E7C0463804002088
:2087E00000230B70042808D8830018188200044B9B181B790B70012070470020FCE7C046A8
:20880000380400200020704710B500F00FFB012801D0002010BD0120FCE7000070B5040052
:20882000042801D9002070BD43001B185A00064BD05CFFF767FA0500002CF4D10720FFF72E
:2088400061FA281880B2EEE73CCC000070470000042800D977E00F2900D976E000D976E0C5
:2088600089003C4B5B589F464300181842003A4B9B18987868E0430018184200364B9B1822
:20888000D87861E00001354B18186C30008880B25AE007300001314B1818806854E0000105
:2088A0002E4B18186E30008880B24DE000012B4B18186E30008880B246E00001274B1818C2
:2088C0007030008880B23FE00001244B18187030008880B238E007300001204B1818808832
:2088E00080B231E0073000011C4B1818808880B22AE00001194B18187030008880B223E030
:208900000001164B18187230008880B21CE00001124B18187230008880B215E00730000156
:208920000E4B1818C08880B20EE0073000010B4B1818C08880B207E0430018184200064B21
:208940009B18988800E0002070470020FCE70020FAE7C046FCCB00003CCC000000FC0000B8
:2089600010B500F05DFA10BD10B5042800D910BD430018184200034B9B185878FFF712FCFD
:20898000F5E7C0463CCC000010B5002809D00B2901D9002010BD0A00034903F0A9FE01201B
:2089A000F8E70020F6E7C0460054000010B500280AD0092901D9002010BD0A0003490C312E
:2089C00003F096FE0120F7E70020F5E70054000010B5041E0ED0042901D8002010BD0A00FF
:2089E000002103F0C7FE05220349200003F080FE0120F3E70020F1E774CA000030B5041E62
:208A000012D0002902D00123002003E0002030BD0133DBB28B42FAD220885D002D5BA84274
:208A2000F6D00B001000F3E70020F0E7F0B54B1EDBB21F2B3CD800283BD0002305E05A00F6
:208A4000155A1C4C15530133DBB21F2BF7D9002714E00133DBB28B4208D2164A5800805AE7
:208A60007400A25A9042F4D21E00F2E7114B7F00FA5A7600F05AF852F2522F004B081800E0
:208A80005A1C974204D27D1CEDB23E002B00E2E7CA0703D55B00074A985A0AE0054A5B006C
:208AA0009B5A01384000805A1818400880B200E00020F0BD9C04002070B504000201144BCC
:208AC0009B184C331B889BB2124A11888B4209D3421D12010E4B9B189B889BB299420CD32E
:208AE000002070BD00F064F90B4A63001D19A9005118486088600120F3E700F059F9064ABF
:208B000063001D19A9005118486088600320E8E700FC0000F4040020DC04002010B504004B
:208B2000421D1201124B9B181B899BB2114A1288934209D900F03CF963001C19A2000E4B5E
:208B40009B189860042010BD421D1201084B9B18598989B243001C18A200074B9B189868C6
:208B600000F02AF9012801D00420ECE70020EAE700FC0000F4040020DC04002070B50400C3
:208B8000421D12011E4B9B189B889BB21D4A128893421ED900F00CF96200121991001A4B92
:208BA0005B185860611D0901154A5218D18889B2986800F001F9012801D0032070BD00F081
:208BC000F7F863001C19A2000F4B9B1898600420F4E700F0EDF80C4A63001D19A900511892
:208BE0008860A000094909184988AB00D218506800F0E2F8012801D00320DFE70020DDE7CB
:208C000000FC0000F4040020DC04002070CC000010B504000201134B9B1850331B889BB2B4
:208C2000114A1288934209D200F0C2F863001C19A2000E4B9B189860022010BD0201094B61
:208C40009B185233198889B243001C18A200074B9B18986800F0B0F8012801D00220ECE75B
:208C60000020EAE700FC0000F4040020DC04002070B5040002011F4B9B184C331B889BB237
:208C80001D4A128893421ED200F092F863001B1999001A4A521850602101164B5B184E336F
:208CA000198889B2906800F087F8012801D0012070BD00F07DF863001C19A2000F4B9B187D
:208CC00098600220F4E700F073F80C4A63001D19A90051188860A0000949415AAB00D21839
:208CE000506800F069F8012801D00120E0E70020DEE7C04600FC0000F4040020DC0400208A
:208D000070CC000030B500220A4B1A8000230DE009495A00D418A00000244454D518081810
:208D20004460A80009188C600133DBB2012BEFD9012030BDF4040020DC04002070B50024B6
:208D400001E00134E4B2012C18D8200000F038F80B4B188063001B199A000A4BD65C042E32
:208D6000EFD8B200084BD358200098478642E8D063001D19AB00034A9854E2E770BDC04604
:208D8000F4040020DC0400205CCC0000012801D900207047002907D0430018188300034A76
:208DA0009B5C0B700120F4E70020F2E7DC04002010B500F035F810BD10B500F037F810BDEC
:208DC00010B50C20FEF79EFF10BD000010B50023064A1360064A1380064A1360064A13602F
:208DE00000F03EF800F052F810BDC0460005002004050020F8040020FC040020024A1368EF
:208E0000013313607047C0460005002010B500F05DF8024B1880188880B210BD0405002012
:208E2000014B18687047C04600050020044B1B68181A884201D2002070470120FCE7C04602
:208E40000005002070B505000C0000F03FF8401B80B2A04201D2002070BD0120FCE70000FD
:208E6000074A084B53600848036A1B021B0AC02109060B430362002393600733136070477F
:208E800010E000E03F9C000000ED00E000B58DB030220021684603F06DFC0A4A516A802339
:208EA0005B030B43536201235B426A46938002331370033353706946034802F059FF0DB01B
:208EC00000BDC0460080044000900340014B586880B270470090034010B5FFF78FFF10BD5A
:208EE00010B5C8220021094803F044FC0024084B1C80C8220021074803F03CFC064B1C8099
:208F000001F066F900F082F810BDC0460805002098060020D00500209A06002010B501F06E
:208F20006DF900F081F800F057F80400012800D010BD2349234800F053F80023092B0AD80E
:208F4000204A10785900204A52185278904203D00133DBB2F2E70024012C16D01B4B7F22AB
:208F60001A70184A12785A7011229A700E3A184B1A80164B1B787F2B01D001F009FA144B6D
:208F80001988124800F032F8D2E75B000E4A9B5C9B00104A9C58002C06D0094B19880C4B22
:208FA0000A4A0848A047E4E7084B7F221A70054A12785A7011229A700E3A054B1A80D8E70C
:208FC0009806002008050020A0CC0000D00500209A06002078CC000010B5FEF71DFC10BDA1
:208FE00010B50C00FEF720FC208010BD10B50A0001000020FEF72EFC10BD10B5FFF710FF7C
:2090000010BD10B5FFF712FF10BD00000023034A1370034A1360034A13607047A4060020F6
:20902000A00600209C06002010B5084B1B78012B00D010BD064B1968064B1868FFF7E1FFBB
:209040000128F6D100F07CF8F3E7C046A40600209C060020A0060020F0B583B00700150096
:209060001E000024002C0DD00023012B16D07F232B703B786B701223AB700F3B3380002038
:2090800003B0F0BD7A78A3001B1929481B5C9A4202D00134E4B2E5E70123E6E70194A20052
:2090A0001219234B9B189B788B4208D07F232B703B786B701323AB70103B3380DFE701F0DB
:2090C0004DF9A3001B191A4CE418E378034208D17F232B703B786B703323AB70303B33803E
:2090E000CDE700F07BFF019B9A009C466244104B9B181B790342EBD001220E4B1A70FFF7F6
:209100007CFF0D4B1860019A930094466344084AD3185A78FA239B00534308490B603B7889
:2091200040332B707B786B70AA7003233380A6E7B4CC0000A4060020A00600209C06002001
:20914000BFF34F8F024A034BDA60BFF34F8FFEE70400FA0500ED00E0F0B5CE4600B584B0C4
:20916000050016001F0002ABD98043781B0281781943C37899460024032C09D863001B199D
:20918000DA00614BD35A994212D00134E4B2F3E70023012B0ED07F2333702B78737012238D
:2091A000B3700F3B3B80002004B004BC9146F0BD0123EEE701F0D2F8019463001B19DA00B5
:2091C000514B9B18DB78034208D17F2333702B7873703323B370303B3B80E4E700F0FEFEAE
:2091E00063001C19E200484B9B181B790342ECD04B46002B05D102AB06331B889BB2042B83
:2092000011D04B46012B1ED04B46022B3CD04B46032B5AD07F2333702B7873703123B370CD
:209220002E3B3B80BFE7019A530094466344DA00354B9B189C6802ABD98889B23B0032002E
:209240002800A047AFE702AB06331B889BB2042BDAD1019A530094466344DA002A4B9B1848
:20926000DC68002C07D002ABD98889B23B0032002800A04797E77F2333702B787370312345
:20928000B3702E3B3B808EE702AB06331B889BB2042BBCD1019A530094466344DA001A4BD2
:2092A0009B181C69002C07D002ABD98889B23B0032002800A04776E77F2333702B78737086
:2092C0003123B3702E3B3B806DE7019A530094466344DA000C4B9B189A78043202AB06331E
:2092E0001B889BB29A4295D1624653006344DA00054B9B185C6902ABD98889B23B00320042
:209300002800A0474FE7C046BCCC000070B504001D00037840331370437853708378937047
:20932000C378D37003791371437953714379DB0717D463799B071ED463795B0726D4637922
:209340001B072ED46379DB0636D463799B063ED463795B0646D46379DB094ED106232B8089
:2093600070BD0020FEF732FF2379012119400020FEF722FFDDE70120FEF728FF23795B082D
:20938000012119400120FEF717FFD5E70220FEF71DFF23799B08012119400220FEF70CFF5B
:2093A000CDE70320FEF712FF2379DB08012119400320FEF701FFC5E70420FEF707FF237957
:2093C0001B09012119400420FEF7F6FEBDE70520FEF7FCFE23795B09012119400520FEF794
:2093E000EBFEB5E70620FEF7F1FE23799B09012119400620FEF7E0FEADE70720FEF7E6FE96
:209400002179C9090720FEF7D7FEA7E710B50178403111704178517081789170C178D17043
:2094200004221A80FEF7DCFE10BD70B504001D000378403313704378537083789370C37862
:20944000D370037913714379DB0711D463799B0718D463795B0720D463791B0728D46379D4
:20946000DB0630D463799B0638D405232B8070BD0020FEF797FC2379012119400020FEF7AA
:2094800087FCE3E70120FEF78DFC23795B08012119400120FEF77CFCDBE70220FEF782FC81
:2094A00023799B08012119400220FEF771FCD3E70320FEF777FC2379DB080121194003200C
:2094C000FEF766FCCBE70420FEF76CFC23791B09012119400420FEF75BFCC3E70520FEF793
:2094E00061FC23795B09012119400520FEF750FCBBE710B5017840311170417851708178E9
:209500009170C178D17004221A80FEF757FC10BDF0B5C64600B582B005000F00160098465B
:2095200043781B0281781943022F10D80023012B1ED07F2333702B7873703123B3702E3BFD
:2095400042461380002002B004BC9046F0BD0024252C09D863001B199A00254BD35A9942DC
:2095600004D00134E4B2F3E70023E0E70123DEE7019463001B199A001D4B9B189B789F42CA
:2095800009D07F2333702B7873701323B370103B42461380D6E700F0E1FE63001C19A200A2
:2095A000134B9B18DB78034209D17F2333702B7873703323B370303B42461380C2E700F0C5
:2095C0000DFD019A5300944663449A00084B9B181B790342E9D06246530063449A00044B55
:2095E0009B189C684346320039002800A047A9E734CD000010B51C00037840331370437813
:20960000537083789370D01C0822034903F070F80B23238010BDC04600FA000010B51C004D
:209620000378403313704378537083789370D01C04220349083103F05BF80723238010BDC6
:2096400000FA000010B51C000378403313704378537083789370D01C0A2203490C3103F0AE
:2096600047F80D23238010BD00FA000010B51C000378403313704378537083789370D01C57
:209680000A220349163103F033F80D23238010BD00FA000010B51C00037840331370437846
:2096A000537083789370D01C0A220349203103F01FF80D23238010BD00FA000010B51C00AF
:2096C0000378403313704378537083789370D01C0F2203493E3103F00BF81223238010BD2A
:2096E00000FA000010B51C000378403313704378537083789370D01C022203494D3102F0D6
:20970000F7FF0523238010BD00FA000010B51C000378403313704378537083789370D01C07
:209720000F2203494F3102F0E3FF1223238010BD00FA000010B51C000378403313704378AC
:20974000537083789370D01C022203495E3102F0CFFF0523238010BD00FA000010B51C002A
:209760000378403313704378537083789370D01C02220349603102F0BBFF0523238010BDCB
:2097800000FA000010B51C000378403313704378537083789370D01C02220349623102F020
:2097A000A7FF0523238010BD00FA000010B51C000378403313704378537083789370D01CB7
:2097C00002220349643102F093FF0523238010BD00FA000010B51C00037840331370437861
:2097E000537083789370D01C02220349663102F07FFF0523238010BD00FA000010B51C00D2
:209800000378403313704378537083789370D01C02220349683102F06BFF0523238010BD72
:2098200000FA000010B51C000378403313704378537083789370D01C0A2203496A3102F06F
:2098400057FF0D23238010BD00FA000010B51C000378403313704378537083789370D01C5E
:209860000A220349743102F043FF0D23238010BD00FA000010B51C000378403313704378F0
:20988000537083789370D01C0A2203497E3102F02FFF0D23238010BD00FA000010B51C0059
:2098A0000378403313704378537083789370D01CA522034902F01CFFA823238010BDC0466E
:2098C00000FA000010B51C000378403313704378537083789370D01C1C22034902F008FF51
:2098E0001F23238010BDC04600FE000010B51C000378403313704378537083789370D01CF8
:2099000004228321C90002F0F3FE0723238010BD10B51C000378403313704378537083786C
:209920009370D01C08228421C90002F0E1FE0B23238010BD10B51C00037840331370437824
:20994000537083789370D01C0422034902F0D0FE0723238010BDC04600FC000010B51C00AB
:209960000378403313704378537083789370D01C0421FFF709F80723238010BD10B51C0077
:209980000378403313704378537083789370D01C0821FFF70BF80B23238010BDF8B516006B
:2099A0001F0003784033137043785370837893700024002503200BE030180421FEF7E4FFFF
:2099C0000435EDB2002D36D0E81CC0B20134E4B2052C36D82DD8A3001B4AD3589F46301897
:2099E0000821FEF7E3FF0835EDB2EBE730180422164902F07DFE0435EDB2E3E7301808226B
:209A00001249043102F074FE0835EDB2DAE7301804228321C90002F06BFE0435EDB2D1E7EF
:209A2000301808228421C90002F062FE0835EDB2C8E70025C6E7F01C3022302102F09AFE5E
:209A4000302503353D80F8BD1CCD000000FC000070B514001D0003784033137043785370DD
:209A6000837893700020FEF78BFB01231840E0700120FEF785FB400002230340E078184390
:209A8000E0700220FEF77CFB800004263040E3781843E0700320FEF773FBC0000823034014
:209AA000E0781843E0700420FEF76AFB000110230340E0781843E0700520FEF761FB4001F4
:209AC00020230340E0781843E0700620FEF758FB800140230340E0781843E0700720FEF749
:209AE0004FFBC301E0781843E0702E8070BD70B514001D000378403313704378537083783A
:209B000093700020FEF7FEF801231840E0700120FEF7F8F8400002230340E0781843E070BA
:209B20000220FEF7EFF8800004263040E3781843E0700320FEF7E6F8C00008230340E0788B
:209B40001843E0700420FEF7DDF8000110230340E0781843E0700520FEF7D4F84001202388
:209B60000340E0781843E0702E8070BD70B514001E00037840331370437853708378937080
:209B80000620FEF7BFF805000720FEF7BBF82D18ADB22B0AE37025710820FEF7B3F8030A88
:209BA0006371A0710920FEF7ADF8030AE37120720A20FEF7A7F8030A6372A0720B20FEF738
:209BC000A1F8030AE37220730D23338070BD70B514001D00037840331370437853708378A7
:209BE00093700C20FEF78EF86421FBF7B5FCE07004232B8070BD70B582B015001E0003783F
:209C00004033137043785370837893706B46DC1D21000020FEF7E4FD2378EB7021000120D9
:209C2000FEF7DEFD23782B7121000220FEF7D8FD23786B7121000320FEF7D2FD2378AB71DA
:209C400021000420FEF7CCFD2378EB710823338002B070BD70B514001D0003784033137086
:209C6000437853708378937001F0E8F8030EE370030C2371030A6371A07107232B8070BD9C
:209C800070B514001D00037840331370437853708378937001F0CCF8030EE370030C2371C5
:209CA000030A6371A07107232B8070BD70B514001D0003784033137043785370837893706D
:209CC00001F0B0F8030EE370030C2371030A6371A07107232B8070BD70B514001D0003781F
:209CE00040331370437853708378937001F094F8030EE370030C2371030A6371A071072352
:209D00002B8070BD70B514001D00037840331370437853708378937000F02EFBE070042398
:209D20002B8070BD70B514001D00037840331370437853708378937000F0F4FCE0700423B1
:209D40002B8070BD70B514001D0003784033137043785370837893700020FCF773F9E07019
:209D60000020FCF73DF9207105232B8070BD10B51C0003784033137043785370837893703B
:209D8000D01C1421FEF724FE1723238010BD0000F0B583B00600009115001F0043781B0266
:209DA000817819430024012C09D863001B199A002A4BD35A994210D00134E4B2F3E70023C6
:209DC000012B0CD07F232B7033786B703123AB702E3B3B80002003B0F0BD0123F0E7019415
:209DE00063001B199A001D4B9B189B78009A934208D07F232B7033786B701323AB70103B5E
:209E00003B80E7E700F0AAFA63001C19A200134B9B18DB78034208D17F232B7033786B70A6
:209E20003323AB70303B3B80D4E700F0D7F8019A5300944663449A00084B9B181B79034229
:209E4000EAD06246530063449A00044B9B189C683B002A0000993000A047BBE7FCCE000085
:209E6000F0B589B0040016001F00C3781B0202791A4301AB1A804179090282790A435A806E
:209E8000C1790902027A0A439A80417A0902827A0A43DA80C17A0902027B0A431A81417BCA
:209EA0000902827B0A435A81C17B0902027C0A439A81417C0902827C0A43DA81C17C09028F
:209EC000027D0A431A82417D0902827D0A435A82C17D0902027E0A439A82417E0902827E2D
:209EE0000A43DA82C17E0902027F0A431A83417F0902827F0A435A83FE252D02174B9D427B
:209F000015D900251C2201A9FE20000201F036F9002800D00125002D15D07F2333702378F6
:209F200073702223B3701F3B3B8009B0F0BD280001F0DEFE002804D180239B009C466544A0
:209F4000DCE70125DEE723784033337063787370A378B37003233B80E7E7C046FFFF0000F3
:209F6000F0B5ABB0060015001F00C11CA522684602F0BEFBFA242402174B9C4215D9002414
:209F8000A5226946FA20000201F0F8F8002800D00124002C15D07F232B7033786B70222318
:209FA000AB701F3B3B802BB0F0BD200001F0A0FE002804D180239B009C466444DCE701248D
:209FC000DEE7337840332B7073786B70B378AB7003233B80E7E7C046FFFB0000014B18786C
:209FE0007047C04624FAFF1FF0B585B00500029116001F000024012C0AD8697863001B1916
:20A000009A002C4BD35C994210D00134E4B2F2E70023012B0CD07F2333702B787370122376
:20A02000B3700F3B3B80002005B0F0BD0123F0E7039463001B199A001E4B9B189B78029AE8
:20A04000934208D07F2333702B7873701323B370103B3B80E7E700F081F963001C19A200B7
:20A06000144B9B18DB7803420BD0FFF7B7FF039A5300944663449A000E4B9B181B790342BF
:20A0800008D17F2333702B7873703323B370303B3B80C8E76246530063449A00054B9B188F
:20A0A0009C68054B00933B00320002992800A047B9E7C04614CF000024FAFF1F0122014B6E
:20A0C0001A70704724FAFF1F0C4A13781B06507800040343907800020343D27813435A099C
:20A0E000DB051343DA00D21A054B5340CB701A0A8A701A0C4A701B0E0B707047AC0600201B
:20A100003539345370B50D00FEF777FF0C4E3368C41AFEF772FF30600A4B1A68A018013024
:20A12000186040430849C870030A8B70030C4B70000E08700422280002F0DAFA70BDC046FC
:20A14000B006002028FAFF1FAC06002010B51C0003784033137043785370911C4078FFF7EC
:20A16000D1FF0623238010BD70B50D00074C2100FFF7AAFF04222100280002F093FA00281B
:20A1800001D1012070BD0020FCE7C046A806002070B5040015001E00811C4078FFF7E4FF3E
:20A1A00001280BD00123049A13707E332B7023786B703523AB70323B338070BD0222049B11
:20A1C0001A70237840332B7063786B703280F4E70023054A1370054A1360054A1370054B30
:20A1E0009A88054B1A607047B5060020BC060020B40600202CCF0000B806002010B5074B35
:20A200001968074B1868FEF7FCFE012800D010BD0023044A1370044A1370F8E7B8060020B4
:20A22000BC060020B5060020B4060020F0B5C64600B5050016001F000024022C0CD86878D1
:20A24000A3001B195A00424BD25C0F230340934211D00134E4B2F0E70023012B0DD07F2377
:20A2600033702B7873701223B3700F3B3B80002004BC9046F0BD0123EFE7A046A3001B193E
:20A280005A00334B9B189B798B4208D07F2333702B7873701323B370103B3B80E7E72C4B0B
:20A2A0002C4A1278910089184A009A185078A200121951005B18DB79034208D17F23337060
:20A2C0002B7873703323B370303B3B80CFE7FFF785FEA30043445A001D4B9B181B7A0342B1
:20A2E000ECD01B4B1B4A1278910089184A009A185078A200424451005B18597888420DD0F3
:20A3000000F084F8134B1C70A30043445A00104B9B189A88104B1A60FFF7D0FE2B78403384
:20A3200033706B7873700A4A43469B00414658184100080051184988F170090AB170121803
:20A34000938873711B0A337106233B808FE7C0462CCF0000B5060020B8060020044B1A7840
:20A3600093009B185A00034B9B1858787047C046B50600202CCF0000034B1A7893009B18B3
:20A380005A00024B985C7047B50600202CCF000010B5FEF732FE034B18600122024B1A70EB
:20A3A00010BDC046BC060020B4060020014B18787047C046B406002070B505000C0004E081
:20A3C000FDF77AF90020FCF723FB220029000020FDF740FA0128F3D004E0FDF76DF9002002
:20A3E000FCF716FBFDF75AFA0028F6D170BD00B583B001A87F230370753B43706E33837058
:20A400000321FFF7D9FF03B000BD000070B505000C00012902D0042D07D070BD0128FAD080
:20A42000FDF7CCFCFDF7DCFEF5E7022CF5D1A522034B1A70FFF7DBFFFEF782FEEDE7C04604
:20A4400000F8FF1F022909D07F211170017851701321917003221A800020704741780029DA
:20A4600007D10178403111704178517002221A80F2E77F21117001785170122191700322D4
:20A480001A80E9E7F0B5CE46474680B583B006008846170001934378994681780902C3784C
:20A4A00019434346032B35D8132393700124002C32D00025002C48D0002C54D0002C0DD12D
:20A4C0004A46013A690049198800344B1B189B189B78002B02D11233BB700134002C0AD13C
:20A4E0006B005B199A002D4B9B185B79984502D01323BB700134002C43D07F233B70337868
:20A500007B700323019A1380002003B00CBC90469946F0BD0024CAE7002C09D163001B198D
:20A520009A001E4BD35A994208D00134E4B2F3E70123012B04D025001C00BBE72300F8E78A
:20A540003122BA7025001C00B4E7FFF707FF6B005B199A00114B9B189B790342ACD13123F4
:20A56000BB700134A8E7FFF739FD6B005B199A000A4B9B18DB790342A0D13323BB7001347F
:20A580009CE76B005B199A00044B9B189C68019B3A0041463000A047B6E7C0464CCF000087
:20A5A000002111710178403111704178517081789170C178D17005221A807047F0B5C64676
:20A5C00000B582B0060088461700019343780F221A408078022920D81323BB700125002D00
:20A5E0001DD00024002D33D0002D08D1E200234B9B189B78984502D01323BB700135002D8B
:20A6000032D07F233B7033787B700323019A1380002002B004BC9046F0BD0025DFE72C00D5
:20A62000042C07D8E30015495B5C9A4203D00134E4B2F5E70125012D07D0E2000F4B9B18A3
:20A640005B780342CED13125CCE71223BB70C9E7FFF784FEE200094B9B18DB780342C3D19D
:20A660002223BB700135BFE7E400044B1C196468019B3A0041463000A047C9E758CF00000F
:20A680000178403111704178517002221A8070470178403111704178517002221A80704706
:20A6A0000178403111704178517002221A8070470178403111704178517002221A807047E6
:20A6C0000178403111704178517002221A80704710B5012911D90024002C04D1022902D025
:20A6E000132191700134002C0BD07F2111700178517003221A80002010BD13249470123C59
:20A70000EAE70178403111700178517002221A80F1E7000010B500F011F8014B187010BDCE
:20A72000C0060020014B18787047C046C0060020014B18687047C0460080044010B5FFF7AC
:20A74000F7FF830719D4430719D4830601D5032014E0430601D5042010E0030601D50520A8
:20A760000CE0830501D5072008E0430501D5082004E0830405D5092000E0002010BD0120DE
:20A78000FCE70A20FAE7000070B500F085F8174B186000F089F8164B186000231AE0134A9B
:20A7A000126814490C78D4545C1C4D7815559C1C8D781555DC1CCD7815551C1D0D79155578
:20A7C0005C1D4D7915559C1D8D791555DC1DC979115508330200403A9342E0D30023064A54
:20A7E0001370064A1370064A137070BDC4060020C806002080CF0000CD060020CE060020F5
:20A80000CC06002070B500F057F800241A4B1D68AC420AD2194B186800190822184901F091
:20A8200041FF002801D11034F0E72C1B64204443680820182900FAF78FFEC0B2114B1870CC
:20A84000114B1B78984203D30F4B5B78984206D30D4B5B78984208D200F02FF870BD00F066
:20A8600019F80122094B1A70F6E700F014F80122074B1A70F0E7C046C8060020C406002039
:20A8800080CF0000CD06002088CF0000CE060020CC06002070477047004870472008002084
:20A8A00000487047200C002010B5FFF7F9FF0400FFF7F2FF201A10BD7047704710B51A4B10
:20A8C0001C78042C2ED8A300184AD3589F4600F015F9012806D1022404E000F093F90128EC
:20A8E00002D10224200010BD00F0B2F90128F9D10324F7E700F004F90128F3D10324F1E706
:20A9000000F044F9012801D10424EBE700F040F90128E7D10224E5E700F03CF90128E1D119
:20A920000124DFE70024DDE7D10600208CCF00000023002B00D07047D900034A895C034AC5
:20A94000D1540133DBB2F4E7DCCF0000D006002070B51B4B1B78042B08D85A00D3189A0089
:20A96000184B9B185B68002B00D09847FFF7A6FF0400134B1B78984214D0042B08D85A006D
:20A98000D3189A000F4B9B189B68002B00D098470B4B1C7063001C19A3000A4A9B58002BB9
:20A9A00000D09847002407E0074D295D200000F05BF928550134E4B2002CF5D070BDC04633
:20A9C000D1060020A0CF0000D0060020002801D003207047014B185CFBE7C046D0060020AA
:20A9E000704710B500F0BAFB10BD10B500F0AEFB002802D000F008FC10BD00F045FEF9E73D
:20AA000010B500F001FC10BD10B5034800F030FA00F0FAFB10BDC0462CFAFF1F10B50020AC
:20AA2000FCF76CF800F010FE00F06AFE10BD10B500F05CF910BD000010B500F04BFBFEF7D5
:20AA4000EFF9014B186010BDD806002010B500F01BFE00F019F9FEF7E3F9014B186010BD4D
:20AA6000DC06002010B5FEF7DBF9204B186000F0CFFBFEF7ABF900F029FF1D4800F0F8F9B2
:20AA800000F074FBFEF73EF9FDF778F8FDF7EAFAFDF7ACFDFAF7D6FE00F032FEFCF768F81A
:20AAA000002403E0FBF760FA0134E4B200F0A0FC002801D1042CF5D900F09AFC002801D174
:20AAC000042C0AD8FEF70CFAFCF7E0FDFEF708FAFCF7FEFA00F06CFB10BDBFF34F8F054AB4
:20AAE000054BDA60BFF34F8FFEE7C046D80600202CFAFF1F0400FA0500ED00E00120704767
:20AB000010B582B06B46D91D00230B700120FBF7E9FE012816D00124FFF748FC01281ED07A
:20AB2000FDF710F9002800D00024002C19D0144B18681449FEF77AF9012817D000242000EF
:20AB400002B010BD6B4607331B78002B05D0042B01D00024E0E70124DEE70124DCE7002417
:20AB6000DEE7FEF75DF9064B1860E8E7064B18680449FEF75BF904000128E0D00024DEE700
:20AB8000D406002088130000D8060020012070470020704700B583B000226B46DA71174B0B
:20ABA0001B68002B01D0154B1A6000F093FD002807D101226B46DA716B46D879C0B203B076
:20ABC00000BD0F4B98785B780121994000F058FE0128EED00A4B58791B790121994000F0AE
:20ABE0004FFE0128E5D0064B187ADB790121994000F046FE0128DFD1DBE7C046A807002054
:20AC000020FBFF1F10B500F065FD002801D1012010BD0E4B98785B780121994000F030FEA7
:20AC20000128F5D0094B58791B790121994000F027FE0128ECD0054B187ADB790121994047
:20AC400000F01EFE0128E3D00020E1E720FBFF1F10B5044B18680A21FEF7E8F8012800D05E
:20AC6000002010BDDC06002010B50C00002807D1012905D0FA218900FEF7D8F8012801D0B2
:20AC8000200010BD0124FBE700230FE05A00D21891000D4A521890689A000C495050002170
:20ACA0000B4811500B4811500133DBB20D2BEDD90023094A1360094A1360094A1360094AA5
:20ACC0001360094A13707047E4CF000054070020E40600201C0700208C070020900700208F
:20ACE00094070020980700209C070020F0B5C64600B5002000F0A8F80400012000F0A4F850
:20AD000080463B4B1E68A61B00223A4B1A603A4B1B78002B02D1364A14600026002E01D14F
:20AD2000002B51D10122344B1A70314B1C6000240AE0A2009B1B31495350AB002F4A9B5808
:20AD4000002B0DD00134E4B20D2C35D82500A3002A4A9B589E42ECD3A30000219950ECE78C
:20AD6000012000F071F807006B005B199A00244BD358002B00D09847012000F065F887422E
:20AD800003D2C01BAB001F4A9850AB001D4A995818480268521802601B4A9B58994201D961
:20ADA000AB0099506B005B199A00154B9B185A68AD00124BEA50C5E70E4B1B68134A12680E
:20ADC000934201D9114A1360012000F03DF8804503D24346C01A0E4B18600D4B1B680D4AB0
:20ADE0001268934201D90B4A136004BC9046F0BDE00600208C0700209C0700205407002028
:20AE0000E4CF0000E40600201C070020900700209407002098070020014B18687047C04678
:20AE20008C070020014B18687047C04690070020014B18687047C04694070020014B18680F
:20AE40007047C0469807002010B5002802D0FDF7DDFF10BDFDF7E4FFFBE710B5FFF794FC16
:20AE6000FFF758FCFFF764FDFFF772FDFCE7000030B58FB0002800D199E04E4B186001231E
:20AE80005B420A930693029300230B93079303930C93089304930D93099305931EE09A001C
:20AEA00082181478DD004449491909798C400A9DA5430A9554788C400B9D01952C430B9440
:20AEC00094788C400C9D01952C430C94D2788A400D9901910A430D920133DBB2392B47D8D0
:20AEE000DA003549525835498A42D8D034498A4220D034498A42EFD19A0082181578DC007F
:20AF00002D490C1921798D40029CAC43029454788C40039D01952C43039494788C40049DBF
:20AF200001952C430494D2788A40059901910A430592D1E79A0082181578DC001E490C196B
:20AF400021798D40069CAC43069454788C40079D01952C43079494788C40089D01952C4301
:20AF60000894D2788A40099901910A430992B3E712490A9B8B61124A069B9361114B029898
:20AF800098610B98486107985061039858610C9801900D48019C8460089CC460049C0194C0
:20AFA00004610D98086009991160059A1A600FB030BDC046A00700208CD0000000F00F40DF
:20AFC00040F00F4080F00F4000900440074B1B68002B09D0392807D8054BC000C2581818EC
:20AFE000017901238B4053607047C046A00700208CD00000074B1B68002B09D0392807D83C
:20B00000054BC000C2581818017901238B4093607047C046A00700208CD000000D4B1B68BF
:20B02000002B0DD039280BD801290AD0002907D1094BC000C2581818017901238B40936005
:20B040007047054BC000C2581818017901238B405360F5E7A00700208CD000000B4B1B68EB
:20B06000002B0FD039280FD8094BC000C25812691818017901238B40134201D0012004E011
:20B08000002002E0002000E000207047A00700208CD0000010B582B008220021684601F0D3
:20B0A00069FB40236A461370074B5380012414715471022393716946044800F04DFC044B56
:20B0C0001C7002B010BDC04600F0FFFF00B00340A407002010B5044B1B78002B00D010BD44
:20B0E000FFF7D8FFFBE7C046A407002010B5134B1B78002B01D1124810BD032801D9104899
:20B10000FAE780000F4B195C0F4800F0FFFBFDF77DFE04000C4B1B681B06FBD5A0B23221DB
:20B12000FDF790FE0028F5D0074B1B681B0601D40348E1E7044B186980B2DDE7A407002031
:20B14000FFFF00005CD2000000B0034010B50321014801F0EDF810BD00D0074010B50248D5
:20B1600001F0E0F810BDC04600D0074010B5024800F08CFC10BDC046002D310170B5060038
:20B180000D001400C30501D0084870BD80239B009A4201D90548F8E700F0AAFD0028F4D1D4
:20B1A00022002900300000F053FDEEE70130000000B583B06B461B780122934301329343A0
:20B1C00004210B43DBB208218B4308318B4310318B4320318B4369460B700B8809490B40E9
:20B1E00080210B4399B2684603800B0A93434370642343800023838001F024F901F07EF960
:20B2000003B000BD7FFEFFFF10B501F077F910BD10B5024800F076FF10BDC04614FBFF1FDC
:20B2200010B5400180B20723184380B2490189B2040AC0B20B0AC9B2012A0CD0002A04D085
:20B24000022A0ED0032A12D010BD0C4A1475507513745174F8E7094A9475D0759374D1744C
:20B26000F2E7064A1477507713765176ECE7034A9477D0779376D176E6E7C04600400240EC
:20B2800010B51022084BDA72002409E0074BA20099184988D05A2200FFF7C2FF0134E4B2C7
:20B2A000022CF3D910BDC046004002406CD2000010B50020FAF7D2FE10BD0000034B1B79AC
:20B2C0005B0602D54022014B1A7170470040024070B5FDF7A5FD04000022404B1A70404A44
:20B2E000516980231B020B4353613E4A13785BB201210B43DBB213703A4B5B78DB0705D41F
:20B3000001212000FDF792FD0028F5D0354B5B78DB0703D40022314B1A7070BD314D8023F9
:20B320006B7001262E70FFF7ABFF2F49C72292008B581B021B0A8020C00503438B508B584C
:20B340002A4818408023DB0303438B504023AB70153BEB70FDF764FD04002B78B3432B70CB
:20B36000204B5B78DB0705D501212000FDF75EFD0028F5D11B4B5B78DB07CED4194B1A78A1
:20B3800004210A43D2B21A70C2221A715A7901210A43D2B25A715A79802149420A43D2B25D
:20B3A0005A715A7940210A43D2B25A715A7952B20C210A43D2B25A715A7952B230210A43DD
:20B3C000D2B25A718022D205074B1A602320FFF711FE024B01221A709FE7C046A50700203F
:20B3E000008004400040024000E100E0FFFF00FF014B18787047C046A5070020024B1B7903
:20B400009B0803201840704700400240024B1B791B09032018407047004002400020704745
:20B4200000207047034B1B79DB0701D5012070470020FCE70040024030B51A4B5C790125F9
:20B44000AC435C711B79DB071BD5164C2023E35CDB002035655D6D092B4303602C23E35C1F
:20B460000F2003401370002305E00F4818180078C8540133DBB210788342F6D30122094B66
:20B480001A71084B1B799B0702D50222054B1A71044A537901210B43DBB25371137901203A
:20B4A00030BDC0460040024024400240F0B5DE4657464E464546E0B583B083465A4B9B79A2
:20B4C000DBB2DC0737D50125574CA57201269C0735D5002E31D10225534CA57202240136D2
:20B4E000F5B226005B0705D504244F4B9C720135EDB20426002D00D182E0DC465B46002B26
:20B500001FDB5B46DB08DBB2474C3027E3550137E35D5BB2984617234046034058464001B9
:20B5200040B21843C0B2E055E35D08208343E35572B6002349E00026C9E73400CFE7350048
:20B54000D0E75C0DE4B2384B3027DC550137D85D1824044000945846800C40016C46E0713B
:20B56000E07980465846C00B82460720814650464C462040814640464C462043009C0443E0
:20B580000820804640460443E4B2DC555846C409E4B232201C54013081461C5C60B20124BF
:20B5A00004405846400040B20443E4B248461C54D85D40B244462043C0B2D855B8E7CC5C22
:20B5C0001A48181804700133DBB29342F7D362B615483C21435C5BB20F24A3431A43D2B28D
:20B5E00042546346002B15DB0F4931228B5C102083438B540C4A9671D3791E43F6B2D67191
:20B60000012D0ED9012003B03CBC90469946A246AB46F0BD01003322835C012083438B5413
:20B62000E8E70020EFE7C0460040024034400240044A137A07210B43DBB213720023D3713D
:20B640007047C0460040024010B5FFF7F1FF0D4B597849B204200143C9B2597080221A7103
:20B660001A7852B20243D2B21A701A7852B202210A43D2B21A702320FFF7A8FC1F2000F0C1
:20B6800037FE10BD0040024010B51F2000F03CFE2320FFF7AFFC094B1A7804218A431A70B2
:20B6A0001A7802398A431A705A797D310A405A715A7901210A43D2B25A7110BD00400240F0
:20B6C00010B5FFF7E1FF0020FAF796FCFFF7F6FD10BD0000064B5B789B0707D5044B1B78F2
:20B6E0009B0701D5012002E0002000E000207047004002400122014B1A707047D8070020C7
:20B70000F0B5DE4657464E464546E0B595B0002567E00133DBB2022B36D85F00FF18534A4F
:20B72000D21952789642F4D15F00FF184F4AD21992789542EDD14D4A914639004A46BA5CD1
:20B74000D207D70F0197E7003F19BF0002AA94466744BC46844462461779B8460127BA463B
:20B760004746524697434A46895C8907C90F49003A00019F17433A000227BA430A4361461C
:20B780000A7101229446C4E70136F6B21F2E0DD83000E2001219930002AA904643449B19E8
:20B7A0001A7902218A431A710023B4E7E3001B199A0002ABD35C01218B4302A95354634645
:20B7C000012B2ED0E3001C19A30002AA9A5C02218A4302A95A54002D2AD0012D2DD0013511
:20B7E000EDB2012D2ED82C00EF007B199E0002AB9C466644B34624220021300000F0BAFFB7
:20B800007A19930002AA9B5C102213437F19BA00DBB220210B4302A95354002600239C46EC
:20B82000B4E713005A5C02210A4302A95A54D2E759460F4800F0A0FCD1E759460D4800F004
:20B840009BFCCCE700220C4B1A700C4C2100084800F020FD2100074800F01CFD15B03CBC8F
:20B8600090469946A246AB46F0BDC04620FBFF1F0090074000A00740D8070020F5B60000E6
:20B88000012804D9002319420DD001207047002803D0012804D00023F5E7044BDB68F2E70D
:20B8A000034BDB68EFE70020F0E7C0460090074000A00740024A1368013313607047C0463B
:20B8C000A807002010B500F063FE10BD10B50D4803781022934340221343DBB2802252429E
:20B8E000134303704378072119433F230B401A4342701923438000F00FFE0348FFF7E2FF66
:20B9000010BDC046DC070020B5B8000003681F22934311401943016070478368602293435A
:20B920004901114019438160704783680C22934389001140194381607047836803229343D5
